{
  "contractName": "IGVDAPP",
  "abi": [
    {
      "constant": true,
      "inputs": [],
      "name": "totalCampaigns",
      "outputs": [
        {
          "name": "",
          "type": "uint256"
        }
      ],
      "payable": false,
      "stateMutability": "view",
      "type": "function"
    },
    {
      "constant": true,
      "inputs": [],
      "name": "name",
      "outputs": [
        {
          "name": "_name",
          "type": "string"
        }
      ],
      "payable": false,
      "stateMutability": "pure",
      "type": "function"
    },
    {
      "constant": false,
      "inputs": [
        {
          "name": "_to",
          "type": "address"
        },
        {
          "name": "_tokenId",
          "type": "uint256"
        }
      ],
      "name": "approve",
      "outputs": [],
      "payable": false,
      "stateMutability": "nonpayable",
      "type": "function"
    },
    {
      "constant": true,
      "inputs": [],
      "name": "campaignEscrowAmount",
      "outputs": [
        {
          "name": "",
          "type": "uint256"
        }
      ],
      "payable": false,
      "stateMutability": "view",
      "type": "function"
    },
    {
      "constant": true,
      "inputs": [],
      "name": "totalSupply",
      "outputs": [
        {
          "name": "",
          "type": "uint256"
        }
      ],
      "payable": false,
      "stateMutability": "view",
      "type": "function"
    },
    {
      "constant": false,
      "inputs": [
        {
          "name": "_campaignId",
          "type": "uint256"
        }
      ],
      "name": "readyCampaign",
      "outputs": [],
      "payable": false,
      "stateMutability": "nonpayable",
      "type": "function"
    },
    {
      "constant": true,
      "inputs": [
        {
          "name": "_tokenId",
          "type": "uint256"
        }
      ],
      "name": "approvedFor",
      "outputs": [
        {
          "name": "",
          "type": "address"
        }
      ],
      "payable": false,
      "stateMutability": "view",
      "type": "function"
    },
    {
      "constant": true,
      "inputs": [
        {
          "name": "_owner",
          "type": "address"
        }
      ],
      "name": "getTotalCampaignsForOwner",
      "outputs": [
        {
          "name": "total",
          "type": "uint256"
        }
      ],
      "payable": false,
      "stateMutability": "view",
      "type": "function"
    },
    {
      "constant": true,
      "inputs": [
        {
          "name": "",
          "type": "address"
        }
      ],
      "name": "campaignOwnerTotalCampaigns",
      "outputs": [
        {
          "name": "",
          "type": "uint256"
        }
      ],
      "payable": false,
      "stateMutability": "view",
      "type": "function"
    },
    {
      "constant": true,
      "inputs": [],
      "name": "founderAddress",
      "outputs": [
        {
          "name": "",
          "type": "address"
        }
      ],
      "payable": false,
      "stateMutability": "view",
      "type": "function"
    },
    {
      "constant": false,
      "inputs": [
        {
          "name": "_campaignId",
          "type": "uint256"
        }
      ],
      "name": "activateCampaign",
      "outputs": [],
      "payable": false,
      "stateMutability": "nonpayable",
      "type": "function"
    },
    {
      "constant": true,
      "inputs": [
        {
          "name": "_id",
          "type": "uint256"
        }
      ],
      "name": "getCampaign",
      "outputs": [
        {
          "name": "owner",
          "type": "address"
        },
        {
          "name": "campaignName",
          "type": "string"
        },
        {
          "name": "taxId",
          "type": "string"
        },
        {
          "name": "active",
          "type": "bool"
        },
        {
          "name": "veto",
          "type": "bool"
        },
        {
          "name": "ready",
          "type": "bool"
        }
      ],
      "payable": false,
      "stateMutability": "view",
      "type": "function"
    },
    {
      "constant": true,
      "inputs": [
        {
          "name": "_owner",
          "type": "address"
        }
      ],
      "name": "tokensOf",
      "outputs": [
        {
          "name": "",
          "type": "uint256[]"
        }
      ],
      "payable": false,
      "stateMutability": "view",
      "type": "function"
    },
    {
      "constant": false,
      "inputs": [
        {
          "name": "_campaignEscrowAmount",
          "type": "uint64"
        }
      ],
      "name": "changeEscrowAmount",
      "outputs": [],
      "payable": false,
      "stateMutability": "nonpayable",
      "type": "function"
    },
    {
      "constant": true,
      "inputs": [
        {
          "name": "_tokenId",
          "type": "uint256"
        }
      ],
      "name": "ownerOf",
      "outputs": [
        {
          "name": "",
          "type": "address"
        }
      ],
      "payable": false,
      "stateMutability": "view",
      "type": "function"
    },
    {
      "constant": false,
      "inputs": [
        {
          "name": "_campaignId",
          "type": "uint256"
        },
        {
          "name": "_supply",
          "type": "uint256"
        },
        {
          "name": "_name",
          "type": "string"
        },
        {
          "name": "_price",
          "type": "uint256"
        }
      ],
      "name": "createCertificate",
      "outputs": [
        {
          "name": "",
          "type": "uint256"
        }
      ],
      "payable": false,
      "stateMutability": "nonpayable",
      "type": "function"
    },
    {
      "constant": false,
      "inputs": [
        {
          "name": "_campaignId",
          "type": "uint256"
        },
        {
          "name": "_certificateIdx",
          "type": "uint256"
        },
        {
          "name": "_supply",
          "type": "uint256"
        },
        {
          "name": "_name",
          "type": "string"
        },
        {
          "name": "_price",
          "type": "uint256"
        }
      ],
      "name": "updateCertificate",
      "outputs": [],
      "payable": false,
      "stateMutability": "nonpayable",
      "type": "function"
    },
    {
      "constant": true,
      "inputs": [
        {
          "name": "_owner",
          "type": "address"
        }
      ],
      "name": "balanceOf",
      "outputs": [
        {
          "name": "",
          "type": "uint256"
        }
      ],
      "payable": false,
      "stateMutability": "view",
      "type": "function"
    },
    {
      "constant": true,
      "inputs": [],
      "name": "maxCertificates",
      "outputs": [
        {
          "name": "",
          "type": "uint256"
        }
      ],
      "payable": false,
      "stateMutability": "view",
      "type": "function"
    },
    {
      "constant": true,
      "inputs": [
        {
          "name": "_campaignId",
          "type": "uint256"
        },
        {
          "name": "_certificateIdx",
          "type": "uint64"
        }
      ],
      "name": "getCertificate",
      "outputs": [
        {
          "name": "campaignId",
          "type": "uint256"
        },
        {
          "name": "supply",
          "type": "uint64"
        },
        {
          "name": "remaining",
          "type": "uint64"
        },
        {
          "name": "name",
          "type": "string"
        },
        {
          "name": "price",
          "type": "uint256"
        }
      ],
      "payable": false,
      "stateMutability": "view",
      "type": "function"
    },
    {
      "constant": true,
      "inputs": [],
      "name": "owner",
      "outputs": [
        {
          "name": "",
          "type": "address"
        }
      ],
      "payable": false,
      "stateMutability": "view",
      "type": "function"
    },
    {
      "constant": true,
      "inputs": [
        {
          "name": "",
          "type": "uint256"
        }
      ],
      "name": "campaignCertificateCount",
      "outputs": [
        {
          "name": "",
          "type": "uint256"
        }
      ],
      "payable": false,
      "stateMutability": "view",
      "type": "function"
    },
    {
      "constant": true,
      "inputs": [
        {
          "name": "",
          "type": "address"
        },
        {
          "name": "",
          "type": "uint256"
        }
      ],
      "name": "campaignOwnerToIndexes",
      "outputs": [
        {
          "name": "",
          "type": "uint256"
        }
      ],
      "payable": false,
      "stateMutability": "view",
      "type": "function"
    },
    {
      "constant": true,
      "inputs": [],
      "name": "symbol",
      "outputs": [
        {
          "name": "_symbol",
          "type": "string"
        }
      ],
      "payable": false,
      "stateMutability": "pure",
      "type": "function"
    },
    {
      "constant": true,
      "inputs": [
        {
          "name": "",
          "type": "uint256"
        },
        {
          "name": "",
          "type": "uint256"
        }
      ],
      "name": "campaignCertificates",
      "outputs": [
        {
          "name": "campaignId",
          "type": "uint256"
        },
        {
          "name": "price",
          "type": "uint256"
        },
        {
          "name": "supply",
          "type": "uint256"
        },
        {
          "name": "remaining",
          "type": "uint256"
        },
        {
          "name": "name",
          "type": "string"
        }
      ],
      "payable": false,
      "stateMutability": "view",
      "type": "function"
    },
    {
      "constant": false,
      "inputs": [
        {
          "name": "_to",
          "type": "address"
        },
        {
          "name": "_tokenId",
          "type": "uint256"
        }
      ],
      "name": "transfer",
      "outputs": [],
      "payable": false,
      "stateMutability": "nonpayable",
      "type": "function"
    },
    {
      "constant": false,
      "inputs": [
        {
          "name": "_maxCertificates",
          "type": "uint256"
        }
      ],
      "name": "changeMaxCertificates",
      "outputs": [],
      "payable": false,
      "stateMutability": "nonpayable",
      "type": "function"
    },
    {
      "constant": false,
      "inputs": [
        {
          "name": "_campaignId",
          "type": "uint256"
        }
      ],
      "name": "withdrawCampaignBalance",
      "outputs": [],
      "payable": false,
      "stateMutability": "nonpayable",
      "type": "function"
    },
    {
      "constant": false,
      "inputs": [
        {
          "name": "_campaignId",
          "type": "uint256"
        }
      ],
      "name": "vetoCampaign",
      "outputs": [],
      "payable": false,
      "stateMutability": "nonpayable",
      "type": "function"
    },
    {
      "constant": false,
      "inputs": [
        {
          "name": "_tokenId",
          "type": "uint256"
        }
      ],
      "name": "takeOwnership",
      "outputs": [],
      "payable": false,
      "stateMutability": "nonpayable",
      "type": "function"
    },
    {
      "constant": true,
      "inputs": [
        {
          "name": "",
          "type": "uint256"
        }
      ],
      "name": "campaignBalance",
      "outputs": [
        {
          "name": "",
          "type": "uint256"
        }
      ],
      "payable": false,
      "stateMutability": "view",
      "type": "function"
    },
    {
      "constant": true,
      "inputs": [],
      "name": "totalRaised",
      "outputs": [
        {
          "name": "",
          "type": "uint256"
        }
      ],
      "payable": false,
      "stateMutability": "view",
      "type": "function"
    },
    {
      "constant": true,
      "inputs": [
        {
          "name": "",
          "type": "uint256"
        }
      ],
      "name": "campaignIndexToOwner",
      "outputs": [
        {
          "name": "",
          "type": "address"
        }
      ],
      "payable": false,
      "stateMutability": "view",
      "type": "function"
    },
    {
      "constant": false,
      "inputs": [
        {
          "name": "_campaignId",
          "type": "uint128"
        },
        {
          "name": "_certificateIdx",
          "type": "uint256"
        }
      ],
      "name": "createToken",
      "outputs": [
        {
          "name": "",
          "type": "uint256"
        }
      ],
      "payable": true,
      "stateMutability": "payable",
      "type": "function"
    },
    {
      "constant": true,
      "inputs": [
        {
          "name": "_id",
          "type": "uint256"
        }
      ],
      "name": "getToken",
      "outputs": [
        {
          "name": "campaignId",
          "type": "uint256"
        },
        {
          "name": "value",
          "type": "uint256"
        },
        {
          "name": "unitNumber",
          "type": "uint256"
        },
        {
          "name": "purchaser",
          "type": "address"
        },
        {
          "name": "certificateIdx",
          "type": "uint256"
        }
      ],
      "payable": false,
      "stateMutability": "view",
      "type": "function"
    },
    {
      "constant": true,
      "inputs": [
        {
          "name": "_campaignId",
          "type": "uint256"
        }
      ],
      "name": "getCampaignBalance",
      "outputs": [
        {
          "name": "",
          "type": "uint256"
        }
      ],
      "payable": false,
      "stateMutability": "view",
      "type": "function"
    },
    {
      "constant": false,
      "inputs": [
        {
          "name": "newOwner",
          "type": "address"
        }
      ],
      "name": "transferOwnership",
      "outputs": [],
      "payable": false,
      "stateMutability": "nonpayable",
      "type": "function"
    },
    {
      "constant": false,
      "inputs": [
        {
          "name": "_campaignName",
          "type": "string"
        },
        {
          "name": "_taxid",
          "type": "string"
        }
      ],
      "name": "createCampaign",
      "outputs": [
        {
          "name": "",
          "type": "uint256"
        }
      ],
      "payable": true,
      "stateMutability": "payable",
      "type": "function"
    },
    {
      "constant": true,
      "inputs": [
        {
          "name": "_owner",
          "type": "address"
        },
        {
          "name": "_index",
          "type": "uint256"
        }
      ],
      "name": "getCampaignIdByOwnerIndex",
      "outputs": [
        {
          "name": "id",
          "type": "uint256"
        }
      ],
      "payable": false,
      "stateMutability": "view",
      "type": "function"
    },
    {
      "inputs": [],
      "payable": false,
      "stateMutability": "nonpayable",
      "type": "constructor"
    },
    {
      "anonymous": false,
      "inputs": [
        {
          "indexed": false,
          "name": "campaignId",
          "type": "uint256"
        }
      ],
      "name": "ReadyCampaign",
      "type": "event"
    },
    {
      "anonymous": false,
      "inputs": [
        {
          "indexed": false,
          "name": "campaignId",
          "type": "uint256"
        }
      ],
      "name": "ActivateCampaign",
      "type": "event"
    },
    {
      "anonymous": false,
      "inputs": [
        {
          "indexed": false,
          "name": "campaignId",
          "type": "uint256"
        }
      ],
      "name": "VetoCampaign",
      "type": "event"
    },
    {
      "anonymous": false,
      "inputs": [
        {
          "indexed": true,
          "name": "owner",
          "type": "address"
        },
        {
          "indexed": true,
          "name": "campaignId",
          "type": "uint256"
        }
      ],
      "name": "CreateCampaign",
      "type": "event"
    },
    {
      "anonymous": false,
      "inputs": [
        {
          "indexed": true,
          "name": "campaignId",
          "type": "uint256"
        },
        {
          "indexed": false,
          "name": "name",
          "type": "string"
        }
      ],
      "name": "CreateCertificate",
      "type": "event"
    },
    {
      "anonymous": false,
      "inputs": [
        {
          "indexed": true,
          "name": "campaignId",
          "type": "uint256"
        },
        {
          "indexed": true,
          "name": "certificateIdx",
          "type": "uint256"
        }
      ],
      "name": "UpdateCertificate",
      "type": "event"
    },
    {
      "anonymous": false,
      "inputs": [
        {
          "indexed": true,
          "name": "campaignId",
          "type": "uint256"
        },
        {
          "indexed": true,
          "name": "certificateIdx",
          "type": "uint256"
        },
        {
          "indexed": false,
          "name": "owner",
          "type": "address"
        }
      ],
      "name": "CreateToken",
      "type": "event"
    },
    {
      "anonymous": false,
      "inputs": [
        {
          "indexed": true,
          "name": "campaignId",
          "type": "uint256"
        },
        {
          "indexed": false,
          "name": "balance",
          "type": "uint256"
        }
      ],
      "name": "WithdrawBalance",
      "type": "event"
    },
    {
      "anonymous": false,
      "inputs": [
        {
          "indexed": true,
          "name": "previousOwner",
          "type": "address"
        },
        {
          "indexed": true,
          "name": "newOwner",
          "type": "address"
        }
      ],
      "name": "OwnershipTransferred",
      "type": "event"
    },
    {
      "anonymous": false,
      "inputs": [
        {
          "indexed": true,
          "name": "_from",
          "type": "address"
        },
        {
          "indexed": true,
          "name": "_to",
          "type": "address"
        },
        {
          "indexed": false,
          "name": "_tokenId",
          "type": "uint256"
        }
      ],
      "name": "Transfer",
      "type": "event"
    },
    {
      "anonymous": false,
      "inputs": [
        {
          "indexed": true,
          "name": "_owner",
          "type": "address"
        },
        {
          "indexed": true,
          "name": "_approved",
          "type": "address"
        },
        {
          "indexed": false,
          "name": "_tokenId",
          "type": "uint256"
        }
      ],
      "name": "Approval",
      "type": "event"
    }
  ],
  "bytecode": "0x606060405260646009556000601055600060115534156200001f57600080fd5b60058054600160a060020a031990811633600160a060020a03811691821790935560068054909216179055620000a8906040805190810160405280601081526020017f47656e657369732043616d706169676e0000000000000000000000000000000081525060206040519081016040526000815264010000000062001eda6200012182021704565b50620000fb6000600160408051908101604052601381527f47656e657369732043657274696669636174650000000000000000000000000060208201526000640100000000620019e06200034182021704565b506200011a60008080338164010000000062001d60620004db82021704565b5062000b50565b60006200012d62000801565b600060c06040519081016040908152600160a060020a03881682526020820187905281018590526000606082018190526080820181905260a082015260078054919350906001810162000181838262000848565b6000928352602090922084916004020181518154600160a060020a031916600160a060020a0391909116178155602082015181600101908051620001ca9291602001906200087c565b50604082015181600201908051620001e79291602001906200087c565b50606082015160038201805460ff191691151591909117905560808201516003820180549115156101000261ff001990921691909117905560a082015160039091018054911515620100000262ff0000199092169190911790555090506200025f816001640100000000620019ce6200067482021704565b6000818152600a602090815260408083208054600160a060020a031916600160a060020a038c169081179091558352600b909152902080549192509060018101620002ab838262000901565b506000918252602080832091909101839055600160a060020a0388168252600c90526040902054620002ed90600164010000000062001d246200068782021704565b600160a060020a0387166000818152600c6020526040908190209290925582917f8947cb78db2ffa53132a4e627ea0e20920cf6edd68b7b07989687e1a28e0bac7905160405180910390a395945050505050565b60006200034d62000928565b600060a060405190810160405280888152602001858152602001878152602001878152602001868152509150600e60008881526020019081526020016000208054806001018281620003a091906200095f565b6000928352602090922084916005020181518155602082015181600101556040820151816002015560608201518160030155608082015181600401908051620003ee9291602001906200087c565b5050506000888152600f60205260409020549091506200041e90600164010000000062001d246200068782021704565b600f600089815260200190815260200160002081905550867fbcc78462243df19ab0f6e9bff38bc47cc381cc4600d2e33e08232d5f78e0e8938660405160208082528190810183818151815260200191508051906020019080838360005b83811015620004965780820151838201526020016200047c565b50505050905090810190601f168015620004c45780820380516001836020036101000a031916815260200191505b509250505060405180910390a29695505050505050565b6000620004e76200098e565b60008060a0604051908101604052808a815260200186815260200187600160a060020a03168152602001888152602001898152509250600e60008a8152602001908152602001600020888154811015156200053e57fe5b600091825260209091206003600590920201015491506200056f826001640100000000620019ce6200067482021704565b60008a8152600e6020526040902080548a9081106200058a57fe5b60009182526020909120600360059092020101556008805460018101620005b28382620009c7565b6000928352602090922085916005020181518155602082015181600101556040820151600282018054600160a060020a031916600160a060020a0392909216919091179055606082015181600301556080820151600490910155509050620006298682640100000000620023836200069e82021704565b87897f3ffd4886872bbfb79239c94b42e59f56b5e810f72259627f1af658ccc35bc8fb88604051600160a060020a03909116815260200160405180910390a398975050505050505050565b6000828211156200068157fe5b50900390565b6000828201838110156200069757fe5b9392505050565b600160a060020a0382161515620006b457600080fd5b620006ce8282640100000000620022cb6200071182021704565b81600160a060020a031660007fddf252ad1be2c89b69c2b068fc378daa952ba7f163c4a11628f55a4df523b3ef8360405190815260200160405180910390a35050565b600081815260016020526040812054600160a060020a0316156200073457600080fd5b60008281526001602052604090208054600160a060020a031916600160a060020a0385161790556200077483640100000000620007e68102620011711704565b600160a060020a038416600090815260036020526040902080549192509060018101620007a2838262000901565b506000918252602080832091909101849055838252600490526040812082905554620007de90600164010000000062001d246200068782021704565b600055505050565b600160a060020a031660009081526003602052604090205490565b60c060405190810160405260008152602081016200081e620009f6565b81526020016200082d620009f6565b81526000602082018190526040820181905260609091015290565b815481835581811511620008775760040281600402836000526020600020918201910162000877919062000a08565b505050565b828054600181600116156101000203166002900490600052602060002090601f016020900481019282601f10620008bf57805160ff1916838001178555620008ef565b82800160010185558215620008ef579182015b82811115620008ef578251825591602001919060010190620008d2565b50620008fd92915062000a62565b5090565b81548183558181151162000877576000838152602090206200087791810190830162000a62565b60a060405190810160405280600081526020016000815260200160008152602001600081526020016200095a620009f6565b905290565b815481835581811511620008775760050281600502836000526020600020918201910162000877919062000a7f565b60a06040519081016040528060008152602001600081526020016000600160a060020a0316815260200160008152602001600081525090565b815481835581811511620008775760050281600502836000526020600020918201910162000877919062000ac2565b60206040519081016040526000815290565b62000a5f91905b80821115620008fd578054600160a060020a0319168155600062000a37600183018262000b05565b62000a4760028301600062000b05565b5060038101805462ffffff1916905560040162000a0f565b90565b62000a5f91905b80821115620008fd576000815560010162000a69565b62000a5f91905b80821115620008fd57600080825560018201819055600282018190556003820181905562000ab8600483018262000b05565b5060050162000a86565b62000a5f91905b80821115620008fd57600080825560018201819055600282018054600160a060020a031916905560038201819055600482015560050162000ac9565b50805460018160011615610100020316600290046000825580601f1062000b2d575062000b4d565b601f01602090049060005260206000209081019062000b4d919062000a62565b50565b6127228062000b606000396000f3006060604052600436106101e25763ffffffff7c010000000000000000000000000000000000000000000000000000000060003504166302932f5681146101e757806306fdde031461020c578063095ea7b31461029657806317307134146102ba57806318160ddd146102cd57806319ad9577146102e05780632a6dd48f146102f65780632d85ea12146103285780633da70bd51461034757806346bb283314610366578063493f1726146103795780635598f8cc1461038f5780635a3f2672146104b15780635cceb24b146105235780636352211e146105435780636c8c679b146105595780636f12923a146105b757806370a08231146106185780637204ca151461063757806381cdb4c31461064a5780638da5cb5b1461070d57806390722b7514610720578063914175421461073657806395d89b4114610758578063a5f877751461076b578063a9059cbb1461082b578063a9cd4a1f1461084d578063ae18e08314610863578063b2cdc6ff14610879578063b2e6ceeb1461088f578063bd6c67e9146108a5578063c5c4744c146108bb578063ced3c6ad146108ce578063d6e0a37f146108e4578063e4b50cb814610904578063eb044b9714610954578063f2fde38b1461096a578063fce3f6ac14610989578063fea62cae14610a11575b600080fd5b34156101f257600080fd5b6101fa610a33565b60405190815260200160405180910390f35b341561021757600080fd5b61021f610a50565b60405160208082528190810183818151815260200191508051906020019080838360005b8381101561025b578082015183820152602001610243565b50505050905090810190601f1680156102885780820380516001836020036101000a031916815260200191505b509250505060405180910390f35b34156102a157600080fd5b6102b8600160a060020a0360043516602435610a91565b005b34156102c557600080fd5b6101fa610b76565b34156102d857600080fd5b6101fa610b7c565b34156102eb57600080fd5b6102b8600435610b82565b341561030157600080fd5b61030c600435610c25565b604051600160a060020a03909116815260200160405180910390f35b341561033357600080fd5b6101fa600160a060020a0360043516610c40565b341561035257600080fd5b6101fa600160a060020a0360043516610c5b565b341561037157600080fd5b61030c610c6d565b341561038457600080fd5b6102b8600435610c7c565b341561039a57600080fd5b6103a5600435610d89565b604051600160a060020a03871681528315156060820152821515608082015281151560a082015260c060208201818152906040830190830188818151815260200191508051906020019080838360005b8381101561040d5780820151838201526020016103f5565b50505050905090810190601f16801561043a5780820380516001836020036101000a031916815260200191505b50838103825287818151815260200191508051906020019080838360005b83811015610470578082015183820152602001610458565b50505050905090810190601f16801561049d5780820380516001836020036101000a031916815260200191505b509850505050505050505060405180910390f35b34156104bc57600080fd5b6104d0600160a060020a0360043516610f41565b60405160208082528190810183818151815260200191508051906020019060200280838360005b8381101561050f5780820151838201526020016104f7565b505050509050019250505060405180910390f35b341561052e57600080fd5b6102b867ffffffffffffffff60043516610fc4565b341561054e57600080fd5b61030c600435610fee565b341561056457600080fd5b6101fa600480359060248035919060649060443590810190830135806020601f82018190048102016040519081016040528181529291906020840183838082843750949650509335935061101892505050565b34156105c257600080fd5b6102b8600480359060248035916044359160849060643590810190830135806020601f8201819004810201604051908101604052818152929190602084018383808284375094965050933593506110c692505050565b341561062357600080fd5b6101fa600160a060020a0360043516611171565b341561064257600080fd5b6101fa61118c565b341561065557600080fd5b61066d60043567ffffffffffffffff60243516611192565b60405185815267ffffffffffffffff8086166020830152841660408201526080810182905260a06060820181815290820184818151815260200191508051906020019080838360005b838110156106ce5780820151838201526020016106b6565b50505050905090810190601f1680156106fb5780820380516001836020036101000a031916815260200191505b50965050505050505060405180910390f35b341561071857600080fd5b61030c61129c565b341561072b57600080fd5b6101fa6004356112ab565b341561074157600080fd5b6101fa600160a060020a03600435166024356112bd565b341561076357600080fd5b61021f6112eb565b341561077657600080fd5b61078460043560243561132c565b60405185815260208101859052604081018490526060810183905260a0608082018181528354600260001961010060018416150201909116049183018290529060c0830190849080156108185780601f106107ed57610100808354040283529160200191610818565b820191906000526020600020905b8154815290600101906020018083116107fb57829003601f168201915b5050965050505050505060405180910390f35b341561083657600080fd5b6102b8600160a060020a0360043516602435611375565b341561085857600080fd5b6102b86004356113ac565b341561086e57600080fd5b6102b86004356113db565b341561088457600080fd5b6102b86004356114a8565b341561089a57600080fd5b6102b8600435611664565b34156108b057600080fd5b6101fa60043561168f565b34156108c657600080fd5b6101fa6116a1565b34156108d957600080fd5b61030c6004356116a7565b6101fa6fffffffffffffffffffffffffffffffff600435166024356116c2565b341561090f57600080fd5b61091a600435611842565b6040519485526020850193909352604080850192909252600160a060020a03166060840152608083019190915260a0909101905180910390f35b341561095f57600080fd5b6101fa60043561189d565b341561097557600080fd5b6102b8600160a060020a03600435166118af565b6101fa60046024813581810190830135806020601f8201819004810201604051908101604052818152929190602084018383808284378201915050505050509190803590602001908201803590602001908080601f01602080910402602001604051908101604052818152929190602084018383808284375094965061193d95505050505050565b3415610a1c57600080fd5b6101fa600160a060020a0360043516602435611996565b600754600090610a4a90600163ffffffff6119ce16565b90505b90565b610a586123e5565b60408051908101604052600c81527f49204761766520417373657400000000000000000000000000000000000000006020820152919050565b60008133600160a060020a0316610aa782610fee565b600160a060020a031614610aba57600080fd5b610ac383610fee565b9150600160a060020a038481169083161415610ade57600080fd5b610ae783610c25565b600160a060020a0316151580610b055750600160a060020a03841615155b15610b7057600083815260026020526040908190208054600160a060020a031916600160a060020a0387811691821790925591908416907f8c5be1e5ebec7d5bd14f71427d1e84f3dd0314c0f7b2291e5b200ac8c7c3b9259086905190815260200160405180910390a35b50505050565b60105481565b60005490565b60008111610b8f57600080fd5b6000818152600a602052604090205433600160a060020a03908116911614610bb657600080fd5b6001600782815481101515610bc757fe5b906000526020600020906004020160030160026101000a81548160ff0219169083151502179055507f3f736ff1bf5c4bf87934f39f1b28f7991a787b08a0fcfffadb631c897fee35978160405190815260200160405180910390a150565b600090815260026020526040902054600160a060020a031690565b600160a060020a03166000908152600c602052604090205490565b600c6020526000908152604090205481565b600654600160a060020a031681565b60055433600160a060020a03908116911614610c9757600080fd5b60008111610ca457600080fd5b6007805482908110610cb257fe5b600091825260209091206003600490920201015460ff1615610cd357600080fd5b6007805482908110610ce157fe5b6000918252602090912060049091020160030154610100900460ff1615610d0757600080fd5b6000818152600e602052604081205411610d2057600080fd5b6001600782815481101515610d3157fe5b60009182526020909120600490910201600301805460ff19169115159190911790557f654d8eebe83f5c9a3d922533e6a30bcb25c11d78ce18b205a0bbc0a4391e1d008160405190815260200160405180910390a150565b6000610d936123e5565b610d9b6123e5565b600080600080600788815481101515610db057fe5b906000526020600020906004020190508060000160009054906101000a9004600160a060020a03169650806001018054600181600116156101000203166002900480601f016020809104026020016040519081016040528092919081815260200182805460018160011615610100020316600290048015610e725780601f10610e4757610100808354040283529160200191610e72565b820191906000526020600020905b815481529060010190602001808311610e5557829003601f168201915b50505050509550806002018054600181600116156101000203166002900480601f016020809104026020016040519081016040528092919081815260200182805460018160011615610100020316600290048015610f115780601f10610ee657610100808354040283529160200191610f11565b820191906000526020600020905b815481529060010190602001808311610ef457829003601f168201915b505050600390930154989a979950909760ff80821698610100830482169850620100009092041695509350505050565b610f496123e5565b6003600083600160a060020a0316600160a060020a03168152602001908152602001600020805480602002602001604051908101604052809291908181526020018280548015610fb857602002820191906000526020600020905b815481526020019060010190808311610fa4575b50505050509050919050565b60055433600160a060020a03908116911614610fdf57600080fd5b67ffffffffffffffff16601055565b600081815260016020526040812054600160a060020a031680151561101257600080fd5b92915050565b6000848152600a6020526040812054819033600160a060020a0390811691161461104157600080fd5b6000861161104e57600080fd5b600780548790811061105c57fe5b60009182526020909120600490910201600381015490915060ff161561108157600080fd5b6003810154610100900460ff161561109857600080fd5b600381015462010000900460ff16156110b057600080fd5b6110bc868686866119e0565b9695505050505050565b6000858152600a602052604081205433600160a060020a039081169116146110ed57600080fd5b600086116110fa57600080fd5b600780548790811061110857fe5b60009182526020909120600490910201600381015490915060ff161561112d57600080fd5b6003810154610100900460ff161561114457600080fd5b600381015462010000900460ff161561115c57600080fd5b6111698686868686611b67565b505050505050565b600160a060020a031660009081526003602052604090205490565b60095481565b600080600061119f6123e5565b6000868152600e60205260408120805482919067ffffffffffffffff89169081106111c657fe5b90600052602060002090600502019050806000015495508060020154945080600301549350806004018054600181600116156101000203166002900480601f0160208091040260200160405190810160405280929190818152602001828054600181600116156101000203166002900480156112835780601f1061125857610100808354040283529160200191611283565b820191906000526020600020905b81548152906001019060200180831161126657829003601f168201915b5050505050925080600101549150509295509295909350565b600554600160a060020a031681565b600f6020526000908152604090205481565b600b602052816000526040600020818154811015156112d857fe5b6000918252602090912001549150829050565b6112f36123e5565b60408051908101604052600381527f493c3300000000000000000000000000000000000000000000000000000000006020820152919050565b600e6020528160005260406000208181548110151561134757fe5b6000918252602090912060059091020180546001820154600283015460038401549295509093509160040185565b8033600160a060020a031661138982610fee565b600160a060020a03161461139c57600080fd5b6113a7338484611c5e565b505050565b60055433600160a060020a039081169116146113c757600080fd5b6103e88111156113d657600080fd5b600955565b60008082116113e957600080fd5b6000828152600a602052604090205433600160a060020a0390811691161461141057600080fd5b6000828152600d60205260408120541161142957600080fd5b506000818152600d60205260408082208054929055600160a060020a0333169082156108fc0290839051600060405180830381858888f19350505050151561147057600080fd5b817fccf4374900bd722270142f35dcf4fc2e2b5a3c60ab03daccfa8d4dce0dfe738a8260405190815260200160405180910390a25050565b600554600090819033600160a060020a039081169116146114c857600080fd5b600083116114d557600080fd5b60078054849081106114e357fe5b6000918252602082206004909102018054600160a060020a03191681559061150e60018301826123f7565b61151c6002830160006123f7565b50600301805462ffffff1916905560078054600191908590811061153c57fe5b6000918252602090912060036004909202010180549115156101000261ff001990921691909117905560055460078054600160a060020a03909216918590811061158257fe5b600091825260208083206004929092029091018054600160a060020a031916600160a060020a039490941693909317909255848152600e90915260408120925090505b815481101561162c5781818154811015156115dc57fe5b6000918252602082206005909102018181556001810182905560028101829055600381018290559061161160048301826123f7565b50611625905081600163ffffffff611d2416565b90506115c5565b7fa107a556b4445af6c76c3d1fb0861a3a6eba0a2d7cde2778425369de1d5a171b8360405190815260200160405180910390a1505050565b61166e3382611d3a565b151561167957600080fd5b61168c61168582610fee565b3383611c5e565b50565b600d6020526000908152604090205481565b60115481565b600a60205260009081526040902054600160a060020a031681565b6000806000806007866fffffffffffffffffffffffffffffffff168154811015156116e957fe5b6000918252602090912060036004909202019081015490935060ff16151560011461171357600080fd5b6003830154610100900460ff161561172a57600080fd5b6fffffffffffffffffffffffffffffffff86166000908152600e6020526040902080548690811061175757fe5b906000526020600020906005020191506000826003015411151561177a57600080fd5b6001820154341461178a57600080fd5b6117b660016117aa846003015485600201546119ce90919063ffffffff16565b9063ffffffff611d2416565b6fffffffffffffffffffffffffffffffff87166000908152600d60205260409020549091506117eb903463ffffffff611d2416565b6fffffffffffffffffffffffffffffffff87166000908152600d6020526040902055601154611820903463ffffffff611d2416565b6011556110bc6fffffffffffffffffffffffffffffffff871686833334611d60565b60008060008060008060088781548110151561185a57fe5b600091825260209091206005909102018054600182015460038301546002840154600490940154929b919a509850600160a060020a039092169650945092505050565b6000908152600d602052604090205490565b60055433600160a060020a039081169116146118ca57600080fd5b600160a060020a03811615156118df57600080fd5b600554600160a060020a0380831691167f8be0079c531659141344cd1fd0a4f28419497f9722a3daafe3b4186f6b6457e060405160405180910390a360058054600160a060020a031916600160a060020a0392909216919091179055565b6000806010543414151561195057600080fd5b61195b338585611eda565b6010546000828152600d6020526040902054919250611980919063ffffffff611d2416565b6000828152600d60205260409020559392505050565b600160a060020a0382166000908152600b602052604081208054839081106119ba57fe5b906000526020600020900154905092915050565b6000828211156119da57fe5b50900390565b60006119ea61243b565b600060a060405190810160405280888152602001858152602001878152602001878152602001868152509150600e60008881526020019081526020016000208054806001018281611a3b9190612470565b6000928352602090922084916005020181518155602082015181600101556040820151816002015560608201518160030155608082015181600401908051611a8792916020019061249c565b5050506000888152600f6020526040902054909150611aad90600163ffffffff611d2416565b600f600089815260200190815260200160002081905550867fbcc78462243df19ab0f6e9bff38bc47cc381cc4600d2e33e08232d5f78e0e8938660405160208082528190810183818151815260200191508051906020019080838360005b83811015611b23578082015183820152602001611b0b565b50505050905090810190601f168015611b505780820380516001836020036101000a031916815260200191505b509250505060405180910390a29695505050505050565b6000858152600f60205260409020548410611b8157600080fd5b6000858152600e60205260409020805484919086908110611b9e57fe5b90600052602060002090600502016002018190555081600e600087815260200190815260200160002085815481101515611bd457fe5b9060005260206000209060050201600401908051611bf692916020019061249c565b506000858152600e60205260409020805482919086908110611c1457fe5b90600052602060002090600502016001018190555083857f786c7e740ad4b9cbb9643a5316ead4cfa380c3536634f463e35dd5e43bdc79d660405160405180910390a35050505050565b600160a060020a0382161515611c7357600080fd5b611c7c81610fee565b600160a060020a0383811691161415611c9457600080fd5b82600160a060020a0316611ca782610fee565b600160a060020a031614611cba57600080fd5b611cc483826120dc565b611cce8382612161565b611cd882826122cb565b81600160a060020a031683600160a060020a03167fddf252ad1be2c89b69c2b068fc378daa952ba7f163c4a11628f55a4df523b3ef8360405190815260200160405180910390a3505050565b600082820183811015611d3357fe5b9392505050565b600082600160a060020a0316611d4f83610c25565b600160a060020a0316149392505050565b6000611d6a61251a565b60008060a0604051908101604052808a815260200186815260200187600160a060020a03168152602001888152602001898152509250600e60008a815260200190815260200160002088815481101515611dc057fe5b9060005260206000209060050201600301549150611de86001836119ce90919063ffffffff16565b60008a8152600e6020526040902080548a908110611e0257fe5b60009182526020909120600360059092020101556008805460018101611e288382612553565b6000928352602090922085916005020181518155602082015181600101556040820151600282018054600160a060020a031916600160a060020a0392909216919091179055606082015181600301556080820151816004015550509050611e8f8682612383565b87897f3ffd4886872bbfb79239c94b42e59f56b5e810f72259627f1af658ccc35bc8fb88604051600160a060020a03909116815260200160405180910390a398975050505050505050565b6000611ee461257f565b600060c06040519081016040908152600160a060020a03881682526020820187905281018590526000606082018190526080820181905260a0820152600780549193509060018101611f3683826125c2565b6000928352602090922084916004020181518154600160a060020a031916600160a060020a0391909116178155602082015181600101908051611f7d92916020019061249c565b50604082015181600201908051611f9892916020019061249c565b50606082015160038201805460ff191691151591909117905560808201516003820180549115156101000261ff001990921691909117905560a082015160039091018054911515620100000262ff00001990921691909117905550905061200681600163ffffffff6119ce16565b6000818152600a602090815260408083208054600160a060020a031916600160a060020a038c169081179091558352600b90915290208054919250906001810161205083826125ee565b506000918252602080832091909101839055600160a060020a0388168252600c9052604090205461208890600163ffffffff611d2416565b600160a060020a0387166000818152600c6020526040908190209290925582917f8947cb78db2ffa53132a4e627ea0e20920cf6edd68b7b07989687e1a28e0bac7905160405180910390a395945050505050565b81600160a060020a03166120ef82610fee565b600160a060020a03161461210257600080fd5b6000818152600260205260408082208054600160a060020a0319169055600160a060020a038416907f8c5be1e5ebec7d5bd14f71427d1e84f3dd0314c0f7b2291e5b200ac8c7c3b9259084905190815260200160405180910390a35050565b600080600084600160a060020a031661217985610fee565b600160a060020a03161461218c57600080fd5b60008481526004602052604090205492506121b760016121ab87611171565b9063ffffffff6119ce16565b600160a060020a0386166000908152600360205260409020805491935090839081106121df57fe5b60009182526020808320909101548683526001825260408084208054600160a060020a0319169055600160a060020a038916845260039092529120805491925082918590811061222b57fe5b6000918252602080832090910192909255600160a060020a038716815260039091526040812080548490811061225d57fe5b6000918252602080832090910192909255600160a060020a03871681526003909152604090208054906122949060001983016125ee565b506000848152600460205260408082208290558282528120849055546122c190600163ffffffff6119ce16565b6000555050505050565b600081815260016020526040812054600160a060020a0316156122ed57600080fd5b60008281526001602052604090208054600160a060020a031916600160a060020a03851617905561231d83611171565b600160a060020a03841660009081526003602052604090208054919250906001810161234983826125ee565b50600091825260208083209190910184905583825260049052604081208290555461237b90600163ffffffff611d2416565b600055505050565b600160a060020a038216151561239857600080fd5b6123a282826122cb565b81600160a060020a031660007fddf252ad1be2c89b69c2b068fc378daa952ba7f163c4a11628f55a4df523b3ef8360405190815260200160405180910390a35050565b60206040519081016040526000815290565b50805460018160011615610100020316600290046000825580601f1061241d575061168c565b601f01602090049060005260206000209081019061168c919061260e565b60a0604051908101604052806000815260200160008152602001600081526020016000815260200161246b6123e5565b905290565b8154818355818115116113a7576005028160050283600052602060002091820191016113a79190612628565b828054600181600116156101000203166002900490600052602060002090601f016020900481019282601f106124dd57805160ff191683800117855561250a565b8280016001018555821561250a579182015b8281111561250a5782518255916020019190600101906124ef565b5061251692915061260e565b5090565b60a06040519081016040528060008152602001600081526020016000600160a060020a0316815260200160008152602001600081525090565b8154818355818115116113a7576005028160050283600052602060002091820191016113a79190612666565b60c0604051908101604052600081526020810161259a6123e5565b81526020016125a76123e5565b81526000602082018190526040820181905260609091015290565b8154818355818115116113a7576004028160040283600052602060002091820191016113a791906126a6565b8154818355818115116113a7576000838152602090206113a79181019083015b610a4d91905b808211156125165760008155600101612614565b610a4d91905b8082111561251657600080825560018201819055600282018190556003820181905561265d60048301826123f7565b5060050161262e565b610a4d91905b8082111561251657600080825560018201819055600282018054600160a060020a031916905560038201819055600482015560050161266c565b610a4d91905b80821115612516578054600160a060020a031916815560006126d160018301826123f7565b6126df6002830160006123f7565b5060038101805462ffffff191690556004016126ac5600a165627a7a723058204295e791fb7713b0e8415d05543ca4d99b00f67d649c38a081fa689c7673ffbe0029",
  "source": "pragma solidity 0.4.19;\n\nimport \"./dapp/IGVCore.sol\";\n\ncontract IGVDAPP is IGVCore {\n    function IGVDAPP() public {\n    founderAddress = msg.sender;\n\n    _createCampaign(msg.sender, \"Genesis Campaign\", \"\");\n    _createCertificate(0, 1, \"Genesis Certificate\", 0);\n    _createToken(0, 0, 0, msg.sender, 0);\n  }\n}",
  "sourcePath": "/home/hayek/igave-contracts/contracts/IGVDAPP.sol",
  "compiler": {
    "name": "solc",
    "version": "0.4.19+commit.c4cbbb05.Emscripten.clang"
  },
  "schemaVersion": "1.0.1",
  "updatedAt": "2018-03-23T06:39:39.850Z"
}