{
  "contractName": "DARAdapter",
  "abi": [
    {
      "constant": true,
      "inputs": [
        {
          "name": "holder",
          "type": "address"
        }
      ],
      "name": "balanceOf",
      "outputs": [
        {
          "name": "",
          "type": "uint256"
        }
      ],
      "payable": false,
      "stateMutability": "view",
      "type": "function"
    },
    {
      "constant": true,
      "inputs": [],
      "name": "voteWeightAddress",
      "outputs": [
        {
          "name": "",
          "type": "address"
        }
      ],
      "payable": false,
      "stateMutability": "view",
      "type": "function"
    },
    {
      "inputs": [
        {
          "name": "voteWeightAddress",
          "type": "address"
        }
      ],
      "payable": false,
      "stateMutability": "nonpayable",
      "type": "constructor"
    }
  ],
  "bytecode": "0x6060604052341561000f57600080fd5b6040516020806102ab83398101604052808051906020019091905050806000806101000a81548173ffffffffffffffffffffffffffffffffffffffff021916908373ffffffffffffffffffffffffffffffffffffffff160217905550506102308061007b6000396000f30060606040526004361061004c576000357c0100000000000000000000000000000000000000000000000000000000900463ffffffff16806370a0823114610051578063dc05a29f1461009e575b600080fd5b341561005c57600080fd5b610088600480803573ffffffffffffffffffffffffffffffffffffffff169060200190919050506100f3565b6040518082815260200191505060405180910390f35b34156100a957600080fd5b6100b16101db565b604051808273ffffffffffffffffffffffffffffffffffffffff1673ffffffffffffffffffffffffffffffffffffffff16815260200191505060405180910390f35b60008060009054906101000a900473ffffffffffffffffffffffffffffffffffffffff1673ffffffffffffffffffffffffffffffffffffffff1663b10756dd836000604051602001526040518263ffffffff167c0100000000000000000000000000000000000000000000000000000000028152600401808273ffffffffffffffffffffffffffffffffffffffff1673ffffffffffffffffffffffffffffffffffffffff168152602001915050602060405180830381600087803b15156101b957600080fd5b6102c65a03f115156101ca57600080fd5b505050604051805190509050919050565b60008060009054906101000a900473ffffffffffffffffffffffffffffffffffffffff169050905600a165627a7a7230582076a88e5b45b6aaf8b5089ca0ba37c3c99142f70c186badcc973727b06a6d86330029",
  "source": "pragma solidity ^0.4.18;\n\n/*\n * This contract is an interface between the DAO and the DAO.\n **/\n\nimport './IDARAdapter.sol';\n\ncontract WeightedAssetRegistry is IDARAdapter {\n  mapping(address => uint256) internal _weightOfHolder;\n  function weightOfHolder(address holder) public view returns (uint256);\n}\n\ncontract DARAdapter {\n  WeightedAssetRegistry _voteWeightAddress;\n\n  function DARAdapter(address voteWeightAddress) {\n    _voteWeightAddress = WeightedAssetRegistry(voteWeightAddress);\n  }\n\n  function voteWeightAddress() public view returns (address) {\n    return _voteWeightAddress;\n  }\n\n  function balanceOf(address holder) public view returns  (uint256) {\n    return _voteWeightAddress.weightOfHolder(holder);\n  }\n}",
  "sourcePath": "/home/hayek/proj/igave-crowdsale/contracts/dar/DARAdapter.sol",
  "compiler": {
    "name": "solc",
    "version": "0.4.19+commit.c4cbbb05.Emscripten.clang"
  },
  "schemaVersion": "1.0.1",
  "updatedAt": "2018-02-15T06:34:56.874Z"
}