{
  "contractName": "ERC721TokenMock",
  "abi": [
    {
      "constant": true,
      "inputs": [],
      "name": "name",
      "outputs": [
        {
          "name": "_name",
          "type": "string"
        }
      ],
      "payable": false,
      "stateMutability": "pure",
      "type": "function"
    },
    {
      "constant": false,
      "inputs": [
        {
          "name": "_to",
          "type": "address"
        },
        {
          "name": "_tokenId",
          "type": "uint256"
        }
      ],
      "name": "approve",
      "outputs": [],
      "payable": false,
      "stateMutability": "nonpayable",
      "type": "function"
    },
    {
      "constant": true,
      "inputs": [],
      "name": "totalSupply",
      "outputs": [
        {
          "name": "",
          "type": "uint256"
        }
      ],
      "payable": false,
      "stateMutability": "view",
      "type": "function"
    },
    {
      "constant": true,
      "inputs": [
        {
          "name": "_tokenId",
          "type": "uint256"
        }
      ],
      "name": "approvedFor",
      "outputs": [
        {
          "name": "",
          "type": "address"
        }
      ],
      "payable": false,
      "stateMutability": "view",
      "type": "function"
    },
    {
      "constant": true,
      "inputs": [
        {
          "name": "_owner",
          "type": "address"
        }
      ],
      "name": "tokensOf",
      "outputs": [
        {
          "name": "",
          "type": "uint256[]"
        }
      ],
      "payable": false,
      "stateMutability": "view",
      "type": "function"
    },
    {
      "constant": true,
      "inputs": [
        {
          "name": "_tokenId",
          "type": "uint256"
        }
      ],
      "name": "ownerOf",
      "outputs": [
        {
          "name": "",
          "type": "address"
        }
      ],
      "payable": false,
      "stateMutability": "view",
      "type": "function"
    },
    {
      "constant": true,
      "inputs": [
        {
          "name": "_owner",
          "type": "address"
        }
      ],
      "name": "balanceOf",
      "outputs": [
        {
          "name": "",
          "type": "uint256"
        }
      ],
      "payable": false,
      "stateMutability": "view",
      "type": "function"
    },
    {
      "constant": true,
      "inputs": [],
      "name": "symbol",
      "outputs": [
        {
          "name": "_symbol",
          "type": "string"
        }
      ],
      "payable": false,
      "stateMutability": "pure",
      "type": "function"
    },
    {
      "constant": false,
      "inputs": [
        {
          "name": "_to",
          "type": "address"
        },
        {
          "name": "_tokenId",
          "type": "uint256"
        }
      ],
      "name": "transfer",
      "outputs": [],
      "payable": false,
      "stateMutability": "nonpayable",
      "type": "function"
    },
    {
      "constant": false,
      "inputs": [
        {
          "name": "_tokenId",
          "type": "uint256"
        }
      ],
      "name": "takeOwnership",
      "outputs": [],
      "payable": false,
      "stateMutability": "nonpayable",
      "type": "function"
    },
    {
      "inputs": [],
      "payable": false,
      "stateMutability": "nonpayable",
      "type": "constructor"
    },
    {
      "anonymous": false,
      "inputs": [
        {
          "indexed": true,
          "name": "_from",
          "type": "address"
        },
        {
          "indexed": true,
          "name": "_to",
          "type": "address"
        },
        {
          "indexed": false,
          "name": "_tokenId",
          "type": "uint256"
        }
      ],
      "name": "Transfer",
      "type": "event"
    },
    {
      "anonymous": false,
      "inputs": [
        {
          "indexed": true,
          "name": "_owner",
          "type": "address"
        },
        {
          "indexed": true,
          "name": "_approved",
          "type": "address"
        },
        {
          "indexed": false,
          "name": "_tokenId",
          "type": "uint256"
        }
      ],
      "name": "Approval",
      "type": "event"
    },
    {
      "constant": false,
      "inputs": [
        {
          "name": "_to",
          "type": "address"
        },
        {
          "name": "_tokenId",
          "type": "uint256"
        }
      ],
      "name": "mint",
      "outputs": [],
      "payable": false,
      "stateMutability": "nonpayable",
      "type": "function"
    },
    {
      "constant": false,
      "inputs": [
        {
          "name": "_tokenId",
          "type": "uint256"
        }
      ],
      "name": "burn",
      "outputs": [],
      "payable": false,
      "stateMutability": "nonpayable",
      "type": "function"
    }
  ],
  "bytecode": "0x6060604052341561000f57600080fd5b6111eb8061001e6000396000f3006060604052600436106100ba576000357c0100000000000000000000000000000000000000000000000000000000900463ffffffff16806306fdde03146100bf578063095ea7b31461014d57806318160ddd1461018f5780632a6dd48f146101b857806340c10f191461021b57806342966c681461025d5780635a3f2672146102805780636352211e1461030e57806370a082311461037157806395d89b41146103be578063a9059cbb1461044c578063b2e6ceeb1461048e575b600080fd5b34156100ca57600080fd5b6100d26104b1565b6040518080602001828103825283818151815260200191508051906020019080838360005b838110156101125780820151818401526020810190506100f7565b50505050905090810190601f16801561013f5780820380516001836020036101000a031916815260200191505b509250505060405180910390f35b341561015857600080fd5b61018d600480803573ffffffffffffffffffffffffffffffffffffffff169060200190919080359060200190919050506104f4565b005b341561019a57600080fd5b6101a2610687565b6040518082815260200191505060405180910390f35b34156101c357600080fd5b6101d96004808035906020019091905050610690565b604051808273ffffffffffffffffffffffffffffffffffffffff1673ffffffffffffffffffffffffffffffffffffffff16815260200191505060405180910390f35b341561022657600080fd5b61025b600480803573ffffffffffffffffffffffffffffffffffffffff169060200190919080359060200190919050506106cd565b005b341561026857600080fd5b61027e60048080359060200190919050506106db565b005b341561028b57600080fd5b6102b7600480803573ffffffffffffffffffffffffffffffffffffffff169060200190919050506106e7565b6040518080602001828103825283818151815260200191508051906020019060200280838360005b838110156102fa5780820151818401526020810190506102df565b505050509050019250505060405180910390f35b341561031957600080fd5b61032f6004808035906020019091905050610784565b604051808273ffffffffffffffffffffffffffffffffffffffff1673ffffffffffffffffffffffffffffffffffffffff16815260200191505060405180910390f35b341561037c57600080fd5b6103a8600480803573ffffffffffffffffffffffffffffffffffffffff16906020019091905050610802565b6040518082815260200191505060405180910390f35b34156103c957600080fd5b6103d161084e565b6040518080602001828103825283818151815260200191508051906020019080838360005b838110156104115780820151818401526020810190506103f6565b50505050905090810190601f16801561043e5780820380516001836020036101000a031916815260200191505b509250505060405180910390f35b341561045757600080fd5b61048c600480803573ffffffffffffffffffffffffffffffffffffffff16906020019091908035906020019091905050610891565b005b341561049957600080fd5b6104af60048080359060200190919050506108e4565b005b6104b961111a565b6040805190810160405280600c81526020017f4920476176652041737365740000000000000000000000000000000000000000815250905090565b6000813373ffffffffffffffffffffffffffffffffffffffff1661051782610784565b73ffffffffffffffffffffffffffffffffffffffff1614151561053957600080fd5b61054283610784565b91508173ffffffffffffffffffffffffffffffffffffffff168473ffffffffffffffffffffffffffffffffffffffff161415151561057f57600080fd5b600061058a84610690565b73ffffffffffffffffffffffffffffffffffffffff161415806105c4575060008473ffffffffffffffffffffffffffffffffffffffff1614155b1561068157836002600085815260200190815260200160002060006101000a81548173ffffffffffffffffffffffffffffffffffffffff021916908373ffffffffffffffffffffffffffffffffffffffff1602179055508373ffffffffffffffffffffffffffffffffffffffff168273ffffffffffffffffffffffffffffffffffffffff167f8c5be1e5ebec7d5bd14f71427d1e84f3dd0314c0f7b2291e5b200ac8c7c3b925856040518082815260200191505060405180910390a35b50505050565b60008054905090565b60006002600083815260200190815260200160002060009054906101000a900473ffffffffffffffffffffffffffffffffffffffff169050919050565b6106d7828261090f565b5050565b6106e4816109a9565b50565b6106ef61112e565b600360008373ffffffffffffffffffffffffffffffffffffffff1673ffffffffffffffffffffffffffffffffffffffff16815260200190815260200160002080548060200260200160405190810160405280929190818152602001828054801561077857602002820191906000526020600020905b815481526020019060010190808311610764575b50505050509050919050565b6000806001600084815260200190815260200160002060009054906101000a900473ffffffffffffffffffffffffffffffffffffffff169050600073ffffffffffffffffffffffffffffffffffffffff168173ffffffffffffffffffffffffffffffffffffffff16141515156107f957600080fd5b80915050919050565b6000600360008373ffffffffffffffffffffffffffffffffffffffff1673ffffffffffffffffffffffffffffffffffffffff168152602001908152602001600020805490509050919050565b61085661111a565b6040805190810160405280600381526020017f493c330000000000000000000000000000000000000000000000000000000000815250905090565b803373ffffffffffffffffffffffffffffffffffffffff166108b282610784565b73ffffffffffffffffffffffffffffffffffffffff161415156108d457600080fd5b6108df338484610a7d565b505050565b6108ee3382610bc6565b15156108f957600080fd5b61090c61090582610784565b3383610a7d565b50565b600073ffffffffffffffffffffffffffffffffffffffff168273ffffffffffffffffffffffffffffffffffffffff161415151561094b57600080fd5b6109558282610c07565b8173ffffffffffffffffffffffffffffffffffffffff1660007fddf252ad1be2c89b69c2b068fc378daa952ba7f163c4a11628f55a4df523b3ef836040518082815260200191505060405180910390a35050565b803373ffffffffffffffffffffffffffffffffffffffff166109ca82610784565b73ffffffffffffffffffffffffffffffffffffffff161415156109ec57600080fd5b60006109f783610690565b73ffffffffffffffffffffffffffffffffffffffff16141515610a1f57610a1e3383610d72565b5b610a293383610e5b565b60003373ffffffffffffffffffffffffffffffffffffffff167fddf252ad1be2c89b69c2b068fc378daa952ba7f163c4a11628f55a4df523b3ef846040518082815260200191505060405180910390a35050565b600073ffffffffffffffffffffffffffffffffffffffff168273ffffffffffffffffffffffffffffffffffffffff1614151515610ab957600080fd5b610ac281610784565b73ffffffffffffffffffffffffffffffffffffffff168273ffffffffffffffffffffffffffffffffffffffff1614151515610afc57600080fd5b8273ffffffffffffffffffffffffffffffffffffffff16610b1c82610784565b73ffffffffffffffffffffffffffffffffffffffff16141515610b3e57600080fd5b610b488382610d72565b610b528382610e5b565b610b5c8282610c07565b8173ffffffffffffffffffffffffffffffffffffffff168373ffffffffffffffffffffffffffffffffffffffff167fddf252ad1be2c89b69c2b068fc378daa952ba7f163c4a11628f55a4df523b3ef836040518082815260200191505060405180910390a3505050565b60008273ffffffffffffffffffffffffffffffffffffffff16610be883610690565b73ffffffffffffffffffffffffffffffffffffffff1614905092915050565b60008073ffffffffffffffffffffffffffffffffffffffff166001600084815260200190815260200160002060009054906101000a900473ffffffffffffffffffffffffffffffffffffffff1673ffffffffffffffffffffffffffffffffffffffff16141515610c7657600080fd5b826001600084815260200190815260200160002060006101000a81548173ffffffffffffffffffffffffffffffffffffffff021916908373ffffffffffffffffffffffffffffffffffffffff160217905550610cd183610802565b9050600360008473ffffffffffffffffffffffffffffffffffffffff1673ffffffffffffffffffffffffffffffffffffffff1681526020019081526020016000208054806001018281610d249190611142565b916000526020600020900160008490919091505550806004600084815260200190815260200160002081905550610d6760016000546110e390919063ffffffff16565b600081905550505050565b8173ffffffffffffffffffffffffffffffffffffffff16610d9282610784565b73ffffffffffffffffffffffffffffffffffffffff16141515610db457600080fd5b60006002600083815260200190815260200160002060006101000a81548173ffffffffffffffffffffffffffffffffffffffff021916908373ffffffffffffffffffffffffffffffffffffffff16021790555060008273ffffffffffffffffffffffffffffffffffffffff167f8c5be1e5ebec7d5bd14f71427d1e84f3dd0314c0f7b2291e5b200ac8c7c3b925836040518082815260200191505060405180910390a35050565b60008060008473ffffffffffffffffffffffffffffffffffffffff16610e8085610784565b73ffffffffffffffffffffffffffffffffffffffff16141515610ea257600080fd5b60046000858152602001908152602001600020549250610ed46001610ec687610802565b61110190919063ffffffff16565b9150600360008673ffffffffffffffffffffffffffffffffffffffff1673ffffffffffffffffffffffffffffffffffffffff16815260200190815260200160002082815481101515610f2257fe5b906000526020600020900154905060006001600086815260200190815260200160002060006101000a81548173ffffffffffffffffffffffffffffffffffffffff021916908373ffffffffffffffffffffffffffffffffffffffff16021790555080600360008773ffffffffffffffffffffffffffffffffffffffff1673ffffffffffffffffffffffffffffffffffffffff16815260200190815260200160002084815481101515610fd057fe5b9060005260206000209001819055506000600360008773ffffffffffffffffffffffffffffffffffffffff1673ffffffffffffffffffffffffffffffffffffffff1681526020019081526020016000208381548110151561102d57fe5b906000526020600020900181905550600360008673ffffffffffffffffffffffffffffffffffffffff1673ffffffffffffffffffffffffffffffffffffffff16815260200190815260200160002080548091906001900361108e919061116e565b50600060046000868152602001908152602001600020819055508260046000838152602001908152602001600020819055506110d6600160005461110190919063ffffffff16565b6000819055505050505050565b60008082840190508381101515156110f757fe5b8091505092915050565b600082821115151561110f57fe5b818303905092915050565b602060405190810160405280600081525090565b602060405190810160405280600081525090565b81548183558181151161116957818360005260206000209182019101611168919061119a565b5b505050565b81548183558181151161119557818360005260206000209182019101611194919061119a565b5b505050565b6111bc91905b808211156111b85760008160009055506001016111a0565b5090565b905600a165627a7a723058201ea76ab56dc0d85ae761d7b201d2c94c199a4ec999719e6eadd660233d86b92c0029",
  "source": "pragma solidity ^0.4.18;\n\nimport \"../dapp/IGVAsset.sol\";\n\n/**\n * @title ERC721TokenMock\n * This mock just provides a public mint and burn functions for testing purposes.\n */\ncontract ERC721TokenMock is IGVAsset {\n  function ERC721TokenMock() ERC721Token() public { }\n\n  function mint(address _to, uint256 _tokenId) public {\n    super._mint(_to, _tokenId);\n  }\n\n  function burn(uint256 _tokenId) public {\n    super._burn(_tokenId);\n  }\n}",
  "sourcePath": "/home/hayek/proj/igave-contracts/contracts/mocks/ERC721.mock.sol",
  "compiler": {
    "name": "solc",
    "version": "0.4.19+commit.c4cbbb05.Emscripten.clang"
  },
  "schemaVersion": "1.0.1",
  "updatedAt": "2018-03-18T16:35:54.781Z"
}