{
  "contractName": "IGVCrowdsale",
  "abi": [
    {
      "constant": true,
      "inputs": [],
      "name": "rate",
      "outputs": [
        {
          "name": "",
          "type": "uint256"
        }
      ],
      "payable": false,
      "stateMutability": "view",
      "type": "function"
    },
    {
      "constant": true,
      "inputs": [],
      "name": "endTime",
      "outputs": [
        {
          "name": "",
          "type": "uint256"
        }
      ],
      "payable": false,
      "stateMutability": "view",
      "type": "function"
    },
    {
      "constant": true,
      "inputs": [],
      "name": "cap",
      "outputs": [
        {
          "name": "",
          "type": "uint256"
        }
      ],
      "payable": false,
      "stateMutability": "view",
      "type": "function"
    },
    {
      "constant": true,
      "inputs": [],
      "name": "goal",
      "outputs": [
        {
          "name": "",
          "type": "uint256"
        }
      ],
      "payable": false,
      "stateMutability": "view",
      "type": "function"
    },
    {
      "constant": true,
      "inputs": [],
      "name": "weiRaised",
      "outputs": [
        {
          "name": "",
          "type": "uint256"
        }
      ],
      "payable": false,
      "stateMutability": "view",
      "type": "function"
    },
    {
      "constant": false,
      "inputs": [],
      "name": "finalize",
      "outputs": [],
      "payable": false,
      "stateMutability": "nonpayable",
      "type": "function"
    },
    {
      "constant": true,
      "inputs": [],
      "name": "wallet",
      "outputs": [
        {
          "name": "",
          "type": "address"
        }
      ],
      "payable": false,
      "stateMutability": "view",
      "type": "function"
    },
    {
      "constant": true,
      "inputs": [],
      "name": "startTime",
      "outputs": [
        {
          "name": "",
          "type": "uint256"
        }
      ],
      "payable": false,
      "stateMutability": "view",
      "type": "function"
    },
    {
      "constant": true,
      "inputs": [],
      "name": "goalReached",
      "outputs": [
        {
          "name": "",
          "type": "bool"
        }
      ],
      "payable": false,
      "stateMutability": "view",
      "type": "function"
    },
    {
      "constant": true,
      "inputs": [],
      "name": "isFinalized",
      "outputs": [
        {
          "name": "",
          "type": "bool"
        }
      ],
      "payable": false,
      "stateMutability": "view",
      "type": "function"
    },
    {
      "constant": true,
      "inputs": [],
      "name": "owner",
      "outputs": [
        {
          "name": "",
          "type": "address"
        }
      ],
      "payable": false,
      "stateMutability": "view",
      "type": "function"
    },
    {
      "constant": false,
      "inputs": [],
      "name": "claimRefund",
      "outputs": [],
      "payable": false,
      "stateMutability": "nonpayable",
      "type": "function"
    },
    {
      "constant": false,
      "inputs": [
        {
          "name": "beneficiary",
          "type": "address"
        }
      ],
      "name": "buyTokens",
      "outputs": [],
      "payable": true,
      "stateMutability": "payable",
      "type": "function"
    },
    {
      "constant": true,
      "inputs": [],
      "name": "hasEnded",
      "outputs": [
        {
          "name": "",
          "type": "bool"
        }
      ],
      "payable": false,
      "stateMutability": "view",
      "type": "function"
    },
    {
      "constant": false,
      "inputs": [
        {
          "name": "newOwner",
          "type": "address"
        }
      ],
      "name": "transferOwnership",
      "outputs": [],
      "payable": false,
      "stateMutability": "nonpayable",
      "type": "function"
    },
    {
      "constant": true,
      "inputs": [],
      "name": "vault",
      "outputs": [
        {
          "name": "",
          "type": "address"
        }
      ],
      "payable": false,
      "stateMutability": "view",
      "type": "function"
    },
    {
      "constant": true,
      "inputs": [],
      "name": "token",
      "outputs": [
        {
          "name": "",
          "type": "address"
        }
      ],
      "payable": false,
      "stateMutability": "view",
      "type": "function"
    },
    {
      "inputs": [
        {
          "name": "_startTime",
          "type": "uint256"
        },
        {
          "name": "_endTime",
          "type": "uint256"
        },
        {
          "name": "_rate",
          "type": "uint256"
        },
        {
          "name": "_goal",
          "type": "uint256"
        },
        {
          "name": "_cap",
          "type": "uint256"
        },
        {
          "name": "_wallet",
          "type": "address"
        },
        {
          "name": "_token",
          "type": "address"
        }
      ],
      "payable": false,
      "stateMutability": "nonpayable",
      "type": "constructor"
    },
    {
      "payable": true,
      "stateMutability": "payable",
      "type": "fallback"
    },
    {
      "anonymous": false,
      "inputs": [],
      "name": "Finalized",
      "type": "event"
    },
    {
      "anonymous": false,
      "inputs": [
        {
          "indexed": true,
          "name": "previousOwner",
          "type": "address"
        },
        {
          "indexed": true,
          "name": "newOwner",
          "type": "address"
        }
      ],
      "name": "OwnershipTransferred",
      "type": "event"
    },
    {
      "anonymous": false,
      "inputs": [
        {
          "indexed": true,
          "name": "purchaser",
          "type": "address"
        },
        {
          "indexed": true,
          "name": "beneficiary",
          "type": "address"
        },
        {
          "indexed": false,
          "name": "value",
          "type": "uint256"
        },
        {
          "indexed": false,
          "name": "amount",
          "type": "uint256"
        }
      ],
      "name": "TokenPurchase",
      "type": "event"
    }
  ],
  "bytecode": "0x60606040526000600760146101000a81548160ff021916908315150217905550341561002a57600080fd5b60405160e080611b46833981016040528080519060200190919080519060200190919080519060200190919080519060200190919080519060200190919080519060200190919080519060200190919050508383888888868642851015151561009257600080fd5b8484101515156100a157600080fd5b6000831115156100b057600080fd5b600073ffffffffffffffffffffffffffffffffffffffff168273ffffffffffffffffffffffffffffffffffffffff16141515156100ec57600080fd5b600073ffffffffffffffffffffffffffffffffffffffff168173ffffffffffffffffffffffffffffffffffffffff161415151561012857600080fd5b84600181905550836002819055508260048190555081600360006101000a81548173ffffffffffffffffffffffffffffffffffffffff021916908373ffffffffffffffffffffffffffffffffffffffff160217905550806000806101000a81548173ffffffffffffffffffffffffffffffffffffffff021916908373ffffffffffffffffffffffffffffffffffffffff16021790555050505050506000811115156101d257600080fd5b806006819055505033600760006101000a81548173ffffffffffffffffffffffffffffffffffffffff021916908373ffffffffffffffffffffffffffffffffffffffff16021790555060008111151561022a57600080fd5b600360009054906101000a900473ffffffffffffffffffffffffffffffffffffffff16610255610304565b808273ffffffffffffffffffffffffffffffffffffffff1673ffffffffffffffffffffffffffffffffffffffff168152602001915050604051809103906000f08015156102a157600080fd5b600960006101000a81548173ffffffffffffffffffffffffffffffffffffffff021916908373ffffffffffffffffffffffffffffffffffffffff16021790555080600881905550508284111515156102f857600080fd5b50505050505050610314565b604051610a77806110cf83390190565b610dac806103236000396000f3006060604052600436106100f1576000357c0100000000000000000000000000000000000000000000000000000000900463ffffffff1680632c4e722e146100fc5780633197cbb614610125578063355274ea1461014e57806340193883146101775780634042b66f146101a05780634bb278f3146101c9578063521eb273146101de57806378e97925146102335780637d3d65221461025c5780638d4e4083146102895780638da5cb5b146102b6578063b5545a3c1461030b578063ec8ac4d814610320578063ecb70fb71461034e578063f2fde38b1461037b578063fbfa77cf146103b4578063fc0c546a14610409575b6100fa3361045e565b005b341561010757600080fd5b61010f61063b565b6040518082815260200191505060405180910390f35b341561013057600080fd5b610138610641565b6040518082815260200191505060405180910390f35b341561015957600080fd5b610161610647565b6040518082815260200191505060405180910390f35b341561018257600080fd5b61018a61064d565b6040518082815260200191505060405180910390f35b34156101ab57600080fd5b6101b3610653565b6040518082815260200191505060405180910390f35b34156101d457600080fd5b6101dc610659565b005b34156101e957600080fd5b6101f1610735565b604051808273ffffffffffffffffffffffffffffffffffffffff1673ffffffffffffffffffffffffffffffffffffffff16815260200191505060405180910390f35b341561023e57600080fd5b61024661075b565b6040518082815260200191505060405180910390f35b341561026757600080fd5b61026f610761565b604051808215151515815260200191505060405180910390f35b341561029457600080fd5b61029c610770565b604051808215151515815260200191505060405180910390f35b34156102c157600080fd5b6102c9610783565b604051808273ffffffffffffffffffffffffffffffffffffffff1673ffffffffffffffffffffffffffffffffffffffff16815260200191505060405180910390f35b341561031657600080fd5b61031e6107a9565b005b61034c600480803573ffffffffffffffffffffffffffffffffffffffff1690602001909190505061045e565b005b341561035957600080fd5b6103616108aa565b604051808215151515815260200191505060405180910390f35b341561038657600080fd5b6103b2600480803573ffffffffffffffffffffffffffffffffffffffff169060200190919050506108cd565b005b34156103bf57600080fd5b6103c7610a25565b604051808273ffffffffffffffffffffffffffffffffffffffff1673ffffffffffffffffffffffffffffffffffffffff16815260200191505060405180910390f35b341561041457600080fd5b61041c610a4b565b604051808273ffffffffffffffffffffffffffffffffffffffff1673ffffffffffffffffffffffffffffffffffffffff16815260200191505060405180910390f35b600080600073ffffffffffffffffffffffffffffffffffffffff168373ffffffffffffffffffffffffffffffffffffffff161415151561049d57600080fd5b6104a5610a70565b15156104b057600080fd5b3491506104bc82610aa6565b90506104d382600554610ac490919063ffffffff16565b6005819055506000809054906101000a900473ffffffffffffffffffffffffffffffffffffffff1673ffffffffffffffffffffffffffffffffffffffff166340c10f1984836000604051602001526040518363ffffffff167c0100000000000000000000000000000000000000000000000000000000028152600401808373ffffffffffffffffffffffffffffffffffffffff1673ffffffffffffffffffffffffffffffffffffffff16815260200182815260200192505050602060405180830381600087803b15156105a557600080fd5b6102c65a03f115156105b657600080fd5b50505060405180519050508273ffffffffffffffffffffffffffffffffffffffff163373ffffffffffffffffffffffffffffffffffffffff167f623b3804fa71d67900d064613da8f94b9617215ee90799290593e1745087ad188484604051808381526020018281526020019250505060405180910390a3610636610ae2565b505050565b60045481565b60025481565b60065481565b60085481565b60055481565b600760009054906101000a900473ffffffffffffffffffffffffffffffffffffffff1673ffffffffffffffffffffffffffffffffffffffff163373ffffffffffffffffffffffffffffffffffffffff161415156106b557600080fd5b600760149054906101000a900460ff161515156106d157600080fd5b6106d96108aa565b15156106e457600080fd5b6106ec610bb5565b7f6823b073d48d6e3a7d385eeb601452d680e74bb46afe3255a7d778f3a9b1768160405160405180910390a16001600760146101000a81548160ff021916908315150217905550565b600360009054906101000a900473ffffffffffffffffffffffffffffffffffffffff1681565b60015481565b60006008546005541015905090565b600760149054906101000a900460ff1681565b600760009054906101000a900473ffffffffffffffffffffffffffffffffffffffff1681565b600760149054906101000a900460ff1615156107c457600080fd5b6107cc610761565b1515156107d857600080fd5b600960009054906101000a900473ffffffffffffffffffffffffffffffffffffffff1673ffffffffffffffffffffffffffffffffffffffff1663fa89401a336040518263ffffffff167c0100000000000000000000000000000000000000000000000000000000028152600401808273ffffffffffffffffffffffffffffffffffffffff1673ffffffffffffffffffffffffffffffffffffffff168152602001915050600060405180830381600087803b151561089457600080fd5b6102c65a03f115156108a557600080fd5b505050565b6000806006546005541015905080806108c757506108c6610d04565b5b91505090565b600760009054906101000a900473ffffffffffffffffffffffffffffffffffffffff1673ffffffffffffffffffffffffffffffffffffffff163373ffffffffffffffffffffffffffffffffffffffff1614151561092957600080fd5b600073ffffffffffffffffffffffffffffffffffffffff168173ffffffffffffffffffffffffffffffffffffffff161415151561096557600080fd5b8073ffffffffffffffffffffffffffffffffffffffff16600760009054906101000a900473ffffffffffffffffffffffffffffffffffffffff1673ffffffffffffffffffffffffffffffffffffffff167f8be0079c531659141344cd1fd0a4f28419497f9722a3daafe3b4186f6b6457e060405160405180910390a380600760006101000a81548173ffffffffffffffffffffffffffffffffffffffff021916908373ffffffffffffffffffffffffffffffffffffffff16021790555050565b600960009054906101000a900473ffffffffffffffffffffffffffffffffffffffff1681565b6000809054906101000a900473ffffffffffffffffffffffffffffffffffffffff1681565b600080600654610a8b34600554610ac490919063ffffffff16565b11159050808015610aa05750610a9f610d10565b5b91505090565b6000610abd60045483610d4390919063ffffffff16565b9050919050565b6000808284019050838110151515610ad857fe5b8091505092915050565b600960009054906101000a900473ffffffffffffffffffffffffffffffffffffffff1673ffffffffffffffffffffffffffffffffffffffff1663f340fa0134336040518363ffffffff167c0100000000000000000000000000000000000000000000000000000000028152600401808273ffffffffffffffffffffffffffffffffffffffff1673ffffffffffffffffffffffffffffffffffffffff1681526020019150506000604051808303818588803b1515610b9e57600080fd5b6125ee5a03f11515610baf57600080fd5b50505050565b610bbd610761565b15610c6057600960009054906101000a900473ffffffffffffffffffffffffffffffffffffffff1673ffffffffffffffffffffffffffffffffffffffff166343d726d66040518163ffffffff167c0100000000000000000000000000000000000000000000000000000000028152600401600060405180830381600087803b1515610c4757600080fd5b6102c65a03f11515610c5857600080fd5b505050610cfa565b600960009054906101000a900473ffffffffffffffffffffffffffffffffffffffff1673ffffffffffffffffffffffffffffffffffffffff16638c52dc416040518163ffffffff167c0100000000000000000000000000000000000000000000000000000000028152600401600060405180830381600087803b1515610ce557600080fd5b6102c65a03f11515610cf657600080fd5b5050505b610d02610d7e565b565b60006002544211905090565b60008060006001544210158015610d2957506002544211155b915060003414159050818015610d3c5750805b9250505090565b6000806000841415610d585760009150610d77565b8284029050828482811515610d6957fe5b04141515610d7357fe5b8091505b5092915050565b5600a165627a7a723058206e2bded9eccf899f296ee4e0fc5ee4a3c19a62623cce6e885b848d20c63cb83a00296060604052341561000f57600080fd5b604051602080610a7783398101604052808051906020019091905050336000806101000a81548173ffffffffffffffffffffffffffffffffffffffff021916908373ffffffffffffffffffffffffffffffffffffffff160217905550600073ffffffffffffffffffffffffffffffffffffffff168173ffffffffffffffffffffffffffffffffffffffff16141515156100a757600080fd5b80600260006101000a81548173ffffffffffffffffffffffffffffffffffffffff021916908373ffffffffffffffffffffffffffffffffffffffff1602179055506000600260146101000a81548160ff0219169083600281111561010757fe5b02179055505061095b8061011c6000396000f300606060405260043610610099576000357c0100000000000000000000000000000000000000000000000000000000900463ffffffff16806343d726d61461009e578063521eb273146100b35780638c52dc41146101085780638da5cb5b1461011d578063c19d93fb14610172578063cb13cddb146101a9578063f2fde38b146101f6578063f340fa011461022f578063fa89401a1461025d575b600080fd5b34156100a957600080fd5b6100b1610296565b005b34156100be57600080fd5b6100c66103ef565b604051808273ffffffffffffffffffffffffffffffffffffffff1673ffffffffffffffffffffffffffffffffffffffff16815260200191505060405180910390f35b341561011357600080fd5b61011b610415565b005b341561012857600080fd5b6101306104f6565b604051808273ffffffffffffffffffffffffffffffffffffffff1673ffffffffffffffffffffffffffffffffffffffff16815260200191505060405180910390f35b341561017d57600080fd5b61018561051b565b6040518082600281111561019557fe5b60ff16815260200191505060405180910390f35b34156101b457600080fd5b6101e0600480803573ffffffffffffffffffffffffffffffffffffffff1690602001909190505061052e565b6040518082815260200191505060405180910390f35b341561020157600080fd5b61022d600480803573ffffffffffffffffffffffffffffffffffffffff16906020019091905050610546565b005b61025b600480803573ffffffffffffffffffffffffffffffffffffffff1690602001909190505061069b565b005b341561026857600080fd5b610294600480803573ffffffffffffffffffffffffffffffffffffffff169060200190919050506107c2565b005b6000809054906101000a900473ffffffffffffffffffffffffffffffffffffffff1673ffffffffffffffffffffffffffffffffffffffff163373ffffffffffffffffffffffffffffffffffffffff161415156102f157600080fd5b600060028111156102fe57fe5b600260149054906101000a900460ff16600281111561031957fe5b14151561032557600080fd5b60028060146101000a81548160ff0219169083600281111561034357fe5b02179055507f1cdde67b72a90f19919ac732a437ac2f7a10fc128d28c2a6e525d89ce5cd9d3a60405160405180910390a1600260009054906101000a900473ffffffffffffffffffffffffffffffffffffffff1673ffffffffffffffffffffffffffffffffffffffff166108fc3073ffffffffffffffffffffffffffffffffffffffff16319081150290604051600060405180830381858888f1935050505015156103ed57600080fd5b565b600260009054906101000a900473ffffffffffffffffffffffffffffffffffffffff1681565b6000809054906101000a900473ffffffffffffffffffffffffffffffffffffffff1673ffffffffffffffffffffffffffffffffffffffff163373ffffffffffffffffffffffffffffffffffffffff1614151561047057600080fd5b6000600281111561047d57fe5b600260149054906101000a900460ff16600281111561049857fe5b1415156104a457600080fd5b6001600260146101000a81548160ff021916908360028111156104c357fe5b02179055507f599d8e5a83cffb867d051598c4d70e805d59802d8081c1c7d6dffc5b6aca2b8960405160405180910390a1565b6000809054906101000a900473ffffffffffffffffffffffffffffffffffffffff1681565b600260149054906101000a900460ff1681565b60016020528060005260406000206000915090505481565b6000809054906101000a900473ffffffffffffffffffffffffffffffffffffffff1673ffffffffffffffffffffffffffffffffffffffff163373ffffffffffffffffffffffffffffffffffffffff161415156105a157600080fd5b600073ffffffffffffffffffffffffffffffffffffffff168173ffffffffffffffffffffffffffffffffffffffff16141515156105dd57600080fd5b8073ffffffffffffffffffffffffffffffffffffffff166000809054906101000a900473ffffffffffffffffffffffffffffffffffffffff1673ffffffffffffffffffffffffffffffffffffffff167f8be0079c531659141344cd1fd0a4f28419497f9722a3daafe3b4186f6b6457e060405160405180910390a3806000806101000a81548173ffffffffffffffffffffffffffffffffffffffff021916908373ffffffffffffffffffffffffffffffffffffffff16021790555050565b6000809054906101000a900473ffffffffffffffffffffffffffffffffffffffff1673ffffffffffffffffffffffffffffffffffffffff163373ffffffffffffffffffffffffffffffffffffffff161415156106f657600080fd5b6000600281111561070357fe5b600260149054906101000a900460ff16600281111561071e57fe5b14151561072a57600080fd5b61077c34600160008473ffffffffffffffffffffffffffffffffffffffff1673ffffffffffffffffffffffffffffffffffffffff1681526020019081526020016000205461091190919063ffffffff16565b600160008373ffffffffffffffffffffffffffffffffffffffff1673ffffffffffffffffffffffffffffffffffffffff1681526020019081526020016000208190555050565b6000600160028111156107d157fe5b600260149054906101000a900460ff1660028111156107ec57fe5b1415156107f857600080fd5b600160008373ffffffffffffffffffffffffffffffffffffffff1673ffffffffffffffffffffffffffffffffffffffff1681526020019081526020016000205490506000600160008473ffffffffffffffffffffffffffffffffffffffff1673ffffffffffffffffffffffffffffffffffffffff168152602001908152602001600020819055508173ffffffffffffffffffffffffffffffffffffffff166108fc829081150290604051600060405180830381858888f1935050505015156108bf57600080fd5b8173ffffffffffffffffffffffffffffffffffffffff167fd7dee2702d63ad89917b6a4da9981c90c4d24f8c2bdfd64c604ecae57d8d0651826040518082815260200191505060405180910390a25050565b600080828401905083811015151561092557fe5b80915050929150505600a165627a7a72305820ecfbdb5f65213e337969be54832754e3b52b53d3b5e524da58e593e88d1021db0029",
  "source": "pragma solidity 0.4.19;\n\nimport \"./crowdsale/CappedCrowdsale.sol\";\nimport \"./crowdsale/RefundableCrowdsale.sol\";\nimport \"./token/ERC827/MintableToken.sol\";\n\ncontract IGVCrowdsale is CappedCrowdsale, RefundableCrowdsale {\n\n  function IGVCrowdsale(uint256 _startTime, uint256 _endTime, uint256 _rate, uint256 _goal, uint256 _cap, address _wallet, MintableToken _token) public\n    CappedCrowdsale(_cap)\n    FinalizableCrowdsale()\n    RefundableCrowdsale(_goal)\n    Crowdsale(_startTime, _endTime, _rate, _wallet, _token)\n  {\n    //As goal needs to be met for a successful crowdsale\n    //the value needs to less or equal than a cap which is limit for accepted funds\n    require(_goal <= _cap);\n  }\n}",
  "sourcePath": "/home/hayek/proj/igave-crowdsale/contracts/IGVCrowdsale.sol",
  "compiler": {
    "name": "solc",
    "version": "0.4.19+commit.c4cbbb05.Emscripten.clang"
  },
  "schemaVersion": "1.0.1",
  "updatedAt": "2018-02-15T06:34:56.863Z"
}