{
  "contractName": "IGVCampaign",
  "abi": [
    {
      "constant": true,
      "inputs": [],
      "name": "name",
      "outputs": [
        {
          "name": "_name",
          "type": "string"
        }
      ],
      "payable": false,
      "stateMutability": "pure",
      "type": "function"
    },
    {
      "constant": false,
      "inputs": [
        {
          "name": "_to",
          "type": "address"
        },
        {
          "name": "_tokenId",
          "type": "uint256"
        }
      ],
      "name": "approve",
      "outputs": [],
      "payable": false,
      "stateMutability": "nonpayable",
      "type": "function"
    },
    {
      "constant": true,
      "inputs": [],
      "name": "totalSupply",
      "outputs": [
        {
          "name": "",
          "type": "uint256"
        }
      ],
      "payable": false,
      "stateMutability": "view",
      "type": "function"
    },
    {
      "constant": true,
      "inputs": [
        {
          "name": "_tokenId",
          "type": "uint256"
        }
      ],
      "name": "approvedFor",
      "outputs": [
        {
          "name": "",
          "type": "address"
        }
      ],
      "payable": false,
      "stateMutability": "view",
      "type": "function"
    },
    {
      "constant": true,
      "inputs": [
        {
          "name": "",
          "type": "address"
        }
      ],
      "name": "campaignOwnerTotalCampaigns",
      "outputs": [
        {
          "name": "",
          "type": "uint256"
        }
      ],
      "payable": false,
      "stateMutability": "view",
      "type": "function"
    },
    {
      "constant": true,
      "inputs": [],
      "name": "founderAddress",
      "outputs": [
        {
          "name": "",
          "type": "address"
        }
      ],
      "payable": false,
      "stateMutability": "view",
      "type": "function"
    },
    {
      "constant": true,
      "inputs": [
        {
          "name": "_owner",
          "type": "address"
        }
      ],
      "name": "tokensOf",
      "outputs": [
        {
          "name": "",
          "type": "uint256[]"
        }
      ],
      "payable": false,
      "stateMutability": "view",
      "type": "function"
    },
    {
      "constant": true,
      "inputs": [
        {
          "name": "_tokenId",
          "type": "uint256"
        }
      ],
      "name": "ownerOf",
      "outputs": [
        {
          "name": "",
          "type": "address"
        }
      ],
      "payable": false,
      "stateMutability": "view",
      "type": "function"
    },
    {
      "constant": true,
      "inputs": [
        {
          "name": "_owner",
          "type": "address"
        }
      ],
      "name": "balanceOf",
      "outputs": [
        {
          "name": "",
          "type": "uint256"
        }
      ],
      "payable": false,
      "stateMutability": "view",
      "type": "function"
    },
    {
      "constant": true,
      "inputs": [],
      "name": "maxCertificates",
      "outputs": [
        {
          "name": "",
          "type": "uint256"
        }
      ],
      "payable": false,
      "stateMutability": "view",
      "type": "function"
    },
    {
      "constant": true,
      "inputs": [],
      "name": "owner",
      "outputs": [
        {
          "name": "",
          "type": "address"
        }
      ],
      "payable": false,
      "stateMutability": "view",
      "type": "function"
    },
    {
      "constant": true,
      "inputs": [
        {
          "name": "",
          "type": "uint256"
        }
      ],
      "name": "campaignCertificateCount",
      "outputs": [
        {
          "name": "",
          "type": "uint64"
        }
      ],
      "payable": false,
      "stateMutability": "view",
      "type": "function"
    },
    {
      "constant": true,
      "inputs": [
        {
          "name": "",
          "type": "address"
        },
        {
          "name": "",
          "type": "uint256"
        }
      ],
      "name": "campaignOwnerToIndexes",
      "outputs": [
        {
          "name": "",
          "type": "uint256"
        }
      ],
      "payable": false,
      "stateMutability": "view",
      "type": "function"
    },
    {
      "constant": true,
      "inputs": [],
      "name": "symbol",
      "outputs": [
        {
          "name": "_symbol",
          "type": "string"
        }
      ],
      "payable": false,
      "stateMutability": "pure",
      "type": "function"
    },
    {
      "constant": true,
      "inputs": [
        {
          "name": "",
          "type": "uint256"
        },
        {
          "name": "",
          "type": "uint256"
        }
      ],
      "name": "campaignCertificates",
      "outputs": [
        {
          "name": "campaignId",
          "type": "uint256"
        },
        {
          "name": "price",
          "type": "uint256"
        },
        {
          "name": "supply",
          "type": "uint16"
        },
        {
          "name": "remaining",
          "type": "uint16"
        },
        {
          "name": "name",
          "type": "string"
        }
      ],
      "payable": false,
      "stateMutability": "view",
      "type": "function"
    },
    {
      "constant": false,
      "inputs": [
        {
          "name": "_to",
          "type": "address"
        },
        {
          "name": "_tokenId",
          "type": "uint256"
        }
      ],
      "name": "transfer",
      "outputs": [],
      "payable": false,
      "stateMutability": "nonpayable",
      "type": "function"
    },
    {
      "constant": false,
      "inputs": [
        {
          "name": "_tokenId",
          "type": "uint256"
        }
      ],
      "name": "takeOwnership",
      "outputs": [],
      "payable": false,
      "stateMutability": "nonpayable",
      "type": "function"
    },
    {
      "constant": true,
      "inputs": [
        {
          "name": "",
          "type": "uint256"
        }
      ],
      "name": "campaignBalance",
      "outputs": [
        {
          "name": "",
          "type": "uint256"
        }
      ],
      "payable": false,
      "stateMutability": "view",
      "type": "function"
    },
    {
      "constant": true,
      "inputs": [
        {
          "name": "",
          "type": "uint256"
        }
      ],
      "name": "campaignIndexToOwner",
      "outputs": [
        {
          "name": "",
          "type": "address"
        }
      ],
      "payable": false,
      "stateMutability": "view",
      "type": "function"
    },
    {
      "constant": false,
      "inputs": [
        {
          "name": "newOwner",
          "type": "address"
        }
      ],
      "name": "transferOwnership",
      "outputs": [],
      "payable": false,
      "stateMutability": "nonpayable",
      "type": "function"
    },
    {
      "anonymous": false,
      "inputs": [
        {
          "indexed": true,
          "name": "owner",
          "type": "address"
        },
        {
          "indexed": false,
          "name": "campaignId",
          "type": "uint256"
        }
      ],
      "name": "CreateCampaign",
      "type": "event"
    },
    {
      "anonymous": false,
      "inputs": [
        {
          "indexed": true,
          "name": "campaignId",
          "type": "uint256"
        },
        {
          "indexed": false,
          "name": "name",
          "type": "string"
        }
      ],
      "name": "CreateCertificate",
      "type": "event"
    },
    {
      "anonymous": false,
      "inputs": [
        {
          "indexed": false,
          "name": "campaignId",
          "type": "uint256"
        },
        {
          "indexed": false,
          "name": "certificateIdx",
          "type": "uint16"
        },
        {
          "indexed": false,
          "name": "remaining",
          "type": "uint16"
        },
        {
          "indexed": false,
          "name": "price",
          "type": "uint256"
        }
      ],
      "name": "CreateToken",
      "type": "event"
    },
    {
      "anonymous": false,
      "inputs": [
        {
          "indexed": true,
          "name": "previousOwner",
          "type": "address"
        },
        {
          "indexed": true,
          "name": "newOwner",
          "type": "address"
        }
      ],
      "name": "OwnershipTransferred",
      "type": "event"
    },
    {
      "anonymous": false,
      "inputs": [
        {
          "indexed": true,
          "name": "_from",
          "type": "address"
        },
        {
          "indexed": true,
          "name": "_to",
          "type": "address"
        },
        {
          "indexed": false,
          "name": "_tokenId",
          "type": "uint256"
        }
      ],
      "name": "Transfer",
      "type": "event"
    },
    {
      "anonymous": false,
      "inputs": [
        {
          "indexed": true,
          "name": "_owner",
          "type": "address"
        },
        {
          "indexed": true,
          "name": "_approved",
          "type": "address"
        },
        {
          "indexed": false,
          "name": "_tokenId",
          "type": "uint256"
        }
      ],
      "name": "Approval",
      "type": "event"
    },
    {
      "constant": false,
      "inputs": [
        {
          "name": "_campaignId",
          "type": "uint256"
        }
      ],
      "name": "withdrawCampaignBalance",
      "outputs": [],
      "payable": false,
      "stateMutability": "nonpayable",
      "type": "function"
    },
    {
      "constant": true,
      "inputs": [
        {
          "name": "_id",
          "type": "uint256"
        }
      ],
      "name": "getCampaign",
      "outputs": [
        {
          "name": "owner",
          "type": "address"
        },
        {
          "name": "campaignName",
          "type": "string"
        },
        {
          "name": "taxId",
          "type": "string"
        },
        {
          "name": "active",
          "type": "bool"
        },
        {
          "name": "veto",
          "type": "bool"
        },
        {
          "name": "ready",
          "type": "bool"
        }
      ],
      "payable": false,
      "stateMutability": "view",
      "type": "function"
    },
    {
      "constant": true,
      "inputs": [
        {
          "name": "_campaignId",
          "type": "uint256"
        },
        {
          "name": "_certificateIdx",
          "type": "uint64"
        }
      ],
      "name": "getCertificate",
      "outputs": [
        {
          "name": "campaignId",
          "type": "uint256"
        },
        {
          "name": "supply",
          "type": "uint64"
        },
        {
          "name": "remaining",
          "type": "uint64"
        },
        {
          "name": "name",
          "type": "string"
        },
        {
          "name": "price",
          "type": "uint256"
        }
      ],
      "payable": false,
      "stateMutability": "view",
      "type": "function"
    },
    {
      "constant": true,
      "inputs": [
        {
          "name": "_id",
          "type": "uint256"
        }
      ],
      "name": "getToken",
      "outputs": [
        {
          "name": "campaignId",
          "type": "uint256"
        },
        {
          "name": "value",
          "type": "uint256"
        },
        {
          "name": "unitNumber",
          "type": "uint16"
        },
        {
          "name": "purchaser",
          "type": "address"
        },
        {
          "name": "certificateIdx",
          "type": "uint16"
        }
      ],
      "payable": false,
      "stateMutability": "view",
      "type": "function"
    },
    {
      "constant": true,
      "inputs": [
        {
          "name": "_owner",
          "type": "address"
        }
      ],
      "name": "getTotalCampaignsForOwner",
      "outputs": [
        {
          "name": "total",
          "type": "uint256"
        }
      ],
      "payable": false,
      "stateMutability": "view",
      "type": "function"
    },
    {
      "constant": true,
      "inputs": [
        {
          "name": "_owner",
          "type": "address"
        },
        {
          "name": "_index",
          "type": "uint256"
        }
      ],
      "name": "getCampaignIdByOwnerIndex",
      "outputs": [
        {
          "name": "id",
          "type": "uint256"
        }
      ],
      "payable": false,
      "stateMutability": "view",
      "type": "function"
    },
    {
      "constant": true,
      "inputs": [],
      "name": "totalCampaigns",
      "outputs": [
        {
          "name": "",
          "type": "uint256"
        }
      ],
      "payable": false,
      "stateMutability": "view",
      "type": "function"
    },
    {
      "constant": false,
      "inputs": [
        {
          "name": "_maxCertificates",
          "type": "uint256"
        }
      ],
      "name": "changeMaxCertificates",
      "outputs": [],
      "payable": false,
      "stateMutability": "nonpayable",
      "type": "function"
    },
    {
      "constant": true,
      "inputs": [
        {
          "name": "_campaignId",
          "type": "uint256"
        }
      ],
      "name": "getCampaignBalance",
      "outputs": [
        {
          "name": "",
          "type": "uint256"
        }
      ],
      "payable": false,
      "stateMutability": "view",
      "type": "function"
    }
  ],
  "bytecode": "0x60606040526103e860095573c7b4f558e11fa78dd985520fafe065aba77f5c30600560006101000a81548173ffffffffffffffffffffffffffffffffffffffff021916908373ffffffffffffffffffffffffffffffffffffffff16021790555061213c8061006e6000396000f300606060405260043610610175576000357c0100000000000000000000000000000000000000000000000000000000900463ffffffff16806302932f561461017a57806306fdde03146101a3578063095ea7b31461023157806318160ddd146102735780632a6dd48f1461029c5780632d85ea12146102ff5780633da70bd51461034c57806346bb2833146103995780635598f8cc146103ee5780635a3f26721461054a5780636352211e146105d857806370a082311461063b5780637204ca151461068857806381cdb4c3146106b15780638da5cb5b146107a457806390722b75146107f9578063914175421461084457806395d89b411461089a578063a5f8777514610928578063a9059cbb14610a16578063a9cd4a1f14610a58578063ae18e08314610a7b578063b2e6ceeb14610a9e578063bd6c67e914610ac1578063ced3c6ad14610af8578063e4b50cb814610b5b578063eb044b9714610bea578063f2fde38b14610c21578063fea62cae14610c5a575b600080fd5b341561018557600080fd5b61018d610cb0565b6040518082815260200191505060405180910390f35b34156101ae57600080fd5b6101b6610cc0565b6040518080602001828103825283818151815260200191508051906020019080838360005b838110156101f65780820151818401526020810190506101db565b50505050905090810190601f1680156102235780820380516001836020036101000a031916815260200191505b509250505060405180910390f35b341561023c57600080fd5b610271600480803573ffffffffffffffffffffffffffffffffffffffff16906020019091908035906020019091905050610d03565b005b341561027e57600080fd5b610286610e96565b6040518082815260200191505060405180910390f35b34156102a757600080fd5b6102bd6004808035906020019091905050610e9f565b604051808273ffffffffffffffffffffffffffffffffffffffff1673ffffffffffffffffffffffffffffffffffffffff16815260200191505060405180910390f35b341561030a57600080fd5b610336600480803573ffffffffffffffffffffffffffffffffffffffff16906020019091905050610edc565b6040518082815260200191505060405180910390f35b341561035757600080fd5b610383600480803573ffffffffffffffffffffffffffffffffffffffff16906020019091905050610f25565b6040518082815260200191505060405180910390f35b34156103a457600080fd5b6103ac610f3d565b604051808273ffffffffffffffffffffffffffffffffffffffff1673ffffffffffffffffffffffffffffffffffffffff16815260200191505060405180910390f35b34156103f957600080fd5b61040f6004808035906020019091905050610f63565b604051808773ffffffffffffffffffffffffffffffffffffffff1673ffffffffffffffffffffffffffffffffffffffff1681526020018060200180602001861515151581526020018515151515815260200184151515158152602001838103835288818151815260200191508051906020019080838360005b838110156104a3578082015181840152602081019050610488565b50505050905090810190601f1680156104d05780820380516001836020036101000a031916815260200191505b50838103825287818151815260200191508051906020019080838360005b838110156105095780820151818401526020810190506104ee565b50505050905090810190601f1680156105365780820380516001836020036101000a031916815260200191505b509850505050505050505060405180910390f35b341561055557600080fd5b610581600480803573ffffffffffffffffffffffffffffffffffffffff16906020019091905050611145565b6040518080602001828103825283818151815260200191508051906020019060200280838360005b838110156105c45780820151818401526020810190506105a9565b505050509050019250505060405180910390f35b34156105e357600080fd5b6105f960048080359060200190919050506111e2565b604051808273ffffffffffffffffffffffffffffffffffffffff1673ffffffffffffffffffffffffffffffffffffffff16815260200191505060405180910390f35b341561064657600080fd5b610672600480803573ffffffffffffffffffffffffffffffffffffffff16906020019091905050611260565b6040518082815260200191505060405180910390f35b341561069357600080fd5b61069b6112ac565b6040518082815260200191505060405180910390f35b34156106bc57600080fd5b6106e5600480803590602001909190803567ffffffffffffffff169060200190919050506112b2565b604051808681526020018567ffffffffffffffff1667ffffffffffffffff1681526020018467ffffffffffffffff1667ffffffffffffffff16815260200180602001838152602001828103825284818151815260200191508051906020019080838360005b8381101561076557808201518184015260208101905061074a565b50505050905090810190601f1680156107925780820380516001836020036101000a031916815260200191505b50965050505050505060405180910390f35b34156107af57600080fd5b6107b76113e6565b604051808273ffffffffffffffffffffffffffffffffffffffff1673ffffffffffffffffffffffffffffffffffffffff16815260200191505060405180910390f35b341561080457600080fd5b61081a600480803590602001909190505061140c565b604051808267ffffffffffffffff1667ffffffffffffffff16815260200191505060405180910390f35b341561084f57600080fd5b610884600480803573ffffffffffffffffffffffffffffffffffffffff16906020019091908035906020019091905050611433565b6040518082815260200191505060405180910390f35b34156108a557600080fd5b6108ad611464565b6040518080602001828103825283818151815260200191508051906020019080838360005b838110156108ed5780820151818401526020810190506108d2565b50505050905090810190601f16801561091a5780820380516001836020036101000a031916815260200191505b509250505060405180910390f35b341561093357600080fd5b61095260048080359060200190919080359060200190919050506114a7565b604051808681526020018581526020018461ffff1661ffff1681526020018361ffff1661ffff16815260200180602001828103825283818154600181600116156101000203166002900481526020019150805460018160011615610100020316600290048015610a035780601f106109d857610100808354040283529160200191610a03565b820191906000526020600020905b8154815290600101906020018083116109e657829003601f168201915b5050965050505050505060405180910390f35b3415610a2157600080fd5b610a56600480803573ffffffffffffffffffffffffffffffffffffffff16906020019091908035906020019091905050611514565b005b3415610a6357600080fd5b610a796004808035906020019091905050611567565b005b3415610a8657600080fd5b610a9c60048080359060200190919050506115de565b005b3415610aa957600080fd5b610abf60048080359060200190919050506116f0565b005b3415610acc57600080fd5b610ae2600480803590602001909190505061171b565b6040518082815260200191505060405180910390f35b3415610b0357600080fd5b610b196004808035906020019091905050611733565b604051808273ffffffffffffffffffffffffffffffffffffffff1673ffffffffffffffffffffffffffffffffffffffff16815260200191505060405180910390f35b3415610b6657600080fd5b610b7c6004808035906020019091905050611766565b604051808681526020018581526020018461ffff1661ffff1681526020018373ffffffffffffffffffffffffffffffffffffffff1673ffffffffffffffffffffffffffffffffffffffff1681526020018261ffff1661ffff1681526020019550505050505060405180910390f35b3415610bf557600080fd5b610c0b60048080359060200190919050506117f7565b6040518082815260200191505060405180910390f35b3415610c2c57600080fd5b610c58600480803573ffffffffffffffffffffffffffffffffffffffff16906020019091905050611814565b005b3415610c6557600080fd5b610c9a600480803573ffffffffffffffffffffffffffffffffffffffff1690602001909190803590602001909190505061196c565b6040518082815260200191505060405180910390f35b6000600160078054905003905090565b610cc861206b565b6040805190810160405280600c81526020017f4920476176652041737365740000000000000000000000000000000000000000815250905090565b6000813373ffffffffffffffffffffffffffffffffffffffff16610d26826111e2565b73ffffffffffffffffffffffffffffffffffffffff16141515610d4857600080fd5b610d51836111e2565b91508173ffffffffffffffffffffffffffffffffffffffff168473ffffffffffffffffffffffffffffffffffffffff1614151515610d8e57600080fd5b6000610d9984610e9f565b73ffffffffffffffffffffffffffffffffffffffff16141580610dd3575060008473ffffffffffffffffffffffffffffffffffffffff1614155b15610e9057836002600085815260200190815260200160002060006101000a81548173ffffffffffffffffffffffffffffffffffffffff021916908373ffffffffffffffffffffffffffffffffffffffff1602179055508373ffffffffffffffffffffffffffffffffffffffff168273ffffffffffffffffffffffffffffffffffffffff167f8c5be1e5ebec7d5bd14f71427d1e84f3dd0314c0f7b2291e5b200ac8c7c3b925856040518082815260200191505060405180910390a35b50505050565b60008054905090565b60006002600083815260200190815260200160002060009054906101000a900473ffffffffffffffffffffffffffffffffffffffff169050919050565b6000600c60008373ffffffffffffffffffffffffffffffffffffffff1673ffffffffffffffffffffffffffffffffffffffff168152602001908152602001600020549050919050565b600c6020528060005260406000206000915090505481565b600660009054906101000a900473ffffffffffffffffffffffffffffffffffffffff1681565b6000610f6d61206b565b610f7561206b565b600080600080600788815481101515610f8a57fe5b906000526020600020906004020190508060000160009054906101000a900473ffffffffffffffffffffffffffffffffffffffff169650806001018054600181600116156101000203166002900480601f0160208091040260200160405190810160405280929190818152602001828054600181600116156101000203166002900480156110595780601f1061102e57610100808354040283529160200191611059565b820191906000526020600020905b81548152906001019060200180831161103c57829003601f168201915b50505050509550806002018054600181600116156101000203166002900480601f0160208091040260200160405190810160405280929190818152602001828054600181600116156101000203166002900480156110f85780601f106110cd576101008083540402835291602001916110f8565b820191906000526020600020905b8154815290600101906020018083116110db57829003601f168201915b505050505094508060030160009054906101000a900460ff1693508060030160019054906101000a900460ff1692508060030160029054906101000a900460ff1691505091939550919395565b61114d61207f565b600360008373ffffffffffffffffffffffffffffffffffffffff1673ffffffffffffffffffffffffffffffffffffffff1681526020019081526020016000208054806020026020016040519081016040528092919081815260200182805480156111d657602002820191906000526020600020905b8154815260200190600101908083116111c2575b50505050509050919050565b6000806001600084815260200190815260200160002060009054906101000a900473ffffffffffffffffffffffffffffffffffffffff169050600073ffffffffffffffffffffffffffffffffffffffff168173ffffffffffffffffffffffffffffffffffffffff161415151561125757600080fd5b80915050919050565b6000600360008373ffffffffffffffffffffffffffffffffffffffff1673ffffffffffffffffffffffffffffffffffffffff168152602001908152602001600020805490509050919050565b60095481565b60008060006112bf61206b565b600080600e60008981526020019081526020016000208767ffffffffffffffff168154811015156112ec57fe5b90600052602060002090600402019050806000015495508060020160009054906101000a900461ffff1661ffff1694508060020160029054906101000a900461ffff1661ffff169350806003018054600181600116156101000203166002900480601f0160208091040260200160405190810160405280929190818152602001828054600181600116156101000203166002900480156113cd5780601f106113a2576101008083540402835291602001916113cd565b820191906000526020600020905b8154815290600101906020018083116113b057829003601f168201915b5050505050925080600101549150509295509295909350565b600560009054906101000a900473ffffffffffffffffffffffffffffffffffffffff1681565b600f6020528060005260406000206000915054906101000a900467ffffffffffffffff1681565b600b6020528160005260406000208181548110151561144e57fe5b9060005260206000209001600091509150505481565b61146c61206b565b6040805190810160405280600381526020017f493c330000000000000000000000000000000000000000000000000000000000815250905090565b600e602052816000526040600020818154811015156114c257fe5b9060005260206000209060040201600091509150508060000154908060010154908060020160009054906101000a900461ffff16908060020160029054906101000a900461ffff169080600301905085565b803373ffffffffffffffffffffffffffffffffffffffff16611535826111e2565b73ffffffffffffffffffffffffffffffffffffffff1614151561155757600080fd5b6115623384846119ce565b505050565b600560009054906101000a900473ffffffffffffffffffffffffffffffffffffffff1673ffffffffffffffffffffffffffffffffffffffff163373ffffffffffffffffffffffffffffffffffffffff161415156115c357600080fd5b6103e881111515156115d457600080fd5b8060098190555050565b600080821115156115ee57600080fd5b3373ffffffffffffffffffffffffffffffffffffffff16600a600084815260200190815260200160002060009054906101000a900473ffffffffffffffffffffffffffffffffffffffff1673ffffffffffffffffffffffffffffffffffffffff1614151561165b57600080fd5b6000600d60008481526020019081526020016000205411151561167d57600080fd5b600d60008381526020019081526020016000205490506000600d6000848152602001908152602001600020819055503373ffffffffffffffffffffffffffffffffffffffff166108fc829081150290604051600060405180830381858888f1935050505015156116ec57600080fd5b5050565b6116fa3382611b17565b151561170557600080fd5b611718611711826111e2565b33836119ce565b50565b600d6020528060005260406000206000915090505481565b600a6020528060005260406000206000915054906101000a900473ffffffffffffffffffffffffffffffffffffffff1681565b60008060008060008060088781548110151561177e57fe5b9060005260206000209060030201905080600001549550806001015494508060020160149054906101000a900461ffff1693508060020160009054906101000a900473ffffffffffffffffffffffffffffffffffffffff1692508060020160169054906101000a900461ffff1691505091939590929450565b6000600d6000838152602001908152602001600020549050919050565b600560009054906101000a900473ffffffffffffffffffffffffffffffffffffffff1673ffffffffffffffffffffffffffffffffffffffff163373ffffffffffffffffffffffffffffffffffffffff1614151561187057600080fd5b600073ffffffffffffffffffffffffffffffffffffffff168173ffffffffffffffffffffffffffffffffffffffff16141515156118ac57600080fd5b8073ffffffffffffffffffffffffffffffffffffffff16600560009054906101000a900473ffffffffffffffffffffffffffffffffffffffff1673ffffffffffffffffffffffffffffffffffffffff167f8be0079c531659141344cd1fd0a4f28419497f9722a3daafe3b4186f6b6457e060405160405180910390a380600560006101000a81548173ffffffffffffffffffffffffffffffffffffffff021916908373ffffffffffffffffffffffffffffffffffffffff16021790555050565b6000600b60008473ffffffffffffffffffffffffffffffffffffffff1673ffffffffffffffffffffffffffffffffffffffff168152602001908152602001600020828154811015156119ba57fe5b906000526020600020900154905092915050565b600073ffffffffffffffffffffffffffffffffffffffff168273ffffffffffffffffffffffffffffffffffffffff1614151515611a0a57600080fd5b611a13816111e2565b73ffffffffffffffffffffffffffffffffffffffff168273ffffffffffffffffffffffffffffffffffffffff1614151515611a4d57600080fd5b8273ffffffffffffffffffffffffffffffffffffffff16611a6d826111e2565b73ffffffffffffffffffffffffffffffffffffffff16141515611a8f57600080fd5b611a998382611b58565b611aa38382611c41565b611aad8282611ec9565b8173ffffffffffffffffffffffffffffffffffffffff168373ffffffffffffffffffffffffffffffffffffffff167fddf252ad1be2c89b69c2b068fc378daa952ba7f163c4a11628f55a4df523b3ef836040518082815260200191505060405180910390a3505050565b60008273ffffffffffffffffffffffffffffffffffffffff16611b3983610e9f565b73ffffffffffffffffffffffffffffffffffffffff1614905092915050565b8173ffffffffffffffffffffffffffffffffffffffff16611b78826111e2565b73ffffffffffffffffffffffffffffffffffffffff16141515611b9a57600080fd5b60006002600083815260200190815260200160002060006101000a81548173ffffffffffffffffffffffffffffffffffffffff021916908373ffffffffffffffffffffffffffffffffffffffff16021790555060008273ffffffffffffffffffffffffffffffffffffffff167f8c5be1e5ebec7d5bd14f71427d1e84f3dd0314c0f7b2291e5b200ac8c7c3b925836040518082815260200191505060405180910390a35050565b60008060008473ffffffffffffffffffffffffffffffffffffffff16611c66856111e2565b73ffffffffffffffffffffffffffffffffffffffff16141515611c8857600080fd5b60046000858152602001908152602001600020549250611cba6001611cac87611260565b61203490919063ffffffff16565b9150600360008673ffffffffffffffffffffffffffffffffffffffff1673ffffffffffffffffffffffffffffffffffffffff16815260200190815260200160002082815481101515611d0857fe5b906000526020600020900154905060006001600086815260200190815260200160002060006101000a81548173ffffffffffffffffffffffffffffffffffffffff021916908373ffffffffffffffffffffffffffffffffffffffff16021790555080600360008773ffffffffffffffffffffffffffffffffffffffff1673ffffffffffffffffffffffffffffffffffffffff16815260200190815260200160002084815481101515611db657fe5b9060005260206000209001819055506000600360008773ffffffffffffffffffffffffffffffffffffffff1673ffffffffffffffffffffffffffffffffffffffff16815260200190815260200160002083815481101515611e1357fe5b906000526020600020900181905550600360008673ffffffffffffffffffffffffffffffffffffffff1673ffffffffffffffffffffffffffffffffffffffff168152602001908152602001600020805480919060019003611e749190612093565b5060006004600086815260200190815260200160002081905550826004600083815260200190815260200160002081905550611ebc600160005461203490919063ffffffff16565b6000819055505050505050565b60008073ffffffffffffffffffffffffffffffffffffffff166001600084815260200190815260200160002060009054906101000a900473ffffffffffffffffffffffffffffffffffffffff1673ffffffffffffffffffffffffffffffffffffffff16141515611f3857600080fd5b826001600084815260200190815260200160002060006101000a81548173ffffffffffffffffffffffffffffffffffffffff021916908373ffffffffffffffffffffffffffffffffffffffff160217905550611f9383611260565b9050600360008473ffffffffffffffffffffffffffffffffffffffff1673ffffffffffffffffffffffffffffffffffffffff1681526020019081526020016000208054806001018281611fe691906120bf565b916000526020600020900160008490919091505550806004600084815260200190815260200160002081905550612029600160005461204d90919063ffffffff16565b600081905550505050565b600082821115151561204257fe5b818303905092915050565b600080828401905083811015151561206157fe5b8091505092915050565b602060405190810160405280600081525090565b602060405190810160405280600081525090565b8154818355818115116120ba578183600052602060002091820191016120b991906120eb565b5b505050565b8154818355818115116120e6578183600052602060002091820191016120e591906120eb565b5b505050565b61210d91905b808211156121095760008160009055506001016120f1565b5090565b905600a165627a7a72305820bae248321db2f48873b3bd5e7ec920455fd9f82d1c6109aa1617cc3f459bebdf0029",
  "source": "pragma solidity 0.4.19;\n\nimport '../util/Ownable.sol';\nimport '../util/SafeMath.sol';\nimport './IGVAsset.sol';\n\ncontract IGVCampaign is IGVAsset, Ownable {\n  address public founderAddress;\n\n  Campaign[] campaigns;\n  Token[] tokens;\n\n  uint256 public maxCertificates = 1000;\n\n  mapping (uint256 => address) public campaignIndexToOwner;\n  mapping (address => uint256[]) public campaignOwnerToIndexes;\n  mapping (address => uint256) public campaignOwnerTotalCampaigns;\n  mapping (uint256 => uint256) public campaignBalance;\n  mapping (uint256 => Certificate[]) public campaignCertificates;\n  mapping (uint256 => uint64) public campaignCertificateCount;\n\n  event CreateCampaign(address indexed owner, uint256 campaignId);\n  event CreateCertificate(uint256 indexed campaignId, string name);\n  event CreateToken(uint256 campaignId, uint16 certificateIdx, uint16 remaining, uint256 price);\n\n  struct Token {\n    uint256 campaignId;\n    uint256 value;\n    address purchaser;\n    uint16 unitNumber;\n    uint16 certificateIdx;\n  }\n\n  struct Campaign {\n    address owner;\n    string campaignName;\n    string taxId;\n    bool active;\n    bool veto;\n    bool ready;\n  }\n\n  struct Certificate {\n    uint256 campaignId;\n    uint256 price;\n    uint16 supply;\n    uint16 remaining;\n    string name;\n  }\n\n  function _createToken(\n    uint256 _campaignId,\n    uint16 _certificateIdx,\n    uint16 _unitNumber,\n    address _owner,\n    uint256 _value\n  )\n    internal\n    returns (uint)\n  {\n    Token memory _token = Token({\n      campaignId: _campaignId,\n      value: _value,\n      purchaser: _owner,\n      certificateIdx: _certificateIdx,\n      unitNumber: _unitNumber\n    });\n\n    campaignCertificates[_campaignId][_certificateIdx].remaining--;\n    uint256 newTokenId = tokens.push(_token);\n\n    _mint(_owner, newTokenId);\n\n    return newTokenId;\n  }\n\n\n  function _createCampaign(\n    address _owner,\n    string _campaignName,\n    string _taxId\n  )\n    internal\n    returns (uint)\n  {\n    Campaign memory _campaign = Campaign({\n      owner: _owner,\n      campaignName: _campaignName,\n      taxId: _taxId,\n      active: false,\n      veto: false,\n      ready: false\n    });\n\n    uint256 newCampaignId = campaigns.push(_campaign);\n\n    campaignIndexToOwner[newCampaignId] = _owner;\n    campaignOwnerToIndexes[_owner].push(newCampaignId);\n    campaignOwnerTotalCampaigns[_owner] += 1;\n\n    CreateCampaign(_owner, newCampaignId);\n\n    return newCampaignId;\n  }\n\n  function _createCertificate(\n    uint256 _campaignId,\n    uint16 _supply,\n    string _name,\n    uint256 _price\n  )\n    internal\n    returns (uint)\n  {\n\n    Certificate memory _certificate = Certificate({\n      campaignId: _campaignId,\n      supply: _supply,\n      remaining: _supply,\n      name: _name,\n      price: _price\n    });\n\n    uint256 certificateIndex = campaignCertificates[_campaignId].push(_certificate);\n\n    campaignCertificateCount[_campaignId]++;\n\n    CreateCertificate(_campaignId, _name);\n\n    return certificateIndex;\n  }\n\n  function _updateCertificate(\n    uint256 _campaignId,\n    uint256 _certificateIdx,\n    uint16 _supply,\n    string _name,\n    uint256 _price\n  )\n    internal\n  {\n    require(_certificateIdx < campaignCertificateCount[_campaignId]);\n\n    campaignCertificates[_campaignId][_certificateIdx].supply = _supply;\n    campaignCertificates[_campaignId][_certificateIdx].name = _name;\n    campaignCertificates[_campaignId][_certificateIdx].price = _price;\n  }\n\n  function withdrawCampaignBalance(uint256 _campaignId) public {\n    require(_campaignId > 0);\n    require(campaignIndexToOwner[_campaignId] == msg.sender);\n    require(campaignBalance[_campaignId] > 0);\n    uint256 _balance = campaignBalance[_campaignId];\n    campaignBalance[_campaignId] = 0;\n    msg.sender.transfer(_balance);\n  }\n\n  // Views\n  function getCampaign(uint256 _id)\n    public\n    view\n    returns\n  (\n    address owner,\n    string campaignName,\n    string taxId,\n    bool active,\n    bool veto,\n    bool ready\n  ) {\n    Campaign storage campaign = campaigns[_id];\n\n    owner = campaign.owner;\n    campaignName = campaign.campaignName;\n    taxId = campaign.taxId;\n    active = campaign.active;\n    veto = campaign.veto;\n    ready = campaign.ready;\n  }\n\n  function getCertificate(uint256 _campaignId, uint64 _certificateIdx)\n    public\n    view\n    returns\n  (\n    uint256 campaignId,\n    uint64 supply,\n    uint64 remaining,\n    string name,\n    uint256 price\n  ){\n\n    Certificate storage certificate = campaignCertificates[_campaignId][_certificateIdx];\n\n    campaignId = uint256(certificate.campaignId);\n    supply = uint64(certificate.supply);\n    remaining = uint64(certificate.remaining);\n    name = certificate.name;\n    price = uint256(certificate.price);\n  }\n\n  function getToken(uint256 _id)\n    public\n    view\n    returns\n  (\n    uint256 campaignId,\n    uint256 value,\n    uint16 unitNumber,\n    address purchaser,\n    uint16 certificateIdx\n  ){\n    Token storage token = tokens[_id];\n\n    campaignId = uint256(token.campaignId);\n    value = uint256(token.value);\n    unitNumber = uint16(token.unitNumber);\n    purchaser = address(token.purchaser);\n    certificateIdx = uint16(token.certificateIdx);\n  }\n\n  function getTotalCampaignsForOwner(address _owner)\n    public\n    view\n    returns (\n    uint256 total\n  ){\n    total = campaignOwnerTotalCampaigns[_owner];\n  }\n\n  function getCampaignIdByOwnerIndex(address _owner, uint256 _index)\n    public\n    view\n    returns\n  (\n    uint256 id\n  ){\n    id = campaignOwnerToIndexes[_owner][_index];\n  }\n\n  function totalCampaigns() public view returns (uint256) {\n    return campaigns.length - 1;\n  }\n\n  function changeMaxCertificates(uint256 _maxCertificates) public onlyOwner {\n    // Hard cap at 1000 Certificates. Well under Veto gas limits.\n    require(_maxCertificates <= 1000);\n    maxCertificates = _maxCertificates;\n  }\n\n  function getCampaignBalance(uint256 _campaignId) public view returns (uint256) {\n    return campaignBalance[_campaignId];\n  }\n}",
  "sourcePath": "/home/hayek/proj/igave-contracts/contracts/dapp/IGVCampaign.sol",
  "compiler": {
    "name": "solc",
    "version": "0.4.19+commit.c4cbbb05.Emscripten.clang"
  },
  "schemaVersion": "1.0.1",
  "updatedAt": "2018-03-20T08:16:01.408Z"
}