{
  "contractName": "IGVCampaign",
  "abi": [
    {
      "constant": true,
      "inputs": [],
      "name": "name",
      "outputs": [
        {
          "name": "_name",
          "type": "string"
        }
      ],
      "payable": false,
      "stateMutability": "pure",
      "type": "function"
    },
    {
      "constant": false,
      "inputs": [
        {
          "name": "_to",
          "type": "address"
        },
        {
          "name": "_tokenId",
          "type": "uint256"
        }
      ],
      "name": "approve",
      "outputs": [],
      "payable": false,
      "stateMutability": "nonpayable",
      "type": "function"
    },
    {
      "constant": true,
      "inputs": [],
      "name": "totalSupply",
      "outputs": [
        {
          "name": "",
          "type": "uint256"
        }
      ],
      "payable": false,
      "stateMutability": "view",
      "type": "function"
    },
    {
      "constant": true,
      "inputs": [
        {
          "name": "_tokenId",
          "type": "uint256"
        }
      ],
      "name": "approvedFor",
      "outputs": [
        {
          "name": "",
          "type": "address"
        }
      ],
      "payable": false,
      "stateMutability": "view",
      "type": "function"
    },
    {
      "constant": true,
      "inputs": [
        {
          "name": "",
          "type": "address"
        }
      ],
      "name": "campaignOwnerTotalCampaigns",
      "outputs": [
        {
          "name": "",
          "type": "uint256"
        }
      ],
      "payable": false,
      "stateMutability": "view",
      "type": "function"
    },
    {
      "constant": true,
      "inputs": [
        {
          "name": "_owner",
          "type": "address"
        }
      ],
      "name": "tokensOf",
      "outputs": [
        {
          "name": "",
          "type": "uint256[]"
        }
      ],
      "payable": false,
      "stateMutability": "view",
      "type": "function"
    },
    {
      "constant": true,
      "inputs": [
        {
          "name": "_tokenId",
          "type": "uint256"
        }
      ],
      "name": "ownerOf",
      "outputs": [
        {
          "name": "",
          "type": "address"
        }
      ],
      "payable": false,
      "stateMutability": "view",
      "type": "function"
    },
    {
      "constant": true,
      "inputs": [
        {
          "name": "_owner",
          "type": "address"
        }
      ],
      "name": "balanceOf",
      "outputs": [
        {
          "name": "",
          "type": "uint256"
        }
      ],
      "payable": false,
      "stateMutability": "view",
      "type": "function"
    },
    {
      "constant": true,
      "inputs": [
        {
          "name": "",
          "type": "uint256"
        }
      ],
      "name": "campaignCertificateCount",
      "outputs": [
        {
          "name": "",
          "type": "uint64"
        }
      ],
      "payable": false,
      "stateMutability": "view",
      "type": "function"
    },
    {
      "constant": true,
      "inputs": [
        {
          "name": "",
          "type": "address"
        },
        {
          "name": "",
          "type": "uint256"
        }
      ],
      "name": "campaignOwnerToIndexes",
      "outputs": [
        {
          "name": "",
          "type": "uint256"
        }
      ],
      "payable": false,
      "stateMutability": "view",
      "type": "function"
    },
    {
      "constant": true,
      "inputs": [],
      "name": "symbol",
      "outputs": [
        {
          "name": "_symbol",
          "type": "string"
        }
      ],
      "payable": false,
      "stateMutability": "pure",
      "type": "function"
    },
    {
      "constant": true,
      "inputs": [
        {
          "name": "",
          "type": "uint256"
        },
        {
          "name": "",
          "type": "uint256"
        }
      ],
      "name": "campaignCertificates",
      "outputs": [
        {
          "name": "campaignId",
          "type": "uint256"
        },
        {
          "name": "price",
          "type": "uint256"
        },
        {
          "name": "supply",
          "type": "uint16"
        },
        {
          "name": "remaining",
          "type": "uint16"
        },
        {
          "name": "name",
          "type": "string"
        }
      ],
      "payable": false,
      "stateMutability": "view",
      "type": "function"
    },
    {
      "constant": false,
      "inputs": [
        {
          "name": "_to",
          "type": "address"
        },
        {
          "name": "_tokenId",
          "type": "uint256"
        }
      ],
      "name": "transfer",
      "outputs": [],
      "payable": false,
      "stateMutability": "nonpayable",
      "type": "function"
    },
    {
      "constant": false,
      "inputs": [
        {
          "name": "_tokenId",
          "type": "uint256"
        }
      ],
      "name": "takeOwnership",
      "outputs": [],
      "payable": false,
      "stateMutability": "nonpayable",
      "type": "function"
    },
    {
      "constant": true,
      "inputs": [
        {
          "name": "",
          "type": "uint256"
        }
      ],
      "name": "campaignBalance",
      "outputs": [
        {
          "name": "",
          "type": "uint256"
        }
      ],
      "payable": false,
      "stateMutability": "view",
      "type": "function"
    },
    {
      "constant": true,
      "inputs": [
        {
          "name": "",
          "type": "uint256"
        }
      ],
      "name": "campaignIndexToOwner",
      "outputs": [
        {
          "name": "",
          "type": "address"
        }
      ],
      "payable": false,
      "stateMutability": "view",
      "type": "function"
    },
    {
      "anonymous": false,
      "inputs": [
        {
          "indexed": true,
          "name": "owner",
          "type": "address"
        },
        {
          "indexed": false,
          "name": "campaignId",
          "type": "uint256"
        }
      ],
      "name": "CreateCampaign",
      "type": "event"
    },
    {
      "anonymous": false,
      "inputs": [
        {
          "indexed": true,
          "name": "campaignId",
          "type": "uint256"
        },
        {
          "indexed": false,
          "name": "name",
          "type": "string"
        }
      ],
      "name": "CreateCertificate",
      "type": "event"
    },
    {
      "anonymous": false,
      "inputs": [
        {
          "indexed": false,
          "name": "campaignId",
          "type": "uint256"
        },
        {
          "indexed": false,
          "name": "certificateIdx",
          "type": "uint16"
        },
        {
          "indexed": false,
          "name": "remaining",
          "type": "uint16"
        },
        {
          "indexed": false,
          "name": "price",
          "type": "uint256"
        }
      ],
      "name": "CreateToken",
      "type": "event"
    },
    {
      "anonymous": false,
      "inputs": [
        {
          "indexed": true,
          "name": "_from",
          "type": "address"
        },
        {
          "indexed": true,
          "name": "_to",
          "type": "address"
        },
        {
          "indexed": false,
          "name": "_tokenId",
          "type": "uint256"
        }
      ],
      "name": "Transfer",
      "type": "event"
    },
    {
      "anonymous": false,
      "inputs": [
        {
          "indexed": true,
          "name": "_owner",
          "type": "address"
        },
        {
          "indexed": true,
          "name": "_approved",
          "type": "address"
        },
        {
          "indexed": false,
          "name": "_tokenId",
          "type": "uint256"
        }
      ],
      "name": "Approval",
      "type": "event"
    },
    {
      "constant": true,
      "inputs": [
        {
          "name": "_id",
          "type": "uint256"
        }
      ],
      "name": "getCampaign",
      "outputs": [
        {
          "name": "owner",
          "type": "address"
        },
        {
          "name": "campaignName",
          "type": "string"
        },
        {
          "name": "taxId",
          "type": "string"
        },
        {
          "name": "active",
          "type": "bool"
        },
        {
          "name": "veto",
          "type": "bool"
        }
      ],
      "payable": false,
      "stateMutability": "view",
      "type": "function"
    },
    {
      "constant": true,
      "inputs": [
        {
          "name": "_campaignId",
          "type": "uint256"
        },
        {
          "name": "_certificateIdx",
          "type": "uint64"
        }
      ],
      "name": "getCertificate",
      "outputs": [
        {
          "name": "campaignId",
          "type": "uint256"
        },
        {
          "name": "supply",
          "type": "uint64"
        },
        {
          "name": "remaining",
          "type": "uint64"
        },
        {
          "name": "name",
          "type": "string"
        },
        {
          "name": "price",
          "type": "uint256"
        }
      ],
      "payable": false,
      "stateMutability": "view",
      "type": "function"
    },
    {
      "constant": true,
      "inputs": [
        {
          "name": "_id",
          "type": "uint256"
        }
      ],
      "name": "getToken",
      "outputs": [
        {
          "name": "campaignId",
          "type": "uint256"
        },
        {
          "name": "value",
          "type": "uint256"
        },
        {
          "name": "unitNumber",
          "type": "uint16"
        },
        {
          "name": "purchaser",
          "type": "address"
        },
        {
          "name": "certificateIdx",
          "type": "uint16"
        }
      ],
      "payable": false,
      "stateMutability": "view",
      "type": "function"
    },
    {
      "constant": true,
      "inputs": [
        {
          "name": "_owner",
          "type": "address"
        }
      ],
      "name": "getTotalCampaignsForOwner",
      "outputs": [
        {
          "name": "total",
          "type": "uint256"
        }
      ],
      "payable": false,
      "stateMutability": "view",
      "type": "function"
    },
    {
      "constant": true,
      "inputs": [
        {
          "name": "_owner",
          "type": "address"
        },
        {
          "name": "_index",
          "type": "uint256"
        }
      ],
      "name": "getCampaignIdByOwnerIndex",
      "outputs": [
        {
          "name": "id",
          "type": "uint256"
        }
      ],
      "payable": false,
      "stateMutability": "view",
      "type": "function"
    },
    {
      "constant": true,
      "inputs": [],
      "name": "totalCampaigns",
      "outputs": [
        {
          "name": "",
          "type": "uint256"
        }
      ],
      "payable": false,
      "stateMutability": "view",
      "type": "function"
    },
    {
      "constant": true,
      "inputs": [
        {
          "name": "_campaignId",
          "type": "uint256"
        }
      ],
      "name": "getCampaignBalance",
      "outputs": [
        {
          "name": "",
          "type": "uint256"
        }
      ],
      "payable": false,
      "stateMutability": "view",
      "type": "function"
    },
    {
      "constant": false,
      "inputs": [
        {
          "name": "_campaignId",
          "type": "uint256"
        }
      ],
      "name": "withdrawCampaignBalance",
      "outputs": [],
      "payable": false,
      "stateMutability": "nonpayable",
      "type": "function"
    }
  ],
  "bytecode": "0x6060604052341561000f57600080fd5b611d928061001e6000396000f30060606040526004361061013e576000357c0100000000000000000000000000000000000000000000000000000000900463ffffffff16806302932f561461014357806306fdde031461016c578063095ea7b3146101fa57806318160ddd1461023c5780632a6dd48f146102655780632d85ea12146102c85780633da70bd5146103155780635598f8cc146103625780635a3f2672146104b35780636352211e1461054157806370a08231146105a457806381cdb4c3146105f157806390722b75146106e4578063914175421461072f57806395d89b4114610785578063a5f8777514610813578063a9059cbb14610901578063ae18e08314610943578063b2e6ceeb14610966578063bd6c67e914610989578063ced3c6ad146109c0578063e4b50cb814610a23578063eb044b9714610ab2578063fea62cae14610ae9575b600080fd5b341561014e57600080fd5b610156610b3f565b6040518082815260200191505060405180910390f35b341561017757600080fd5b61017f610b4c565b6040518080602001828103825283818151815260200191508051906020019080838360005b838110156101bf5780820151818401526020810190506101a4565b50505050905090810190601f1680156101ec5780820380516001836020036101000a031916815260200191505b509250505060405180910390f35b341561020557600080fd5b61023a600480803573ffffffffffffffffffffffffffffffffffffffff16906020019091908035906020019091905050610b8f565b005b341561024757600080fd5b61024f610d22565b6040518082815260200191505060405180910390f35b341561027057600080fd5b6102866004808035906020019091905050610d2b565b604051808273ffffffffffffffffffffffffffffffffffffffff1673ffffffffffffffffffffffffffffffffffffffff16815260200191505060405180910390f35b34156102d357600080fd5b6102ff600480803573ffffffffffffffffffffffffffffffffffffffff16906020019091905050610d68565b6040518082815260200191505060405180910390f35b341561032057600080fd5b61034c600480803573ffffffffffffffffffffffffffffffffffffffff16906020019091905050610db1565b6040518082815260200191505060405180910390f35b341561036d57600080fd5b6103836004808035906020019091905050610dc9565b604051808673ffffffffffffffffffffffffffffffffffffffff1673ffffffffffffffffffffffffffffffffffffffff16815260200180602001806020018515151515815260200184151515158152602001838103835287818151815260200191508051906020019080838360005b8381101561040d5780820151818401526020810190506103f2565b50505050905090810190601f16801561043a5780820380516001836020036101000a031916815260200191505b50838103825286818151815260200191508051906020019080838360005b83811015610473578082015181840152602081019050610458565b50505050905090810190601f1680156104a05780820380516001836020036101000a031916815260200191505b5097505050505050505060405180910390f35b34156104be57600080fd5b6104ea600480803573ffffffffffffffffffffffffffffffffffffffff16906020019091905050610f96565b6040518080602001828103825283818151815260200191508051906020019060200280838360005b8381101561052d578082015181840152602081019050610512565b505050509050019250505060405180910390f35b341561054c57600080fd5b6105626004808035906020019091905050611033565b604051808273ffffffffffffffffffffffffffffffffffffffff1673ffffffffffffffffffffffffffffffffffffffff16815260200191505060405180910390f35b34156105af57600080fd5b6105db600480803573ffffffffffffffffffffffffffffffffffffffff169060200190919050506110b1565b6040518082815260200191505060405180910390f35b34156105fc57600080fd5b610625600480803590602001909190803567ffffffffffffffff169060200190919050506110fd565b604051808681526020018567ffffffffffffffff1667ffffffffffffffff1681526020018467ffffffffffffffff1667ffffffffffffffff16815260200180602001838152602001828103825284818151815260200191508051906020019080838360005b838110156106a557808201518184015260208101905061068a565b50505050905090810190601f1680156106d25780820380516001836020036101000a031916815260200191505b50965050505050505060405180910390f35b34156106ef57600080fd5b6107056004808035906020019091905050611231565b604051808267ffffffffffffffff1667ffffffffffffffff16815260200191505060405180910390f35b341561073a57600080fd5b61076f600480803573ffffffffffffffffffffffffffffffffffffffff16906020019091908035906020019091905050611258565b6040518082815260200191505060405180910390f35b341561079057600080fd5b610798611289565b6040518080602001828103825283818151815260200191508051906020019080838360005b838110156107d85780820151818401526020810190506107bd565b50505050905090810190601f1680156108055780820380516001836020036101000a031916815260200191505b509250505060405180910390f35b341561081e57600080fd5b61083d60048080359060200190919080359060200190919050506112cc565b604051808681526020018581526020018461ffff1661ffff1681526020018361ffff1661ffff168152602001806020018281038252838181546001816001161561010002031660029004815260200191508054600181600116156101000203166002900480156108ee5780601f106108c3576101008083540402835291602001916108ee565b820191906000526020600020905b8154815290600101906020018083116108d157829003601f168201915b5050965050505050505060405180910390f35b341561090c57600080fd5b610941600480803573ffffffffffffffffffffffffffffffffffffffff16906020019091908035906020019091905050611339565b005b341561094e57600080fd5b610964600480803590602001909190505061138c565b005b341561097157600080fd5b610987600480803590602001909190505061149e565b005b341561099457600080fd5b6109aa60048080359060200190919050506114c9565b6040518082815260200191505060405180910390f35b34156109cb57600080fd5b6109e160048080359060200190919050506114e1565b604051808273ffffffffffffffffffffffffffffffffffffffff1673ffffffffffffffffffffffffffffffffffffffff16815260200191505060405180910390f35b3415610a2e57600080fd5b610a446004808035906020019091905050611514565b604051808681526020018581526020018461ffff1661ffff1681526020018373ffffffffffffffffffffffffffffffffffffffff1673ffffffffffffffffffffffffffffffffffffffff1681526020018261ffff1661ffff1681526020019550505050505060405180910390f35b3415610abd57600080fd5b610ad360048080359060200190919050506115a5565b6040518082815260200191505060405180910390f35b3415610af457600080fd5b610b29600480803573ffffffffffffffffffffffffffffffffffffffff169060200190919080359060200190919050506115c2565b6040518082815260200191505060405180910390f35b6000600580549050905090565b610b54611cc1565b6040805190810160405280600c81526020017f4920476176652041737365740000000000000000000000000000000000000000815250905090565b6000813373ffffffffffffffffffffffffffffffffffffffff16610bb282611033565b73ffffffffffffffffffffffffffffffffffffffff16141515610bd457600080fd5b610bdd83611033565b91508173ffffffffffffffffffffffffffffffffffffffff168473ffffffffffffffffffffffffffffffffffffffff1614151515610c1a57600080fd5b6000610c2584610d2b565b73ffffffffffffffffffffffffffffffffffffffff16141580610c5f575060008473ffffffffffffffffffffffffffffffffffffffff1614155b15610d1c57836002600085815260200190815260200160002060006101000a81548173ffffffffffffffffffffffffffffffffffffffff021916908373ffffffffffffffffffffffffffffffffffffffff1602179055508373ffffffffffffffffffffffffffffffffffffffff168273ffffffffffffffffffffffffffffffffffffffff167f8c5be1e5ebec7d5bd14f71427d1e84f3dd0314c0f7b2291e5b200ac8c7c3b925856040518082815260200191505060405180910390a35b50505050565b60008054905090565b60006002600083815260200190815260200160002060009054906101000a900473ffffffffffffffffffffffffffffffffffffffff169050919050565b6000600960008373ffffffffffffffffffffffffffffffffffffffff1673ffffffffffffffffffffffffffffffffffffffff168152602001908152602001600020549050919050565b60096020528060005260406000206000915090505481565b6000610dd3611cc1565b610ddb611cc1565b6000806000600587815481101515610def57fe5b906000526020600020906004020190508060000160009054906101000a900473ffffffffffffffffffffffffffffffffffffffff169550806001018054600181600116156101000203166002900480601f016020809104026020016040519081016040528092919081815260200182805460018160011615610100020316600290048015610ebe5780601f10610e9357610100808354040283529160200191610ebe565b820191906000526020600020905b815481529060010190602001808311610ea157829003601f168201915b50505050509450806002018054600181600116156101000203166002900480601f016020809104026020016040519081016040528092919081815260200182805460018160011615610100020316600290048015610f5d5780601f10610f3257610100808354040283529160200191610f5d565b820191906000526020600020905b815481529060010190602001808311610f4057829003601f168201915b505050505093508060030160009054906101000a900460ff1692508060030160019054906101000a900460ff1691505091939590929450565b610f9e611cd5565b600360008373ffffffffffffffffffffffffffffffffffffffff1673ffffffffffffffffffffffffffffffffffffffff16815260200190815260200160002080548060200260200160405190810160405280929190818152602001828054801561102757602002820191906000526020600020905b815481526020019060010190808311611013575b50505050509050919050565b6000806001600084815260200190815260200160002060009054906101000a900473ffffffffffffffffffffffffffffffffffffffff169050600073ffffffffffffffffffffffffffffffffffffffff168173ffffffffffffffffffffffffffffffffffffffff16141515156110a857600080fd5b80915050919050565b6000600360008373ffffffffffffffffffffffffffffffffffffffff1673ffffffffffffffffffffffffffffffffffffffff168152602001908152602001600020805490509050919050565b600080600061110a611cc1565b600080600b60008981526020019081526020016000208767ffffffffffffffff1681548110151561113757fe5b90600052602060002090600402019050806000015495508060020160009054906101000a900461ffff1661ffff1694508060020160029054906101000a900461ffff1661ffff169350806003018054600181600116156101000203166002900480601f0160208091040260200160405190810160405280929190818152602001828054600181600116156101000203166002900480156112185780601f106111ed57610100808354040283529160200191611218565b820191906000526020600020905b8154815290600101906020018083116111fb57829003601f168201915b5050505050925080600101549150509295509295909350565b600c6020528060005260406000206000915054906101000a900467ffffffffffffffff1681565b60086020528160005260406000208181548110151561127357fe5b9060005260206000209001600091509150505481565b611291611cc1565b6040805190810160405280600381526020017f493c330000000000000000000000000000000000000000000000000000000000815250905090565b600b602052816000526040600020818154811015156112e757fe5b9060005260206000209060040201600091509150508060000154908060010154908060020160009054906101000a900461ffff16908060020160029054906101000a900461ffff169080600301905085565b803373ffffffffffffffffffffffffffffffffffffffff1661135a82611033565b73ffffffffffffffffffffffffffffffffffffffff1614151561137c57600080fd5b611387338484611624565b505050565b6000808211151561139c57600080fd5b3373ffffffffffffffffffffffffffffffffffffffff166007600084815260200190815260200160002060009054906101000a900473ffffffffffffffffffffffffffffffffffffffff1673ffffffffffffffffffffffffffffffffffffffff1614151561140957600080fd5b6000600a60008481526020019081526020016000205411151561142b57600080fd5b600a60008381526020019081526020016000205490506000600a6000848152602001908152602001600020819055503373ffffffffffffffffffffffffffffffffffffffff166108fc829081150290604051600060405180830381858888f19350505050151561149a57600080fd5b5050565b6114a8338261176d565b15156114b357600080fd5b6114c66114bf82611033565b3383611624565b50565b600a6020528060005260406000206000915090505481565b60076020528060005260406000206000915054906101000a900473ffffffffffffffffffffffffffffffffffffffff1681565b60008060008060008060068781548110151561152c57fe5b9060005260206000209060030201905080600001549550806001015494508060020160149054906101000a900461ffff1693508060020160009054906101000a900473ffffffffffffffffffffffffffffffffffffffff1692508060020160169054906101000a900461ffff1691505091939590929450565b6000600a6000838152602001908152602001600020549050919050565b6000600860008473ffffffffffffffffffffffffffffffffffffffff1673ffffffffffffffffffffffffffffffffffffffff1681526020019081526020016000208281548110151561161057fe5b906000526020600020900154905092915050565b600073ffffffffffffffffffffffffffffffffffffffff168273ffffffffffffffffffffffffffffffffffffffff161415151561166057600080fd5b61166981611033565b73ffffffffffffffffffffffffffffffffffffffff168273ffffffffffffffffffffffffffffffffffffffff16141515156116a357600080fd5b8273ffffffffffffffffffffffffffffffffffffffff166116c382611033565b73ffffffffffffffffffffffffffffffffffffffff161415156116e557600080fd5b6116ef83826117ae565b6116f98382611897565b6117038282611b1f565b8173ffffffffffffffffffffffffffffffffffffffff168373ffffffffffffffffffffffffffffffffffffffff167fddf252ad1be2c89b69c2b068fc378daa952ba7f163c4a11628f55a4df523b3ef836040518082815260200191505060405180910390a3505050565b60008273ffffffffffffffffffffffffffffffffffffffff1661178f83610d2b565b73ffffffffffffffffffffffffffffffffffffffff1614905092915050565b8173ffffffffffffffffffffffffffffffffffffffff166117ce82611033565b73ffffffffffffffffffffffffffffffffffffffff161415156117f057600080fd5b60006002600083815260200190815260200160002060006101000a81548173ffffffffffffffffffffffffffffffffffffffff021916908373ffffffffffffffffffffffffffffffffffffffff16021790555060008273ffffffffffffffffffffffffffffffffffffffff167f8c5be1e5ebec7d5bd14f71427d1e84f3dd0314c0f7b2291e5b200ac8c7c3b925836040518082815260200191505060405180910390a35050565b60008060008473ffffffffffffffffffffffffffffffffffffffff166118bc85611033565b73ffffffffffffffffffffffffffffffffffffffff161415156118de57600080fd5b600460008581526020019081526020016000205492506119106001611902876110b1565b611c8a90919063ffffffff16565b9150600360008673ffffffffffffffffffffffffffffffffffffffff1673ffffffffffffffffffffffffffffffffffffffff1681526020019081526020016000208281548110151561195e57fe5b906000526020600020900154905060006001600086815260200190815260200160002060006101000a81548173ffffffffffffffffffffffffffffffffffffffff021916908373ffffffffffffffffffffffffffffffffffffffff16021790555080600360008773ffffffffffffffffffffffffffffffffffffffff1673ffffffffffffffffffffffffffffffffffffffff16815260200190815260200160002084815481101515611a0c57fe5b9060005260206000209001819055506000600360008773ffffffffffffffffffffffffffffffffffffffff1673ffffffffffffffffffffffffffffffffffffffff16815260200190815260200160002083815481101515611a6957fe5b906000526020600020900181905550600360008673ffffffffffffffffffffffffffffffffffffffff1673ffffffffffffffffffffffffffffffffffffffff168152602001908152602001600020805480919060019003611aca9190611ce9565b5060006004600086815260200190815260200160002081905550826004600083815260200190815260200160002081905550611b126001600054611c8a90919063ffffffff16565b6000819055505050505050565b60008073ffffffffffffffffffffffffffffffffffffffff166001600084815260200190815260200160002060009054906101000a900473ffffffffffffffffffffffffffffffffffffffff1673ffffffffffffffffffffffffffffffffffffffff16141515611b8e57600080fd5b826001600084815260200190815260200160002060006101000a81548173ffffffffffffffffffffffffffffffffffffffff021916908373ffffffffffffffffffffffffffffffffffffffff160217905550611be9836110b1565b9050600360008473ffffffffffffffffffffffffffffffffffffffff1673ffffffffffffffffffffffffffffffffffffffff1681526020019081526020016000208054806001018281611c3c9190611d15565b916000526020600020900160008490919091505550806004600084815260200190815260200160002081905550611c7f6001600054611ca390919063ffffffff16565b600081905550505050565b6000828211151515611c9857fe5b818303905092915050565b6000808284019050838110151515611cb757fe5b8091505092915050565b602060405190810160405280600081525090565b602060405190810160405280600081525090565b815481835581811511611d1057818360005260206000209182019101611d0f9190611d41565b5b505050565b815481835581811511611d3c57818360005260206000209182019101611d3b9190611d41565b5b505050565b611d6391905b80821115611d5f576000816000905550600101611d47565b5090565b905600a165627a7a72305820f36650351a922e25ef1780e0bed53b75514df692cfb1bfefa195ac4a59a815ff0029",
  "source": "pragma solidity 0.4.19;\n\nimport '../util/SafeMath.sol';\nimport './IGVAsset.sol';\n\ncontract IGVCampaign is IGVAsset {\n  Campaign[] campaigns;\n  Token[] tokens;\n\n  mapping (uint256 => address) public campaignIndexToOwner;\n  mapping (address => uint256[]) public campaignOwnerToIndexes;\n  mapping (address => uint256) public campaignOwnerTotalCampaigns;\n  mapping (uint256 => uint256) public campaignBalance;\n  mapping (uint256 => Certificate[]) public campaignCertificates;\n  mapping (uint256 => uint64) public campaignCertificateCount;\n\n  event CreateCampaign(address indexed owner, uint256 campaignId);\n  event CreateCertificate(uint256 indexed campaignId, string name);\n  event CreateToken(uint256 campaignId, uint16 certificateIdx, uint16 remaining, uint256 price);\n\n  struct Token {\n    uint256 campaignId;\n    uint256 value;\n    address purchaser;\n    uint16 unitNumber;\n    uint16 certificateIdx;\n  }\n\n  struct Campaign {\n    address owner;\n    string campaignName;\n    string taxId;\n    bool active;\n    bool veto;\n  }\n\n  struct Certificate {\n    uint256 campaignId;\n    uint256 price;\n    uint16 supply;\n    uint16 remaining;\n    string name;\n  }\n\n  function _createToken(\n    uint256 _campaignId,\n    uint16 _certificateIdx,\n    uint16 _unitNumber,\n    address _owner,\n    uint256 _value\n  )\n    internal\n    returns (uint)\n  {\n    Token memory _token = Token({\n      campaignId: _campaignId,\n      value: _value,\n      purchaser: _owner,\n      certificateIdx: _certificateIdx,\n      unitNumber: _unitNumber\n    });\n\n    campaignCertificates[_campaignId][_certificateIdx].remaining--;\n    uint256 newTokenId = tokens.push(_token);\n\n    _mint(_owner, newTokenId);\n\n    return newTokenId;\n  }\n\n\n  function _createCampaign(\n    address _owner,\n    string _campaignName,\n    string _taxId\n  )\n    internal\n    returns (uint)\n  {\n    Campaign memory _campaign = Campaign({\n      owner: _owner,\n      campaignName: _campaignName,\n      taxId: _taxId,\n      active: false,\n      veto: false\n    });\n\n    uint256 newCampaignId = campaigns.push(_campaign);\n\n    campaignIndexToOwner[newCampaignId] = _owner;\n    campaignOwnerToIndexes[_owner].push(newCampaignId);\n    campaignOwnerTotalCampaigns[_owner] += 1;\n\n    CreateCampaign(_owner, newCampaignId);\n\n    return newCampaignId;\n  }\n\n  function _createCertificate(\n    uint256 _campaignId,\n    uint16 _supply,\n    string _name,\n    uint256 _price\n  )\n    internal\n    returns (uint)\n  {\n    require(campaignCertificateCount[_campaignId] < 65536);\n\n    Certificate memory _certificate = Certificate({\n      campaignId: _campaignId,\n      supply: _supply,\n      remaining: _supply,\n      name: _name,\n      price: _price\n    });\n\n    uint256 certificateIndex = campaignCertificates[_campaignId].push(_certificate);\n\n    campaignCertificateCount[_campaignId]++;\n\n    CreateCertificate(_campaignId, _name);\n\n    return certificateIndex;\n  }\n\n  // Views\n  function getCampaign(uint256 _id)\n    public\n    view\n    returns\n  (\n    address owner,\n    string campaignName,\n    string taxId,\n    bool active,\n    bool veto\n  ) {\n    Campaign storage campaign = campaigns[_id];\n\n    owner = campaign.owner;\n    campaignName = campaign.campaignName;\n    taxId = campaign.taxId;\n    active = campaign.active;\n    veto = campaign.veto;\n  }\n\n  function getCertificate(uint256 _campaignId, uint64 _certificateIdx)\n    public\n    view\n    returns\n  (\n    uint256 campaignId,\n    uint64 supply,\n    uint64 remaining,\n    string name,\n    uint256 price\n  ){\n\n    Certificate storage certificate = campaignCertificates[_campaignId][_certificateIdx];\n\n    campaignId = uint256(certificate.campaignId);\n    supply = uint64(certificate.supply);\n    remaining = uint64(certificate.remaining);\n    name = certificate.name;\n    price = uint256(certificate.price);\n  }\n\n  function getToken(uint256 _id)\n    public\n    view\n    returns\n  (\n    uint256 campaignId,\n    uint256 value,\n    uint16 unitNumber,\n    address purchaser,\n    uint16 certificateIdx\n  ){\n    Token storage token = tokens[_id];\n\n    campaignId = uint256(token.campaignId);\n    value = uint256(token.value);\n    unitNumber = uint16(token.unitNumber);\n    purchaser = address(token.purchaser);\n    certificateIdx = uint16(token.certificateIdx);\n  }\n\n  function getTotalCampaignsForOwner(address _owner)\n    public\n    view\n    returns (\n    uint256 total\n  ){\n    total = campaignOwnerTotalCampaigns[_owner];\n  }\n\n  function getCampaignIdByOwnerIndex(address _owner, uint256 _index)\n    public\n    view\n    returns\n  (\n    uint256 id\n  ){\n    id = campaignOwnerToIndexes[_owner][_index];\n  }\n\n  function totalCampaigns() public view returns (uint) {\n    return campaigns.length;\n  }\n\n  function getCampaignBalance(uint256 _campaignId) public view returns (uint256) {\n    return campaignBalance[_campaignId];\n  }\n\n  function withdrawCampaignBalance(uint256 _campaignId) public {\n    require(_campaignId >  0);\n    require(campaignIndexToOwner[_campaignId] == msg.sender);\n    require(campaignBalance[_campaignId] > 0);\n    uint256 _balance = campaignBalance[_campaignId];\n    campaignBalance[_campaignId] = 0;\n    msg.sender.transfer(_balance);\n  }\n}",
  "sourcePath": "/home/hayek/proj/igave-contracts/contracts/dapp/IGVCampaign.sol",
  "compiler": {
    "name": "solc",
    "version": "0.4.19+commit.c4cbbb05.Emscripten.clang"
  },
  "schemaVersion": "1.0.1",
  "updatedAt": "2018-03-18T17:32:25.715Z"
}