{
  "contractName": "IGVCore",
  "abi": [
    {
      "constant": true,
      "inputs": [],
      "name": "totalCampaigns",
      "outputs": [
        {
          "name": "",
          "type": "uint256"
        }
      ],
      "payable": false,
      "stateMutability": "view",
      "type": "function"
    },
    {
      "constant": true,
      "inputs": [],
      "name": "campaignEscrowAmount",
      "outputs": [
        {
          "name": "",
          "type": "uint256"
        }
      ],
      "payable": false,
      "stateMutability": "view",
      "type": "function"
    },
    {
      "constant": true,
      "inputs": [
        {
          "name": "",
          "type": "address"
        }
      ],
      "name": "campaignOwnerTotalCampaigns",
      "outputs": [
        {
          "name": "",
          "type": "uint256"
        }
      ],
      "payable": false,
      "stateMutability": "view",
      "type": "function"
    },
    {
      "constant": true,
      "inputs": [],
      "name": "founderAddress",
      "outputs": [
        {
          "name": "",
          "type": "address"
        }
      ],
      "payable": false,
      "stateMutability": "view",
      "type": "function"
    },
    {
      "constant": true,
      "inputs": [],
      "name": "ownerAddress",
      "outputs": [
        {
          "name": "",
          "type": "address"
        }
      ],
      "payable": false,
      "stateMutability": "view",
      "type": "function"
    },
    {
      "constant": true,
      "inputs": [
        {
          "name": "_campaignId",
          "type": "uint256"
        }
      ],
      "name": "campaignCertificateCount",
      "outputs": [
        {
          "name": "",
          "type": "uint64"
        }
      ],
      "payable": false,
      "stateMutability": "view",
      "type": "function"
    },
    {
      "constant": true,
      "inputs": [
        {
          "name": "",
          "type": "address"
        },
        {
          "name": "",
          "type": "uint256"
        }
      ],
      "name": "campaignOwnerToIndexes",
      "outputs": [
        {
          "name": "",
          "type": "uint256"
        }
      ],
      "payable": false,
      "stateMutability": "view",
      "type": "function"
    },
    {
      "constant": true,
      "inputs": [
        {
          "name": "",
          "type": "uint256"
        },
        {
          "name": "",
          "type": "uint256"
        }
      ],
      "name": "campaignCertificates",
      "outputs": [
        {
          "name": "campaignId",
          "type": "uint256"
        },
        {
          "name": "price",
          "type": "uint256"
        },
        {
          "name": "supply",
          "type": "uint16"
        },
        {
          "name": "remaining",
          "type": "uint16"
        },
        {
          "name": "name",
          "type": "string"
        }
      ],
      "payable": false,
      "stateMutability": "view",
      "type": "function"
    },
    {
      "constant": true,
      "inputs": [
        {
          "name": "",
          "type": "uint256"
        }
      ],
      "name": "campaignBalance",
      "outputs": [
        {
          "name": "",
          "type": "uint256"
        }
      ],
      "payable": false,
      "stateMutability": "view",
      "type": "function"
    },
    {
      "constant": true,
      "inputs": [],
      "name": "totalRaised",
      "outputs": [
        {
          "name": "",
          "type": "uint256"
        }
      ],
      "payable": false,
      "stateMutability": "view",
      "type": "function"
    },
    {
      "constant": true,
      "inputs": [
        {
          "name": "",
          "type": "uint256"
        }
      ],
      "name": "campaignIndexToOwner",
      "outputs": [
        {
          "name": "",
          "type": "address"
        }
      ],
      "payable": false,
      "stateMutability": "view",
      "type": "function"
    },
    {
      "inputs": [],
      "payable": false,
      "stateMutability": "nonpayable",
      "type": "constructor"
    },
    {
      "anonymous": false,
      "inputs": [
        {
          "indexed": true,
          "name": "owner",
          "type": "address"
        },
        {
          "indexed": false,
          "name": "campaignId",
          "type": "uint256"
        }
      ],
      "name": "CreateCampaign",
      "type": "event"
    },
    {
      "anonymous": false,
      "inputs": [
        {
          "indexed": true,
          "name": "campaignId",
          "type": "uint256"
        },
        {
          "indexed": false,
          "name": "name",
          "type": "string"
        }
      ],
      "name": "CreateCertificate",
      "type": "event"
    },
    {
      "anonymous": false,
      "inputs": [
        {
          "indexed": false,
          "name": "campaignId",
          "type": "uint256"
        },
        {
          "indexed": false,
          "name": "certificateIdx",
          "type": "uint16"
        },
        {
          "indexed": false,
          "name": "remaining",
          "type": "uint16"
        },
        {
          "indexed": false,
          "name": "price",
          "type": "uint256"
        }
      ],
      "name": "CreateToken",
      "type": "event"
    },
    {
      "constant": false,
      "inputs": [
        {
          "name": "_campaignName",
          "type": "string"
        },
        {
          "name": "_taxid",
          "type": "string"
        }
      ],
      "name": "createCampaign",
      "outputs": [
        {
          "name": "",
          "type": "uint256"
        }
      ],
      "payable": true,
      "stateMutability": "payable",
      "type": "function"
    },
    {
      "constant": false,
      "inputs": [
        {
          "name": "_campaignId",
          "type": "uint256"
        },
        {
          "name": "_supply",
          "type": "uint16"
        },
        {
          "name": "_name",
          "type": "string"
        },
        {
          "name": "_price",
          "type": "uint256"
        }
      ],
      "name": "createCertificate",
      "outputs": [
        {
          "name": "",
          "type": "uint256"
        }
      ],
      "payable": false,
      "stateMutability": "nonpayable",
      "type": "function"
    },
    {
      "constant": false,
      "inputs": [
        {
          "name": "_campaignId",
          "type": "uint128"
        },
        {
          "name": "_certificateIdx",
          "type": "uint16"
        }
      ],
      "name": "createToken",
      "outputs": [],
      "payable": true,
      "stateMutability": "payable",
      "type": "function"
    },
    {
      "constant": false,
      "inputs": [
        {
          "name": "_campaignId",
          "type": "uint256"
        }
      ],
      "name": "vetoCampaign",
      "outputs": [],
      "payable": false,
      "stateMutability": "nonpayable",
      "type": "function"
    },
    {
      "constant": true,
      "inputs": [
        {
          "name": "_id",
          "type": "uint256"
        }
      ],
      "name": "getCampaign",
      "outputs": [
        {
          "name": "owner",
          "type": "address"
        },
        {
          "name": "campaignName",
          "type": "string"
        },
        {
          "name": "taxId",
          "type": "string"
        },
        {
          "name": "active",
          "type": "bool"
        },
        {
          "name": "veto",
          "type": "bool"
        }
      ],
      "payable": false,
      "stateMutability": "view",
      "type": "function"
    },
    {
      "constant": true,
      "inputs": [
        {
          "name": "_campaignId",
          "type": "uint256"
        },
        {
          "name": "_certificateIdx",
          "type": "uint64"
        }
      ],
      "name": "getCertificate",
      "outputs": [
        {
          "name": "campaignId",
          "type": "uint256"
        },
        {
          "name": "supply",
          "type": "uint64"
        },
        {
          "name": "remaining",
          "type": "uint64"
        },
        {
          "name": "name",
          "type": "string"
        },
        {
          "name": "price",
          "type": "uint256"
        }
      ],
      "payable": false,
      "stateMutability": "view",
      "type": "function"
    },
    {
      "constant": false,
      "inputs": [
        {
          "name": "_id",
          "type": "uint256"
        }
      ],
      "name": "getToken",
      "outputs": [],
      "payable": false,
      "stateMutability": "nonpayable",
      "type": "function"
    },
    {
      "constant": true,
      "inputs": [
        {
          "name": "_owner",
          "type": "address"
        }
      ],
      "name": "getTotalCampaignsForOwner",
      "outputs": [
        {
          "name": "total",
          "type": "uint256"
        }
      ],
      "payable": false,
      "stateMutability": "view",
      "type": "function"
    },
    {
      "constant": true,
      "inputs": [
        {
          "name": "_owner",
          "type": "address"
        },
        {
          "name": "_index",
          "type": "uint256"
        }
      ],
      "name": "getCampaignIdByOwnerIndex",
      "outputs": [
        {
          "name": "id",
          "type": "uint256"
        }
      ],
      "payable": false,
      "stateMutability": "view",
      "type": "function"
    },
    {
      "constant": false,
      "inputs": [
        {
          "name": "_campaignEscrowAmount",
          "type": "uint64"
        }
      ],
      "name": "changeEscrowAmount",
      "outputs": [],
      "payable": false,
      "stateMutability": "nonpayable",
      "type": "function"
    },
    {
      "constant": false,
      "inputs": [
        {
          "name": "_newOwner",
          "type": "address"
        }
      ],
      "name": "changeOwner",
      "outputs": [],
      "payable": false,
      "stateMutability": "nonpayable",
      "type": "function"
    }
  ],
  "bytecode": "0x60606040526000600a556000600b5534156200001a57600080fd5b33600860006101000a81548173ffffffffffffffffffffffffffffffffffffffff021916908373ffffffffffffffffffffffffffffffffffffffff16021790555033600960006101000a81548173ffffffffffffffffffffffffffffffffffffffff021916908373ffffffffffffffffffffffffffffffffffffffff1602179055506200010360006040805190810160405280601081526020017f47656e657369732043616d706169676e00000000000000000000000000000000815250602060405190810160405280600081525062000165640100000000026200171c176401000000009004565b506200015e600060016040805190810160405280601381526020017f47656e657369732043657274696669636174650000000000000000000000000081525060006200041364010000000002620014e4176401000000009004565b506200099a565b60006200017162000655565b600060a0604051908101604052808773ffffffffffffffffffffffffffffffffffffffff168152602001868152602001858152602001600015158152602001600015158152509150600160008054806001018281620001d19190620006af565b9160005260206000209060040201600085909190915060008201518160000160006101000a81548173ffffffffffffffffffffffffffffffffffffffff021916908373ffffffffffffffffffffffffffffffffffffffff16021790555060208201518160010190805190602001906200024c929190620006e4565b5060408201518160020190805190602001906200026b929190620006e4565b5060608201518160030160006101000a81548160ff02191690831515021790555060808201518160030160016101000a81548160ff0219169083151502179055505050039050856001600083815260200190815260200160002060006101000a81548173ffffffffffffffffffffffffffffffffffffffff021916908373ffffffffffffffffffffffffffffffffffffffff160217905550600260008773ffffffffffffffffffffffffffffffffffffffff1673ffffffffffffffffffffffffffffffffffffffff16815260200190815260200160002080548060010182816200035691906200076b565b9160005260206000209001600083909190915055506001600360008873ffffffffffffffffffffffffffffffffffffffff1673ffffffffffffffffffffffffffffffffffffffff168152602001908152602001600020600082825401925050819055508573ffffffffffffffffffffffffffffffffffffffff167f8947cb78db2ffa53132a4e627ea0e20920cf6edd68b7b07989687e1a28e0bac7826040518082815260200191505060405180910390a280925050509392505050565b60006200041f6200079a565b6000620100006006600089815260200190815260200160002060009054906101000a900467ffffffffffffffff1667ffffffffffffffff161015156200046457600080fd5b60a0604051908101604052808881526020018581526020018761ffff1681526020018761ffff168152602001868152509150600560008881526020019081526020016000208054806001018281620004bd9190620007da565b91600052602060002090600402016000849091909150600082015181600001556020820151816001015560408201518160020160006101000a81548161ffff021916908361ffff16021790555060608201518160020160026101000a81548161ffff021916908361ffff16021790555060808201518160030190805190602001906200054b929190620006e4565b505050905060066000888152602001908152602001600020600081819054906101000a900467ffffffffffffffff168092919060010191906101000a81548167ffffffffffffffff021916908367ffffffffffffffff16021790555050867fbcc78462243df19ab0f6e9bff38bc47cc381cc4600d2e33e08232d5f78e0e893866040518080602001828103825283818151815260200191508051906020019080838360005b838110156200060d578082015181840152602081019050620005f0565b50505050905090810190601f1680156200063b5780820380516001836020036101000a031916815260200191505b509250505060405180910390a28092505050949350505050565b60a060405190810160405280600073ffffffffffffffffffffffffffffffffffffffff168152602001620006886200080f565b8152602001620006976200080f565b81526020016000151581526020016000151581525090565b815481835581811511620006df57600402816004028360005260206000209182019101620006de919062000823565b5b505050565b828054600181600116156101000203166002900490600052602060002090601f016020900481019282601f106200072757805160ff191683800117855562000758565b8280016001018555821562000758579182015b82811115620007575782518255916020019190600101906200073a565b5b509050620007679190620008b8565b5090565b8154818355818115116200079557818360005260206000209182019101620007949190620008b8565b5b505050565b60a0604051908101604052806000815260200160008152602001600061ffff168152602001600061ffff168152602001620007d46200080f565b81525090565b8154818355818115116200080a57600402816004028360005260206000209182019101620008099190620008e0565b5b505050565b602060405190810160405280600081525090565b620008b591905b80821115620008b157600080820160006101000a81549073ffffffffffffffffffffffffffffffffffffffff02191690556001820160006200086d91906200094e565b6002820160006200087f91906200094e565b6003820160006101000a81549060ff02191690556003820160016101000a81549060ff0219169055506004016200082a565b5090565b90565b620008dd91905b80821115620008d9576000816000905550600101620008bf565b5090565b90565b6200094b91905b80821115620009475760008082016000905560018201600090556002820160006101000a81549061ffff02191690556002820160026101000a81549061ffff02191690556003820160006200093d91906200094e565b50600401620008e7565b5090565b90565b50805460018160011615610100020316600290046000825580601f1062000976575062000997565b601f016020900490600052602060002090810190620009969190620008b8565b5b50565b611d1c80620009aa6000396000f300606060405260043610610128576000357c0100000000000000000000000000000000000000000000000000000000900463ffffffff16806302932f561461012d57806317307134146101565780632d85ea121461017f5780633da70bd5146101cc57806346bb2833146102195780634be71f181461026e5780635598f8cc146102fe5780635cceb24b1461044f5780636f33a98a1461047c57806381cdb4c3146104b35780638f84aa09146105a657806390722b75146105fb5780639141754214610646578063a5f877751461069c578063a6f9dae11461078a578063b2cdc6ff146107c3578063bd6c67e9146107e6578063c5c4744c1461081d578063ced3c6ad14610846578063e4b50cb8146108a9578063fce3f6ac146108cc578063fea62cae14610975575b600080fd5b341561013857600080fd5b6101406109cb565b6040518082815260200191505060405180910390f35b341561016157600080fd5b6101696109db565b6040518082815260200191505060405180910390f35b341561018a57600080fd5b6101b6600480803573ffffffffffffffffffffffffffffffffffffffff169060200190919050506109e1565b6040518082815260200191505060405180910390f35b34156101d757600080fd5b610203600480803573ffffffffffffffffffffffffffffffffffffffff16906020019091905050610a2a565b6040518082815260200191505060405180910390f35b341561022457600080fd5b61022c610a42565b604051808273ffffffffffffffffffffffffffffffffffffffff1673ffffffffffffffffffffffffffffffffffffffff16815260200191505060405180910390f35b341561027957600080fd5b6102e8600480803590602001909190803561ffff1690602001909190803590602001908201803590602001908080601f01602080910402602001604051908101604052809392919081815260200183838082843782019150505050505091908035906020019091905050610a68565b6040518082815260200191505060405180910390f35b341561030957600080fd5b61031f6004808035906020019091905050610b41565b604051808673ffffffffffffffffffffffffffffffffffffffff1673ffffffffffffffffffffffffffffffffffffffff16815260200180602001806020018515151515815260200184151515158152602001838103835287818151815260200191508051906020019080838360005b838110156103a957808201518184015260208101905061038e565b50505050905090810190601f1680156103d65780820380516001836020036101000a031916815260200191505b50838103825286818151815260200191508051906020019080838360005b8381101561040f5780820151818401526020810190506103f4565b50505050905090810190601f16801561043c5780820380516001836020036101000a031916815260200191505b5097505050505050505060405180910390f35b341561045a57600080fd5b61047a600480803567ffffffffffffffff16906020019091905050610d0d565b005b6104b160048080356fffffffffffffffffffffffffffffffff1690602001909190803561ffff16906020019091905050610d7f565b005b34156104be57600080fd5b6104e7600480803590602001909190803567ffffffffffffffff16906020019091905050610ef3565b604051808681526020018567ffffffffffffffff1667ffffffffffffffff1681526020018467ffffffffffffffff1667ffffffffffffffff16815260200180602001838152602001828103825284818151815260200191508051906020019080838360005b8381101561056757808201518184015260208101905061054c565b50505050905090810190601f1680156105945780820380516001836020036101000a031916815260200191505b50965050505050505060405180910390f35b34156105b157600080fd5b6105b9611027565b604051808273ffffffffffffffffffffffffffffffffffffffff1673ffffffffffffffffffffffffffffffffffffffff16815260200191505060405180910390f35b341561060657600080fd5b61061c600480803590602001909190505061104d565b604051808267ffffffffffffffff1667ffffffffffffffff16815260200191505060405180910390f35b341561065157600080fd5b610686600480803573ffffffffffffffffffffffffffffffffffffffff1690602001909190803590602001909190505061107e565b6040518082815260200191505060405180910390f35b34156106a757600080fd5b6106c660048080359060200190919080359060200190919050506110af565b604051808681526020018581526020018461ffff1661ffff1681526020018361ffff1661ffff168152602001806020018281038252838181546001816001161561010002031660029004815260200191508054600181600116156101000203166002900480156107775780601f1061074c57610100808354040283529160200191610777565b820191906000526020600020905b81548152906001019060200180831161075a57829003601f168201915b5050965050505050505060405180910390f35b341561079557600080fd5b6107c1600480803573ffffffffffffffffffffffffffffffffffffffff1690602001909190505061111c565b005b34156107ce57600080fd5b6107e460048080359060200190919050506111be565b005b34156107f157600080fd5b6108076004808035906020019091905050611409565b6040518082815260200191505060405180910390f35b341561082857600080fd5b610830611421565b6040518082815260200191505060405180910390f35b341561085157600080fd5b6108676004808035906020019091905050611427565b604051808273ffffffffffffffffffffffffffffffffffffffff1673ffffffffffffffffffffffffffffffffffffffff16815260200191505060405180910390f35b34156108b457600080fd5b6108ca600480803590602001909190505061145a565b005b61095f600480803590602001908201803590602001908080601f0160208091040260200160405190810160405280939291908181526020018383808284378201915050505050509190803590602001908201803590602001908080601f0160208091040260200160405190810160405280939291908181526020018383808284378201915050505050509190505061145d565b6040518082815260200191505060405180910390f35b341561098057600080fd5b6109b5600480803573ffffffffffffffffffffffffffffffffffffffff16906020019091908035906020019091905050611482565b6040518082815260200191505060405180910390f35b6000600160008054905003905090565b600a5481565b6000600360008373ffffffffffffffffffffffffffffffffffffffff1673ffffffffffffffffffffffffffffffffffffffff168152602001908152602001600020549050919050565b60036020528060005260406000206000915090505481565b600860009054906101000a900473ffffffffffffffffffffffffffffffffffffffff1681565b6000803373ffffffffffffffffffffffffffffffffffffffff166001600088815260200190815260200160002060009054906101000a900473ffffffffffffffffffffffffffffffffffffffff1673ffffffffffffffffffffffffffffffffffffffff16141515610ad857600080fd5b600086111515610ae757600080fd5b600086815481101515610af657fe5b90600052602060002090600402019050600015158160030160019054906101000a900460ff161515141515610b2a57600080fd5b610b36868686866114e4565b915050949350505050565b6000610b4b6119c0565b610b536119c0565b60008060008087815481101515610b6657fe5b906000526020600020906004020190508060000160009054906101000a900473ffffffffffffffffffffffffffffffffffffffff169550806001018054600181600116156101000203166002900480601f016020809104026020016040519081016040528092919081815260200182805460018160011615610100020316600290048015610c355780601f10610c0a57610100808354040283529160200191610c35565b820191906000526020600020905b815481529060010190602001808311610c1857829003601f168201915b50505050509450806002018054600181600116156101000203166002900480601f016020809104026020016040519081016040528092919081815260200182805460018160011615610100020316600290048015610cd45780601f10610ca957610100808354040283529160200191610cd4565b820191906000526020600020905b815481529060010190602001808311610cb757829003601f168201915b505050505093508060030160009054906101000a900460ff1691508060030160019054906101000a900460ff1691505091939590929450565b600960009054906101000a900473ffffffffffffffffffffffffffffffffffffffff168073ffffffffffffffffffffffffffffffffffffffff163373ffffffffffffffffffffffffffffffffffffffff16141515610d6a57600080fd5b8167ffffffffffffffff16600a819055505050565b600080600080856fffffffffffffffffffffffffffffffff16815481101515610da457fe5b90600052602060002090600402019250600115158360030160009054906101000a900460ff161515141515610dd857600080fd5b600015158360030160019054906101000a900460ff161515141515610dfc57600080fd5b60056000866fffffffffffffffffffffffffffffffff1681526020019081526020016000208461ffff16815481101515610e3257fe5b9060005260206000209060040201915060008260020160029054906101000a900461ffff1661ffff16111515610e6757600080fd5b816001015434141515610e7957600080fd5b60018260020160029054906101000a900461ffff168360020160009054906101000a900461ffff16030161ffff1690503460046000876fffffffffffffffffffffffffffffffff1681526020019081526020016000206000828254019250508190555034600b600082825401925050819055505050505050565b6000806000610f006119c0565b600080600560008981526020019081526020016000208767ffffffffffffffff16815481101515610f2d57fe5b90600052602060002090600402019050806000015495508060020160009054906101000a900461ffff1661ffff1694508060020160029054906101000a900461ffff1661ffff169350806003018054600181600116156101000203166002900480601f01602080910402602001604051908101604052809291908181526020018280546001816001161561010002031660029004801561100e5780601f10610fe35761010080835404028352916020019161100e565b820191906000526020600020905b815481529060010190602001808311610ff157829003601f168201915b5050505050925080600101549150509295509295909350565b600960009054906101000a900473ffffffffffffffffffffffffffffffffffffffff1681565b60006006600083815260200190815260200160002060009054906101000a900467ffffffffffffffff169050919050565b60026020528160005260406000208181548110151561109957fe5b9060005260206000209001600091509150505481565b6005602052816000526040600020818154811015156110ca57fe5b9060005260206000209060040201600091509150508060000154908060010154908060020160009054906101000a900461ffff16908060020160029054906101000a900461ffff169080600301905085565b600960009054906101000a900473ffffffffffffffffffffffffffffffffffffffff168073ffffffffffffffffffffffffffffffffffffffff163373ffffffffffffffffffffffffffffffffffffffff1614151561117957600080fd5b81600960006101000a81548173ffffffffffffffffffffffffffffffffffffffff021916908373ffffffffffffffffffffffffffffffffffffffff1602179055505050565b600080600960009054906101000a900473ffffffffffffffffffffffffffffffffffffffff168073ffffffffffffffffffffffffffffffffffffffff163373ffffffffffffffffffffffffffffffffffffffff1614151561121e57600080fd5b60008481548110151561122d57fe5b9060005260206000209060040201600080820160006101000a81549073ffffffffffffffffffffffffffffffffffffffff021916905560018201600061127391906119d4565b60028201600061128391906119d4565b6003820160006101000a81549060ff02191690556003820160016101000a81549060ff0219169055505060016000858154811015156112be57fe5b906000526020600020906004020160030160016101000a81548160ff021916908315150217905550600960009054906101000a900473ffffffffffffffffffffffffffffffffffffffff1660008581548110151561131857fe5b906000526020600020906004020160000160006101000a81548173ffffffffffffffffffffffffffffffffffffffff021916908373ffffffffffffffffffffffffffffffffffffffff160217905550600560008581526020019081526020016000209250600091505b828054905082101561140357828281548110151561139b57fe5b906000526020600020906004020160008082016000905560018201600090556002820160006101000a81549061ffff02191690556002820160026101000a81549061ffff02191690556003820160006113f491906119d4565b50508180600101925050611381565b50505050565b60046020528060005260406000206000915090505481565b600b5481565b60016020528060005260406000206000915054906101000a900473ffffffffffffffffffffffffffffffffffffffff1681565b50565b6000600a543414151561146f57600080fd5b61147a33848461171c565b905092915050565b6000600260008473ffffffffffffffffffffffffffffffffffffffff1673ffffffffffffffffffffffffffffffffffffffff168152602001908152602001600020828154811015156114d057fe5b906000526020600020900154905092915050565b60006114ee611a1c565b6000620100006006600089815260200190815260200160002060009054906101000a900467ffffffffffffffff1667ffffffffffffffff1610151561153257600080fd5b60a0604051908101604052808881526020018581526020018761ffff1681526020018761ffff1681526020018681525091506005600088815260200190815260200160002080548060010182816115899190611a5a565b91600052602060002090600402016000849091909150600082015181600001556020820151816001015560408201518160020160006101000a81548161ffff021916908361ffff16021790555060608201518160020160026101000a81548161ffff021916908361ffff1602179055506080820151816003019080519060200190611615929190611a8c565b505050905060066000888152602001908152602001600020600081819054906101000a900467ffffffffffffffff168092919060010191906101000a81548167ffffffffffffffff021916908367ffffffffffffffff16021790555050867fbcc78462243df19ab0f6e9bff38bc47cc381cc4600d2e33e08232d5f78e0e893866040518080602001828103825283818151815260200191508051906020019080838360005b838110156116d55780820151818401526020810190506116ba565b50505050905090810190601f1680156117025780820380516001836020036101000a031916815260200191505b509250505060405180910390a28092505050949350505050565b6000611726611b0c565b600060a0604051908101604052808773ffffffffffffffffffffffffffffffffffffffff1681526020018681526020018581526020016000151581526020016000151581525091506001600080548060010182816117849190611b62565b9160005260206000209060040201600085909190915060008201518160000160006101000a81548173ffffffffffffffffffffffffffffffffffffffff021916908373ffffffffffffffffffffffffffffffffffffffff16021790555060208201518160010190805190602001906117fd929190611a8c565b50604082015181600201908051906020019061181a929190611a8c565b5060608201518160030160006101000a81548160ff02191690831515021790555060808201518160030160016101000a81548160ff0219169083151502179055505050039050856001600083815260200190815260200160002060006101000a81548173ffffffffffffffffffffffffffffffffffffffff021916908373ffffffffffffffffffffffffffffffffffffffff160217905550600260008773ffffffffffffffffffffffffffffffffffffffff1673ffffffffffffffffffffffffffffffffffffffff16815260200190815260200160002080548060010182816119039190611b94565b9160005260206000209001600083909190915055506001600360008873ffffffffffffffffffffffffffffffffffffffff1673ffffffffffffffffffffffffffffffffffffffff168152602001908152602001600020600082825401925050819055508573ffffffffffffffffffffffffffffffffffffffff167f8947cb78db2ffa53132a4e627ea0e20920cf6edd68b7b07989687e1a28e0bac7826040518082815260200191505060405180910390a280925050509392505050565b602060405190810160405280600081525090565b50805460018160011615610100020316600290046000825580601f106119fa5750611a19565b601f016020900490600052602060002090810190611a189190611bc0565b5b50565b60a0604051908101604052806000815260200160008152602001600061ffff168152602001600061ffff168152602001611a54611be5565b81525090565b815481835581811511611a8757600402816004028360005260206000209182019101611a869190611bf9565b5b505050565b828054600181600116156101000203166002900490600052602060002090601f016020900481019282601f10611acd57805160ff1916838001178555611afb565b82800160010185558215611afb579182015b82811115611afa578251825591602001919060010190611adf565b5b509050611b089190611bc0565b5090565b60a060405190810160405280600073ffffffffffffffffffffffffffffffffffffffff168152602001611b3d611be5565b8152602001611b4a611be5565b81526020016000151581526020016000151581525090565b815481835581811511611b8f57600402816004028360005260206000209182019101611b8e9190611c62565b5b505050565b815481835581811511611bbb57818360005260206000209182019101611bba9190611bc0565b5b505050565b611be291905b80821115611bde576000816000905550600101611bc6565b5090565b90565b602060405190810160405280600081525090565b611c5f91905b80821115611c5b5760008082016000905560018201600090556002820160006101000a81549061ffff02191690556002820160026101000a81549061ffff0219169055600382016000611c5291906119d4565b50600401611bff565b5090565b90565b611ced91905b80821115611ce957600080820160006101000a81549073ffffffffffffffffffffffffffffffffffffffff0219169055600182016000611ca891906119d4565b600282016000611cb891906119d4565b6003820160006101000a81549060ff02191690556003820160016101000a81549060ff021916905550600401611c68565b5090565b905600a165627a7a72305820947150885cf2ca9e0309b4b06973380f446f3cc846ba985ac41795e5f2698ab30029",
  "source": "pragma solidity 0.4.19;\n\nimport \"./IGVCampaign.sol\";\n\ncontract IGVCore is IGVCampaign {\n  Token[] tokens;\n  address public founderAddress;\n  address public ownerAddress;\n\n  uint256 public campaignEscrowAmount = 0;\n  uint256 public totalRaised = 0;\n\n  modifier onlyBy(address _account)\n  {\n      require(msg.sender == _account);\n      _;\n  }\n\n  function IGVCore() public {\n      founderAddress = msg.sender;\n      ownerAddress = msg.sender;\n\n      // Genesis is unspendable/invalid =)\n      _createCampaign(address(0), \"Genesis Campaign\", \"\");\n      _createCertificate(0, 1, \"Genesis Certificate\", 0);\n      //_createToken(0, 0, 0, address(0));\n  }\n\n  function createCampaign(\n      string _campaignName,\n      string _taxid\n  )\n    public\n    payable\n    returns (uint)\n  {\n    require(msg.value == campaignEscrowAmount);\n\n    return _createCampaign(msg.sender, _campaignName, _taxid);\n  }\n\n  function createCertificate(\n      uint256 _campaignId,\n      uint16 _supply,\n      string _name,\n      uint256 _price\n  ) public\n    returns (uint)\n  {\n    require(campaignIndexToOwner[_campaignId] == msg.sender);\n    require(_campaignId > 0);\n\n    Campaign storage campaign = campaigns[_campaignId];\n\n    require(campaign.veto == false);\n\n    return _createCertificate(_campaignId, _supply, _name, _price);\n  }\n\n  function createToken(\n      uint128 _campaignId,\n      uint16 _certificateIdx\n  )\n    public\n    payable\n    //returns (uint)\n  {\n    Campaign storage campaign = campaigns[_campaignId];\n\n    // Campaign is valid & active\n    require(campaign.active == true);\n    require(campaign.veto == false);\n\n    // Ensure Token is still for sale\n    Certificate storage certificate = campaignCertificates[_campaignId][_certificateIdx];\n\n    require(certificate.remaining > 0);\n    require(msg.value == uint256(certificate.price));\n\n    uint64 unitNumber = certificate.supply - certificate.remaining + 1;\n\n    campaignBalance[_campaignId] += msg.value;\n\n    totalRaised += msg.value;\n\n\n    //return _createToken(_campaignId, _certificateIdx, unitNumber, msg.sender);\n  }\n\n  function vetoCampaign(uint256 _campaignId) public onlyBy(ownerAddress)  {\n    delete campaigns[_campaignId];\n    campaigns[_campaignId].veto = true;\n    campaigns[_campaignId].owner = ownerAddress;\n\n    Certificate[] storage certificates = campaignCertificates[_campaignId];\n    for (uint i = 0; i < certificates.length; i++) {\n      delete certificates[i];\n    }\n  }\n\n  // Views\n  function getCampaign(uint256 _id)\n      public\n      view\n      returns (\n      address owner,\n      string campaignName,\n      string taxId,\n      bool active,\n      bool veto\n  ) {\n      Campaign storage campaign = campaigns[_id];\n\n      owner = campaign.owner;\n      campaignName = campaign.campaignName;\n      taxId = campaign.taxId;\n      veto = campaign.active;\n      veto = campaign.veto;\n  }\n\n  function getCertificate(uint256 _campaignId, uint64 _certificateIdx)\n    public\n    view\n    returns(\n    uint256 campaignId,\n    uint64 supply,\n    uint64 remaining,\n    string name,\n    uint256 price\n  ){\n\n    Certificate storage certificate = campaignCertificates[_campaignId][_certificateIdx];\n\n    campaignId = uint256(certificate.campaignId);\n    supply = uint64(certificate.supply);\n    remaining = uint64(certificate.remaining);\n    name = certificate.name;\n    price = uint256(certificate.price);\n  }\n\n  function getToken(uint256 _id)\n    public\n  {\n\n  }\n\n  function getTotalCampaignsForOwner(address _owner)\n    public\n    view\n    returns (\n    uint256 total\n  ){\n    total = campaignOwnerTotalCampaigns[_owner];\n  }\n\n  function getCampaignIdByOwnerIndex(address _owner, uint256 _index)\n    public\n    view\n    returns (\n      uint256 id\n    ) {\n      id = campaignOwnerToIndexes[_owner][_index];\n    }\n\n  // Contract Management\n  function changeEscrowAmount(\n    uint64 _campaignEscrowAmount\n  )\n    public\n    onlyBy(ownerAddress)\n  {\n    campaignEscrowAmount = _campaignEscrowAmount;\n  }\n\n  function changeOwner(\n      address _newOwner\n  )\n    public\n    onlyBy(ownerAddress) {\n      ownerAddress = _newOwner;\n  }\n}",
  "sourcePath": "/home/hayek/proj/igave-crowdsale/contracts/dapp/IGVCore.sol",
  "compiler": {
    "name": "solc",
    "version": "0.4.19+commit.c4cbbb05.Emscripten.clang"
  },
  "schemaVersion": "1.0.1",
  "updatedAt": "2018-02-15T22:37:14.325Z"
}