{
  "contractName": "IGVCore",
  "abi": [
    {
      "constant": true,
      "inputs": [],
      "name": "totalCampaigns",
      "outputs": [
        {
          "name": "",
          "type": "uint256"
        }
      ],
      "payable": false,
      "stateMutability": "view",
      "type": "function"
    },
    {
      "constant": true,
      "inputs": [],
      "name": "name",
      "outputs": [
        {
          "name": "_name",
          "type": "string"
        }
      ],
      "payable": false,
      "stateMutability": "pure",
      "type": "function"
    },
    {
      "constant": false,
      "inputs": [
        {
          "name": "_to",
          "type": "address"
        },
        {
          "name": "_tokenId",
          "type": "uint256"
        }
      ],
      "name": "approve",
      "outputs": [],
      "payable": false,
      "stateMutability": "nonpayable",
      "type": "function"
    },
    {
      "constant": true,
      "inputs": [],
      "name": "campaignEscrowAmount",
      "outputs": [
        {
          "name": "",
          "type": "uint256"
        }
      ],
      "payable": false,
      "stateMutability": "view",
      "type": "function"
    },
    {
      "constant": true,
      "inputs": [],
      "name": "totalSupply",
      "outputs": [
        {
          "name": "",
          "type": "uint256"
        }
      ],
      "payable": false,
      "stateMutability": "view",
      "type": "function"
    },
    {
      "constant": true,
      "inputs": [
        {
          "name": "_tokenId",
          "type": "uint256"
        }
      ],
      "name": "approvedFor",
      "outputs": [
        {
          "name": "",
          "type": "address"
        }
      ],
      "payable": false,
      "stateMutability": "view",
      "type": "function"
    },
    {
      "constant": true,
      "inputs": [
        {
          "name": "_owner",
          "type": "address"
        }
      ],
      "name": "getTotalCampaignsForOwner",
      "outputs": [
        {
          "name": "total",
          "type": "uint256"
        }
      ],
      "payable": false,
      "stateMutability": "view",
      "type": "function"
    },
    {
      "constant": true,
      "inputs": [
        {
          "name": "",
          "type": "address"
        }
      ],
      "name": "campaignOwnerTotalCampaigns",
      "outputs": [
        {
          "name": "",
          "type": "uint256"
        }
      ],
      "payable": false,
      "stateMutability": "view",
      "type": "function"
    },
    {
      "constant": true,
      "inputs": [],
      "name": "founderAddress",
      "outputs": [
        {
          "name": "",
          "type": "address"
        }
      ],
      "payable": false,
      "stateMutability": "view",
      "type": "function"
    },
    {
      "constant": true,
      "inputs": [
        {
          "name": "_id",
          "type": "uint256"
        }
      ],
      "name": "getCampaign",
      "outputs": [
        {
          "name": "owner",
          "type": "address"
        },
        {
          "name": "campaignName",
          "type": "string"
        },
        {
          "name": "taxId",
          "type": "string"
        },
        {
          "name": "active",
          "type": "bool"
        },
        {
          "name": "veto",
          "type": "bool"
        }
      ],
      "payable": false,
      "stateMutability": "view",
      "type": "function"
    },
    {
      "constant": true,
      "inputs": [
        {
          "name": "_owner",
          "type": "address"
        }
      ],
      "name": "tokensOf",
      "outputs": [
        {
          "name": "",
          "type": "uint256[]"
        }
      ],
      "payable": false,
      "stateMutability": "view",
      "type": "function"
    },
    {
      "constant": true,
      "inputs": [
        {
          "name": "_tokenId",
          "type": "uint256"
        }
      ],
      "name": "ownerOf",
      "outputs": [
        {
          "name": "",
          "type": "address"
        }
      ],
      "payable": false,
      "stateMutability": "view",
      "type": "function"
    },
    {
      "constant": true,
      "inputs": [
        {
          "name": "_owner",
          "type": "address"
        }
      ],
      "name": "balanceOf",
      "outputs": [
        {
          "name": "",
          "type": "uint256"
        }
      ],
      "payable": false,
      "stateMutability": "view",
      "type": "function"
    },
    {
      "constant": true,
      "inputs": [
        {
          "name": "_campaignId",
          "type": "uint256"
        },
        {
          "name": "_certificateIdx",
          "type": "uint64"
        }
      ],
      "name": "getCertificate",
      "outputs": [
        {
          "name": "campaignId",
          "type": "uint256"
        },
        {
          "name": "supply",
          "type": "uint64"
        },
        {
          "name": "remaining",
          "type": "uint64"
        },
        {
          "name": "name",
          "type": "string"
        },
        {
          "name": "price",
          "type": "uint256"
        }
      ],
      "payable": false,
      "stateMutability": "view",
      "type": "function"
    },
    {
      "constant": true,
      "inputs": [],
      "name": "ownerAddress",
      "outputs": [
        {
          "name": "",
          "type": "address"
        }
      ],
      "payable": false,
      "stateMutability": "view",
      "type": "function"
    },
    {
      "constant": true,
      "inputs": [
        {
          "name": "",
          "type": "uint256"
        }
      ],
      "name": "campaignCertificateCount",
      "outputs": [
        {
          "name": "",
          "type": "uint64"
        }
      ],
      "payable": false,
      "stateMutability": "view",
      "type": "function"
    },
    {
      "constant": true,
      "inputs": [
        {
          "name": "",
          "type": "address"
        },
        {
          "name": "",
          "type": "uint256"
        }
      ],
      "name": "campaignOwnerToIndexes",
      "outputs": [
        {
          "name": "",
          "type": "uint256"
        }
      ],
      "payable": false,
      "stateMutability": "view",
      "type": "function"
    },
    {
      "constant": true,
      "inputs": [],
      "name": "symbol",
      "outputs": [
        {
          "name": "_symbol",
          "type": "string"
        }
      ],
      "payable": false,
      "stateMutability": "pure",
      "type": "function"
    },
    {
      "constant": true,
      "inputs": [
        {
          "name": "",
          "type": "uint256"
        },
        {
          "name": "",
          "type": "uint256"
        }
      ],
      "name": "campaignCertificates",
      "outputs": [
        {
          "name": "campaignId",
          "type": "uint256"
        },
        {
          "name": "price",
          "type": "uint256"
        },
        {
          "name": "supply",
          "type": "uint16"
        },
        {
          "name": "remaining",
          "type": "uint16"
        },
        {
          "name": "name",
          "type": "string"
        }
      ],
      "payable": false,
      "stateMutability": "view",
      "type": "function"
    },
    {
      "constant": false,
      "inputs": [
        {
          "name": "_to",
          "type": "address"
        },
        {
          "name": "_tokenId",
          "type": "uint256"
        }
      ],
      "name": "transfer",
      "outputs": [],
      "payable": false,
      "stateMutability": "nonpayable",
      "type": "function"
    },
    {
      "constant": false,
      "inputs": [
        {
          "name": "_campaignId",
          "type": "uint256"
        }
      ],
      "name": "withdrawCampaignBalance",
      "outputs": [],
      "payable": false,
      "stateMutability": "nonpayable",
      "type": "function"
    },
    {
      "constant": false,
      "inputs": [
        {
          "name": "_tokenId",
          "type": "uint256"
        }
      ],
      "name": "takeOwnership",
      "outputs": [],
      "payable": false,
      "stateMutability": "nonpayable",
      "type": "function"
    },
    {
      "constant": true,
      "inputs": [
        {
          "name": "",
          "type": "uint256"
        }
      ],
      "name": "campaignBalance",
      "outputs": [
        {
          "name": "",
          "type": "uint256"
        }
      ],
      "payable": false,
      "stateMutability": "view",
      "type": "function"
    },
    {
      "constant": true,
      "inputs": [],
      "name": "totalRaised",
      "outputs": [
        {
          "name": "",
          "type": "uint256"
        }
      ],
      "payable": false,
      "stateMutability": "view",
      "type": "function"
    },
    {
      "constant": true,
      "inputs": [
        {
          "name": "",
          "type": "uint256"
        }
      ],
      "name": "campaignIndexToOwner",
      "outputs": [
        {
          "name": "",
          "type": "address"
        }
      ],
      "payable": false,
      "stateMutability": "view",
      "type": "function"
    },
    {
      "constant": true,
      "inputs": [
        {
          "name": "_id",
          "type": "uint256"
        }
      ],
      "name": "getToken",
      "outputs": [
        {
          "name": "campaignId",
          "type": "uint256"
        },
        {
          "name": "value",
          "type": "uint256"
        },
        {
          "name": "unitNumber",
          "type": "uint16"
        },
        {
          "name": "purchaser",
          "type": "address"
        },
        {
          "name": "certificateIdx",
          "type": "uint16"
        }
      ],
      "payable": false,
      "stateMutability": "view",
      "type": "function"
    },
    {
      "constant": true,
      "inputs": [
        {
          "name": "_campaignId",
          "type": "uint256"
        }
      ],
      "name": "getCampaignBalance",
      "outputs": [
        {
          "name": "",
          "type": "uint256"
        }
      ],
      "payable": false,
      "stateMutability": "view",
      "type": "function"
    },
    {
      "constant": true,
      "inputs": [
        {
          "name": "_owner",
          "type": "address"
        },
        {
          "name": "_index",
          "type": "uint256"
        }
      ],
      "name": "getCampaignIdByOwnerIndex",
      "outputs": [
        {
          "name": "id",
          "type": "uint256"
        }
      ],
      "payable": false,
      "stateMutability": "view",
      "type": "function"
    },
    {
      "anonymous": false,
      "inputs": [
        {
          "indexed": false,
          "name": "campaignId",
          "type": "uint256"
        }
      ],
      "name": "ActivateCampaign",
      "type": "event"
    },
    {
      "anonymous": false,
      "inputs": [
        {
          "indexed": false,
          "name": "campaignId",
          "type": "uint256"
        }
      ],
      "name": "VetoCampaign",
      "type": "event"
    },
    {
      "anonymous": false,
      "inputs": [
        {
          "indexed": true,
          "name": "owner",
          "type": "address"
        },
        {
          "indexed": false,
          "name": "campaignId",
          "type": "uint256"
        }
      ],
      "name": "CreateCampaign",
      "type": "event"
    },
    {
      "anonymous": false,
      "inputs": [
        {
          "indexed": true,
          "name": "campaignId",
          "type": "uint256"
        },
        {
          "indexed": false,
          "name": "name",
          "type": "string"
        }
      ],
      "name": "CreateCertificate",
      "type": "event"
    },
    {
      "anonymous": false,
      "inputs": [
        {
          "indexed": false,
          "name": "campaignId",
          "type": "uint256"
        },
        {
          "indexed": false,
          "name": "certificateIdx",
          "type": "uint16"
        },
        {
          "indexed": false,
          "name": "remaining",
          "type": "uint16"
        },
        {
          "indexed": false,
          "name": "price",
          "type": "uint256"
        }
      ],
      "name": "CreateToken",
      "type": "event"
    },
    {
      "anonymous": false,
      "inputs": [
        {
          "indexed": true,
          "name": "_from",
          "type": "address"
        },
        {
          "indexed": true,
          "name": "_to",
          "type": "address"
        },
        {
          "indexed": false,
          "name": "_tokenId",
          "type": "uint256"
        }
      ],
      "name": "Transfer",
      "type": "event"
    },
    {
      "anonymous": false,
      "inputs": [
        {
          "indexed": true,
          "name": "_owner",
          "type": "address"
        },
        {
          "indexed": true,
          "name": "_approved",
          "type": "address"
        },
        {
          "indexed": false,
          "name": "_tokenId",
          "type": "uint256"
        }
      ],
      "name": "Approval",
      "type": "event"
    },
    {
      "constant": false,
      "inputs": [
        {
          "name": "_campaignName",
          "type": "string"
        },
        {
          "name": "_taxid",
          "type": "string"
        }
      ],
      "name": "createCampaign",
      "outputs": [
        {
          "name": "",
          "type": "uint256"
        }
      ],
      "payable": true,
      "stateMutability": "payable",
      "type": "function"
    },
    {
      "constant": false,
      "inputs": [
        {
          "name": "_campaignId",
          "type": "uint256"
        },
        {
          "name": "_supply",
          "type": "uint16"
        },
        {
          "name": "_name",
          "type": "string"
        },
        {
          "name": "_price",
          "type": "uint256"
        }
      ],
      "name": "createCertificate",
      "outputs": [
        {
          "name": "",
          "type": "uint256"
        }
      ],
      "payable": false,
      "stateMutability": "nonpayable",
      "type": "function"
    },
    {
      "constant": false,
      "inputs": [
        {
          "name": "_campaignId",
          "type": "uint128"
        },
        {
          "name": "_certificateIdx",
          "type": "uint16"
        }
      ],
      "name": "createToken",
      "outputs": [
        {
          "name": "",
          "type": "uint256"
        }
      ],
      "payable": true,
      "stateMutability": "payable",
      "type": "function"
    },
    {
      "constant": false,
      "inputs": [
        {
          "name": "_campaignId",
          "type": "uint256"
        }
      ],
      "name": "vetoCampaign",
      "outputs": [],
      "payable": false,
      "stateMutability": "nonpayable",
      "type": "function"
    },
    {
      "constant": false,
      "inputs": [
        {
          "name": "_campaignId",
          "type": "uint256"
        }
      ],
      "name": "activateCampaign",
      "outputs": [],
      "payable": false,
      "stateMutability": "nonpayable",
      "type": "function"
    },
    {
      "constant": false,
      "inputs": [
        {
          "name": "_campaignEscrowAmount",
          "type": "uint64"
        }
      ],
      "name": "changeEscrowAmount",
      "outputs": [],
      "payable": false,
      "stateMutability": "nonpayable",
      "type": "function"
    },
    {
      "constant": false,
      "inputs": [
        {
          "name": "_newOwner",
          "type": "address"
        }
      ],
      "name": "changeOwner",
      "outputs": [],
      "payable": false,
      "stateMutability": "nonpayable",
      "type": "function"
    }
  ],
  "bytecode": "0x60606040526000600f556000601055341561001957600080fd5b613425806100286000396000f3006060604052600436106101b7576000357c0100000000000000000000000000000000000000000000000000000000900463ffffffff16806302932f56146101bc57806306fdde03146101e5578063095ea7b31461027357806317307134146102b557806318160ddd146102de5780632a6dd48f146103075780632d85ea121461036a5780633da70bd5146103b757806346bb283314610404578063493f1726146104595780634be71f181461047c5780635598f8cc1461050c5780635a3f26721461065d5780635cceb24b146106eb5780636352211e146107185780636f33a98a1461077b57806370a08231146107c657806381cdb4c3146108135780638f84aa091461090657806390722b751461095b57806391417542146109a657806395d89b41146109fc578063a5f8777514610a8a578063a6f9dae114610b78578063a9059cbb14610bb1578063ae18e08314610bf3578063b2cdc6ff14610c16578063b2e6ceeb14610c39578063bd6c67e914610c5c578063c5c4744c14610c93578063ced3c6ad14610cbc578063e4b50cb814610d1f578063eb044b9714610dae578063fce3f6ac14610de5578063fea62cae14610e8e575b600080fd5b34156101c757600080fd5b6101cf610ee4565b6040518082815260200191505060405180910390f35b34156101f057600080fd5b6101f8610ef1565b6040518080602001828103825283818151815260200191508051906020019080838360005b8381101561023857808201518184015260208101905061021d565b50505050905090810190601f1680156102655780820380516001836020036101000a031916815260200191505b509250505060405180910390f35b341561027e57600080fd5b6102b3600480803573ffffffffffffffffffffffffffffffffffffffff16906020019091908035906020019091905050610f34565b005b34156102c057600080fd5b6102c86110c7565b6040518082815260200191505060405180910390f35b34156102e957600080fd5b6102f16110cd565b6040518082815260200191505060405180910390f35b341561031257600080fd5b61032860048080359060200190919050506110d6565b604051808273ffffffffffffffffffffffffffffffffffffffff1673ffffffffffffffffffffffffffffffffffffffff16815260200191505060405180910390f35b341561037557600080fd5b6103a1600480803573ffffffffffffffffffffffffffffffffffffffff16906020019091905050611113565b6040518082815260200191505060405180910390f35b34156103c257600080fd5b6103ee600480803573ffffffffffffffffffffffffffffffffffffffff1690602001909190505061115c565b6040518082815260200191505060405180910390f35b341561040f57600080fd5b610417611174565b604051808273ffffffffffffffffffffffffffffffffffffffff1673ffffffffffffffffffffffffffffffffffffffff16815260200191505060405180910390f35b341561046457600080fd5b61047a600480803590602001909190505061119a565b005b341561048757600080fd5b6104f6600480803590602001909190803561ffff1690602001909190803590602001908201803590602001908080601f016020809104026020016040519081016040528093929190818152602001838380828437820191505050505050919080359060200190919050506112fa565b6040518082815260200191505060405180910390f35b341561051757600080fd5b61052d60048080359060200190919050506113f7565b604051808673ffffffffffffffffffffffffffffffffffffffff1673ffffffffffffffffffffffffffffffffffffffff16815260200180602001806020018515151515815260200184151515158152602001838103835287818151815260200191508051906020019080838360005b838110156105b757808201518184015260208101905061059c565b50505050905090810190601f1680156105e45780820380516001836020036101000a031916815260200191505b50838103825286818151815260200191508051906020019080838360005b8381101561061d578082015181840152602081019050610602565b50505050905090810190601f16801561064a5780820380516001836020036101000a031916815260200191505b5097505050505050505060405180910390f35b341561066857600080fd5b610694600480803573ffffffffffffffffffffffffffffffffffffffff169060200190919050506115c4565b6040518080602001828103825283818151815260200191508051906020019060200280838360005b838110156106d75780820151818401526020810190506106bc565b505050509050019250505060405180910390f35b34156106f657600080fd5b610716600480803567ffffffffffffffff16906020019091905050611661565b005b341561072357600080fd5b61073960048080359060200190919050506116d3565b604051808273ffffffffffffffffffffffffffffffffffffffff1673ffffffffffffffffffffffffffffffffffffffff16815260200191505060405180910390f35b6107b060048080356fffffffffffffffffffffffffffffffff1690602001909190803561ffff16906020019091905050611751565b6040518082815260200191505060405180910390f35b34156107d157600080fd5b6107fd600480803573ffffffffffffffffffffffffffffffffffffffff169060200190919050506118e6565b6040518082815260200191505060405180910390f35b341561081e57600080fd5b610847600480803590602001909190803567ffffffffffffffff16906020019091905050611932565b604051808681526020018567ffffffffffffffff1667ffffffffffffffff1681526020018467ffffffffffffffff1667ffffffffffffffff16815260200180602001838152602001828103825284818151815260200191508051906020019080838360005b838110156108c75780820151818401526020810190506108ac565b50505050905090810190601f1680156108f45780820380516001836020036101000a031916815260200191505b50965050505050505060405180910390f35b341561091157600080fd5b610919611a66565b604051808273ffffffffffffffffffffffffffffffffffffffff1673ffffffffffffffffffffffffffffffffffffffff16815260200191505060405180910390f35b341561096657600080fd5b61097c6004808035906020019091905050611a8c565b604051808267ffffffffffffffff1667ffffffffffffffff16815260200191505060405180910390f35b34156109b157600080fd5b6109e6600480803573ffffffffffffffffffffffffffffffffffffffff16906020019091908035906020019091905050611ab3565b6040518082815260200191505060405180910390f35b3415610a0757600080fd5b610a0f611ae4565b6040518080602001828103825283818151815260200191508051906020019080838360005b83811015610a4f578082015181840152602081019050610a34565b50505050905090810190601f168015610a7c5780820380516001836020036101000a031916815260200191505b509250505060405180910390f35b3415610a9557600080fd5b610ab46004808035906020019091908035906020019091905050611b27565b604051808681526020018581526020018461ffff1661ffff1681526020018361ffff1661ffff16815260200180602001828103825283818154600181600116156101000203166002900481526020019150805460018160011615610100020316600290048015610b655780601f10610b3a57610100808354040283529160200191610b65565b820191906000526020600020905b815481529060010190602001808311610b4857829003601f168201915b5050965050505050505060405180910390f35b3415610b8357600080fd5b610baf600480803573ffffffffffffffffffffffffffffffffffffffff16906020019091905050611b94565b005b3415610bbc57600080fd5b610bf1600480803573ffffffffffffffffffffffffffffffffffffffff16906020019091908035906020019091905050611c36565b005b3415610bfe57600080fd5b610c146004808035906020019091905050611c89565b005b3415610c2157600080fd5b610c376004808035906020019091905050611d6b565b005b3415610c4457600080fd5b610c5a6004808035906020019091905050611ffc565b005b3415610c6757600080fd5b610c7d6004808035906020019091905050612027565b6040518082815260200191505060405180910390f35b3415610c9e57600080fd5b610ca661203f565b6040518082815260200191505060405180910390f35b3415610cc757600080fd5b610cdd6004808035906020019091905050612045565b604051808273ffffffffffffffffffffffffffffffffffffffff1673ffffffffffffffffffffffffffffffffffffffff16815260200191505060405180910390f35b3415610d2a57600080fd5b610d406004808035906020019091905050612078565b604051808681526020018581526020018461ffff1661ffff1681526020018373ffffffffffffffffffffffffffffffffffffffff1673ffffffffffffffffffffffffffffffffffffffff1681526020018261ffff1661ffff1681526020019550505050505060405180910390f35b3415610db957600080fd5b610dcf6004808035906020019091905050612109565b6040518082815260200191505060405180910390f35b610e78600480803590602001908201803590602001908080601f0160208091040260200160405190810160405280939291908181526020018383808284378201915050505050509190803590602001908201803590602001908080601f01602080910402602001604051908101604052809392919081815260200183838082843782019150505050505091905050612126565b6040518082815260200191505060405180910390f35b3415610e9957600080fd5b610ece600480803573ffffffffffffffffffffffffffffffffffffffff16906020019091908035906020019091905050612173565b6040518082815260200191505060405180910390f35b6000600580549050905090565b610ef9612f89565b6040805190810160405280600c81526020017f4920476176652041737365740000000000000000000000000000000000000000815250905090565b6000813373ffffffffffffffffffffffffffffffffffffffff16610f57826116d3565b73ffffffffffffffffffffffffffffffffffffffff16141515610f7957600080fd5b610f82836116d3565b91508173ffffffffffffffffffffffffffffffffffffffff168473ffffffffffffffffffffffffffffffffffffffff1614151515610fbf57600080fd5b6000610fca846110d6565b73ffffffffffffffffffffffffffffffffffffffff16141580611004575060008473ffffffffffffffffffffffffffffffffffffffff1614155b156110c157836002600085815260200190815260200160002060006101000a81548173ffffffffffffffffffffffffffffffffffffffff021916908373ffffffffffffffffffffffffffffffffffffffff1602179055508373ffffffffffffffffffffffffffffffffffffffff168273ffffffffffffffffffffffffffffffffffffffff167f8c5be1e5ebec7d5bd14f71427d1e84f3dd0314c0f7b2291e5b200ac8c7c3b925856040518082815260200191505060405180910390a35b50505050565b600f5481565b60008054905090565b60006002600083815260200190815260200160002060009054906101000a900473ffffffffffffffffffffffffffffffffffffffff169050919050565b6000600960008373ffffffffffffffffffffffffffffffffffffffff1673ffffffffffffffffffffffffffffffffffffffff168152602001908152602001600020549050919050565b60096020528060005260406000206000915090505481565b600d60009054906101000a900473ffffffffffffffffffffffffffffffffffffffff1681565b600e60009054906101000a900473ffffffffffffffffffffffffffffffffffffffff168073ffffffffffffffffffffffffffffffffffffffff163373ffffffffffffffffffffffffffffffffffffffff161415156111f757600080fd5b60008211151561120657600080fd5b6000151560058381548110151561121957fe5b906000526020600020906004020160030160009054906101000a900460ff16151514151561124657600080fd5b6000151560058381548110151561125957fe5b906000526020600020906004020160030160019054906101000a900460ff16151514151561128657600080fd5b600160058381548110151561129757fe5b906000526020600020906004020160030160006101000a81548160ff0219169083151502179055507f654d8eebe83f5c9a3d922533e6a30bcb25c11d78ce18b205a0bbc0a4391e1d00826040518082815260200191505060405180910390a15050565b6000803373ffffffffffffffffffffffffffffffffffffffff166007600088815260200190815260200160002060009054906101000a900473ffffffffffffffffffffffffffffffffffffffff1673ffffffffffffffffffffffffffffffffffffffff1614151561136a57600080fd5b60008611151561137957600080fd5b60058681548110151561138857fe5b90600052602060002090600402019050600015158160030160009054906101000a900460ff1615151415156113bc57600080fd5b600015158160030160019054906101000a900460ff1615151415156113e057600080fd5b6113ec868686866121d5565b915050949350505050565b6000611401612f89565b611409612f89565b600080600060058781548110151561141d57fe5b906000526020600020906004020190508060000160009054906101000a900473ffffffffffffffffffffffffffffffffffffffff169550806001018054600181600116156101000203166002900480601f0160208091040260200160405190810160405280929190818152602001828054600181600116156101000203166002900480156114ec5780601f106114c1576101008083540402835291602001916114ec565b820191906000526020600020905b8154815290600101906020018083116114cf57829003601f168201915b50505050509450806002018054600181600116156101000203166002900480601f01602080910402602001604051908101604052809291908181526020018280546001816001161561010002031660029004801561158b5780601f106115605761010080835404028352916020019161158b565b820191906000526020600020905b81548152906001019060200180831161156e57829003601f168201915b505050505093508060030160009054906101000a900460ff1692508060030160019054906101000a900460ff1691505091939590929450565b6115cc612f9d565b600360008373ffffffffffffffffffffffffffffffffffffffff1673ffffffffffffffffffffffffffffffffffffffff16815260200190815260200160002080548060200260200160405190810160405280929190818152602001828054801561165557602002820191906000526020600020905b815481526020019060010190808311611641575b50505050509050919050565b600e60009054906101000a900473ffffffffffffffffffffffffffffffffffffffff168073ffffffffffffffffffffffffffffffffffffffff163373ffffffffffffffffffffffffffffffffffffffff161415156116be57600080fd5b8167ffffffffffffffff16600f819055505050565b6000806001600084815260200190815260200160002060009054906101000a900473ffffffffffffffffffffffffffffffffffffffff169050600073ffffffffffffffffffffffffffffffffffffffff168173ffffffffffffffffffffffffffffffffffffffff161415151561174857600080fd5b80915050919050565b6000806000806005866fffffffffffffffffffffffffffffffff1681548110151561177857fe5b90600052602060002090600402019250600115158360030160009054906101000a900460ff1615151415156117ac57600080fd5b600015158360030160019054906101000a900460ff1615151415156117d057600080fd5b600b6000876fffffffffffffffffffffffffffffffff1681526020019081526020016000208561ffff1681548110151561180657fe5b9060005260206000209060040201915060008260020160029054906101000a900461ffff1661ffff1611151561183b57600080fd5b81600101543414151561184d57600080fd5b60018260020160029054906101000a900461ffff168360020160009054906101000a900461ffff160301905034600a6000886fffffffffffffffffffffffffffffffff16815260200190815260200160002060008282540192505081905550346010600082825401925050819055506118db866fffffffffffffffffffffffffffffffff168683333461240d565b935050505092915050565b6000600360008373ffffffffffffffffffffffffffffffffffffffff1673ffffffffffffffffffffffffffffffffffffffff168152602001908152602001600020805490509050919050565b600080600061193f612f89565b600080600b60008981526020019081526020016000208767ffffffffffffffff1681548110151561196c57fe5b90600052602060002090600402019050806000015495508060020160009054906101000a900461ffff1661ffff1694508060020160029054906101000a900461ffff1661ffff169350806003018054600181600116156101000203166002900480601f016020809104026020016040519081016040528092919081815260200182805460018160011615610100020316600290048015611a4d5780601f10611a2257610100808354040283529160200191611a4d565b820191906000526020600020905b815481529060010190602001808311611a3057829003601f168201915b5050505050925080600101549150509295509295909350565b600e60009054906101000a900473ffffffffffffffffffffffffffffffffffffffff1681565b600c6020528060005260406000206000915054906101000a900467ffffffffffffffff1681565b600860205281600052604060002081815481101515611ace57fe5b9060005260206000209001600091509150505481565b611aec612f89565b6040805190810160405280600381526020017f493c330000000000000000000000000000000000000000000000000000000000815250905090565b600b60205281600052604060002081815481101515611b4257fe5b9060005260206000209060040201600091509150508060000154908060010154908060020160009054906101000a900461ffff16908060020160029054906101000a900461ffff169080600301905085565b600e60009054906101000a900473ffffffffffffffffffffffffffffffffffffffff168073ffffffffffffffffffffffffffffffffffffffff163373ffffffffffffffffffffffffffffffffffffffff16141515611bf157600080fd5b81600e60006101000a81548173ffffffffffffffffffffffffffffffffffffffff021916908373ffffffffffffffffffffffffffffffffffffffff1602179055505050565b803373ffffffffffffffffffffffffffffffffffffffff16611c57826116d3565b73ffffffffffffffffffffffffffffffffffffffff16141515611c7957600080fd5b611c843384846125b1565b505050565b60003373ffffffffffffffffffffffffffffffffffffffff166007600084815260200190815260200160002060009054906101000a900473ffffffffffffffffffffffffffffffffffffffff1673ffffffffffffffffffffffffffffffffffffffff16141515611cf857600080fd5b600a60008381526020019081526020016000205490506000600a6000848152602001908152602001600020819055503373ffffffffffffffffffffffffffffffffffffffff166108fc829081150290604051600060405180830381858888f193505050501515611d6757600080fd5b5050565b600080600e60009054906101000a900473ffffffffffffffffffffffffffffffffffffffff168073ffffffffffffffffffffffffffffffffffffffff163373ffffffffffffffffffffffffffffffffffffffff16141515611dcb57600080fd5b600084111515611dda57600080fd5b600584815481101515611de957fe5b9060005260206000209060040201600080820160006101000a81549073ffffffffffffffffffffffffffffffffffffffff0219169055600182016000611e2f9190612fb1565b600282016000611e3f9190612fb1565b6003820160006101000a81549060ff02191690556003820160016101000a81549060ff021916905550506001600585815481101515611e7a57fe5b906000526020600020906004020160030160016101000a81548160ff021916908315150217905550600e60009054906101000a900473ffffffffffffffffffffffffffffffffffffffff16600585815481101515611ed457fe5b906000526020600020906004020160000160006101000a81548173ffffffffffffffffffffffffffffffffffffffff021916908373ffffffffffffffffffffffffffffffffffffffff160217905550600b60008581526020019081526020016000209250600091505b8280549050821015611fbf578282815481101515611f5757fe5b906000526020600020906004020160008082016000905560018201600090556002820160006101000a81549061ffff02191690556002820160026101000a81549061ffff0219169055600382016000611fb09190612fb1565b50508180600101925050611f3d565b7fa107a556b4445af6c76c3d1fb0861a3a6eba0a2d7cde2778425369de1d5a171b846040518082815260200191505060405180910390a150505050565b61200633826126fa565b151561201157600080fd5b61202461201d826116d3565b33836125b1565b50565b600a6020528060005260406000206000915090505481565b60105481565b60076020528060005260406000206000915054906101000a900473ffffffffffffffffffffffffffffffffffffffff1681565b60008060008060008060068781548110151561209057fe5b9060005260206000209060030201905080600001549550806001015494508060020160149054906101000a900461ffff1693508060020160009054906101000a900473ffffffffffffffffffffffffffffffffffffffff1692508060020160169054906101000a900461ffff1691505091939590929450565b6000600a6000838152602001908152602001600020549050919050565b600080600f543414151561213957600080fd5b61214433858561273b565b9050600f54600a6000838152602001908152602001600020600082825401925050819055508091505092915050565b6000600860008473ffffffffffffffffffffffffffffffffffffffff1673ffffffffffffffffffffffffffffffffffffffff168152602001908152602001600020828154811015156121c157fe5b906000526020600020900154905092915050565b60006121df612ff9565b600062010000600c600089815260200190815260200160002060009054906101000a900467ffffffffffffffff1667ffffffffffffffff1610151561222357600080fd5b60a0604051908101604052808881526020018581526020018761ffff1681526020018761ffff168152602001868152509150600b6000888152602001908152602001600020805480600101828161227a9190613037565b91600052602060002090600402016000849091909150600082015181600001556020820151816001015560408201518160020160006101000a81548161ffff021916908361ffff16021790555060608201518160020160026101000a81548161ffff021916908361ffff1602179055506080820151816003019080519060200190612306929190613069565b5050509050600c6000888152602001908152602001600020600081819054906101000a900467ffffffffffffffff168092919060010191906101000a81548167ffffffffffffffff021916908367ffffffffffffffff16021790555050867fbcc78462243df19ab0f6e9bff38bc47cc381cc4600d2e33e08232d5f78e0e893866040518080602001828103825283818151815260200191508051906020019080838360005b838110156123c65780820151818401526020810190506123ab565b50505050905090810190601f1680156123f35780820380516001836020036101000a031916815260200191505b509250505060405180910390a28092505050949350505050565b60006124176130e9565b600060a0604051908101604052808981526020018581526020018673ffffffffffffffffffffffffffffffffffffffff1681526020018761ffff1681526020018861ffff168152509150600b60008981526020019081526020016000208761ffff1681548110151561248557fe5b9060005260206000209060040201600201600281819054906101000a900461ffff16809291906001900391906101000a81548161ffff021916908361ffff16021790555050600680548060010182816124de9190613137565b91600052602060002090600302016000849091909150600082015181600001556020820151816001015560408201518160020160006101000a81548173ffffffffffffffffffffffffffffffffffffffff021916908373ffffffffffffffffffffffffffffffffffffffff16021790555060608201518160020160146101000a81548161ffff021916908361ffff16021790555060808201518160020160166101000a81548161ffff021916908361ffff160217905550505090506125a385826129dc565b809250505095945050505050565b600073ffffffffffffffffffffffffffffffffffffffff168273ffffffffffffffffffffffffffffffffffffffff16141515156125ed57600080fd5b6125f6816116d3565b73ffffffffffffffffffffffffffffffffffffffff168273ffffffffffffffffffffffffffffffffffffffff161415151561263057600080fd5b8273ffffffffffffffffffffffffffffffffffffffff16612650826116d3565b73ffffffffffffffffffffffffffffffffffffffff1614151561267257600080fd5b61267c8382612a76565b6126868382612b5f565b6126908282612de7565b8173ffffffffffffffffffffffffffffffffffffffff168373ffffffffffffffffffffffffffffffffffffffff167fddf252ad1be2c89b69c2b068fc378daa952ba7f163c4a11628f55a4df523b3ef836040518082815260200191505060405180910390a3505050565b60008273ffffffffffffffffffffffffffffffffffffffff1661271c836110d6565b73ffffffffffffffffffffffffffffffffffffffff1614905092915050565b6000612745613169565b600060a0604051908101604052808773ffffffffffffffffffffffffffffffffffffffff168152602001868152602001858152602001600015158152602001600015158152509150600580548060010182816127a191906131bf565b9160005260206000209060040201600084909190915060008201518160000160006101000a81548173ffffffffffffffffffffffffffffffffffffffff021916908373ffffffffffffffffffffffffffffffffffffffff160217905550602082015181600101908051906020019061281a929190613069565b506040820151816002019080519060200190612837929190613069565b5060608201518160030160006101000a81548160ff02191690831515021790555060808201518160030160016101000a81548160ff02191690831515021790555050509050856007600083815260200190815260200160002060006101000a81548173ffffffffffffffffffffffffffffffffffffffff021916908373ffffffffffffffffffffffffffffffffffffffff160217905550600860008773ffffffffffffffffffffffffffffffffffffffff1673ffffffffffffffffffffffffffffffffffffffff168152602001908152602001600020805480600101828161291f91906131f1565b9160005260206000209001600083909190915055506001600960008873ffffffffffffffffffffffffffffffffffffffff1673ffffffffffffffffffffffffffffffffffffffff168152602001908152602001600020600082825401925050819055508573ffffffffffffffffffffffffffffffffffffffff167f8947cb78db2ffa53132a4e627ea0e20920cf6edd68b7b07989687e1a28e0bac7826040518082815260200191505060405180910390a280925050509392505050565b600073ffffffffffffffffffffffffffffffffffffffff168273ffffffffffffffffffffffffffffffffffffffff1614151515612a1857600080fd5b612a228282612de7565b8173ffffffffffffffffffffffffffffffffffffffff1660007fddf252ad1be2c89b69c2b068fc378daa952ba7f163c4a11628f55a4df523b3ef836040518082815260200191505060405180910390a35050565b8173ffffffffffffffffffffffffffffffffffffffff16612a96826116d3565b73ffffffffffffffffffffffffffffffffffffffff16141515612ab857600080fd5b60006002600083815260200190815260200160002060006101000a81548173ffffffffffffffffffffffffffffffffffffffff021916908373ffffffffffffffffffffffffffffffffffffffff16021790555060008273ffffffffffffffffffffffffffffffffffffffff167f8c5be1e5ebec7d5bd14f71427d1e84f3dd0314c0f7b2291e5b200ac8c7c3b925836040518082815260200191505060405180910390a35050565b60008060008473ffffffffffffffffffffffffffffffffffffffff16612b84856116d3565b73ffffffffffffffffffffffffffffffffffffffff16141515612ba657600080fd5b60046000858152602001908152602001600020549250612bd86001612bca876118e6565b612f5290919063ffffffff16565b9150600360008673ffffffffffffffffffffffffffffffffffffffff1673ffffffffffffffffffffffffffffffffffffffff16815260200190815260200160002082815481101515612c2657fe5b906000526020600020900154905060006001600086815260200190815260200160002060006101000a81548173ffffffffffffffffffffffffffffffffffffffff021916908373ffffffffffffffffffffffffffffffffffffffff16021790555080600360008773ffffffffffffffffffffffffffffffffffffffff1673ffffffffffffffffffffffffffffffffffffffff16815260200190815260200160002084815481101515612cd457fe5b9060005260206000209001819055506000600360008773ffffffffffffffffffffffffffffffffffffffff1673ffffffffffffffffffffffffffffffffffffffff16815260200190815260200160002083815481101515612d3157fe5b906000526020600020900181905550600360008673ffffffffffffffffffffffffffffffffffffffff1673ffffffffffffffffffffffffffffffffffffffff168152602001908152602001600020805480919060019003612d92919061321d565b5060006004600086815260200190815260200160002081905550826004600083815260200190815260200160002081905550612dda6001600054612f5290919063ffffffff16565b6000819055505050505050565b60008073ffffffffffffffffffffffffffffffffffffffff166001600084815260200190815260200160002060009054906101000a900473ffffffffffffffffffffffffffffffffffffffff1673ffffffffffffffffffffffffffffffffffffffff16141515612e5657600080fd5b826001600084815260200190815260200160002060006101000a81548173ffffffffffffffffffffffffffffffffffffffff021916908373ffffffffffffffffffffffffffffffffffffffff160217905550612eb1836118e6565b9050600360008473ffffffffffffffffffffffffffffffffffffffff1673ffffffffffffffffffffffffffffffffffffffff1681526020019081526020016000208054806001018281612f0491906131f1565b916000526020600020900160008490919091505550806004600084815260200190815260200160002081905550612f476001600054612f6b90919063ffffffff16565b600081905550505050565b6000828211151515612f6057fe5b818303905092915050565b6000808284019050838110151515612f7f57fe5b8091505092915050565b602060405190810160405280600081525090565b602060405190810160405280600081525090565b50805460018160011615610100020316600290046000825580601f10612fd75750612ff6565b601f016020900490600052602060002090810190612ff59190613249565b5b50565b60a0604051908101604052806000815260200160008152602001600061ffff168152602001600061ffff16815260200161303161326e565b81525090565b815481835581811511613064576004028160040283600052602060002091820191016130639190613282565b5b505050565b828054600181600116156101000203166002900490600052602060002090601f016020900481019282601f106130aa57805160ff19168380011785556130d8565b828001600101855582156130d8579182015b828111156130d75782518255916020019190600101906130bc565b5b5090506130e59190613249565b5090565b60a0604051908101604052806000815260200160008152602001600073ffffffffffffffffffffffffffffffffffffffff168152602001600061ffff168152602001600061ffff1681525090565b8154818355818115116131645760030281600302836000526020600020918201910161316391906132eb565b5b505050565b60a060405190810160405280600073ffffffffffffffffffffffffffffffffffffffff16815260200161319a61326e565b81526020016131a761326e565b81526020016000151581526020016000151581525090565b8154818355818115116131ec576004028160040283600052602060002091820191016131eb919061336b565b5b505050565b815481835581811511613218578183600052602060002091820191016132179190613249565b5b505050565b815481835581811511613244578183600052602060002091820191016132439190613249565b5b505050565b61326b91905b8082111561326757600081600090555060010161324f565b5090565b90565b602060405190810160405280600081525090565b6132e891905b808211156132e45760008082016000905560018201600090556002820160006101000a81549061ffff02191690556002820160026101000a81549061ffff02191690556003820160006132db9190612fb1565b50600401613288565b5090565b90565b61336891905b808211156133645760008082016000905560018201600090556002820160006101000a81549073ffffffffffffffffffffffffffffffffffffffff02191690556002820160146101000a81549061ffff02191690556002820160166101000a81549061ffff0219169055506003016132f1565b5090565b90565b6133f691905b808211156133f257600080820160006101000a81549073ffffffffffffffffffffffffffffffffffffffff02191690556001820160006133b19190612fb1565b6002820160006133c19190612fb1565b6003820160006101000a81549060ff02191690556003820160016101000a81549060ff021916905550600401613371565b5090565b905600a165627a7a7230582004e8f5c6892a927f2200b8784fe2bc8b751949dfa09695883bcb5fa35f30578f0029",
  "source": "pragma solidity 0.4.19;\n\nimport \"./IGVCampaign.sol\";\n\ncontract IGVCore is IGVCampaign {\n  address public founderAddress;\n  address public ownerAddress;\n  uint256 public campaignEscrowAmount = 0;\n  uint256 public totalRaised = 0;\n\n  event ActivateCampaign(uint256 campaignId);\n  event VetoCampaign(uint256 campaignId);\n\n  modifier onlyBy(address _account)\n  {\n    require(msg.sender == _account);\n    _;\n  }\n\n  function createCampaign(\n    string _campaignName,\n    string _taxid\n  )\n    public\n    payable\n    returns (uint)\n  {\n    require(msg.value == campaignEscrowAmount);\n\n    uint256 campaignId = _createCampaign(msg.sender, _campaignName, _taxid);\n    campaignBalance[campaignId] += campaignEscrowAmount;\n    return campaignId;\n  }\n\n  function createCertificate(\n    uint256 _campaignId,\n    uint16 _supply,\n    string _name,\n    uint256 _price\n  ) public\n    returns (uint)\n  {\n    require(campaignIndexToOwner[_campaignId] == msg.sender);\n    require(_campaignId > 0);\n\n    Campaign storage campaign = campaigns[_campaignId];\n\n    require(campaign.active == false);\n    require(campaign.veto == false);\n\n    return _createCertificate(_campaignId, _supply, _name, _price);\n  }\n\n  function createToken(\n    uint128 _campaignId,\n    uint16 _certificateIdx\n  )\n    public\n    payable\n    returns (uint)\n  {\n    Campaign storage campaign = campaigns[_campaignId];\n\n    // Campaign is valid & active\n    require(campaign.active == true);\n    require(campaign.veto == false);\n\n    // Ensure Token is still for sale\n    Certificate storage certificate = campaignCertificates[_campaignId][_certificateIdx];\n\n    require(certificate.remaining > 0);\n    require(msg.value == uint256(certificate.price));\n\n    uint16 unitNumber = certificate.supply - certificate.remaining + 1;\n\n    campaignBalance[_campaignId] += msg.value;\n\n    totalRaised += msg.value;\n\n    return _createToken(_campaignId, _certificateIdx, unitNumber, msg.sender, msg.value);\n  }\n\n  function vetoCampaign(uint256 _campaignId) public onlyBy(ownerAddress)  {\n    require(_campaignId > 0);\n    delete campaigns[_campaignId];\n    campaigns[_campaignId].veto = true;\n    campaigns[_campaignId].owner = ownerAddress;\n\n    Certificate[] storage certificates = campaignCertificates[_campaignId];\n    for (uint i = 0; i < certificates.length; i++) {\n      delete certificates[i];\n    }\n    VetoCampaign(_campaignId);\n  }\n\n  function activateCampaign(uint256 _campaignId) public onlyBy(ownerAddress) {\n    require(_campaignId > 0);\n    require(campaigns[_campaignId].active == false);\n    require(campaigns[_campaignId].veto == false);\n\n    campaigns[_campaignId].active = true;\n\n    ActivateCampaign(_campaignId);\n  }\n\n  // Contract Management\n  function changeEscrowAmount(\n    uint64 _campaignEscrowAmount\n  )\n    public\n    onlyBy(ownerAddress)\n  {\n    campaignEscrowAmount = _campaignEscrowAmount;\n  }\n\n  function changeOwner(\n    address _newOwner\n  )\n    public\n    onlyBy(ownerAddress)\n  {\n    ownerAddress = _newOwner;\n  }\n}",
  "sourcePath": "/home/hayek/proj/igave-contracts/contracts/dapp/IGVCore.sol",
  "compiler": {
    "name": "solc",
    "version": "0.4.19+commit.c4cbbb05.Emscripten.clang"
  },
  "schemaVersion": "1.0.1",
  "updatedAt": "2018-03-18T16:35:54.780Z"
}