{
  "contractName": "IGVCampaign",
  "abi": [
    {
      "constant": true,
      "inputs": [
        {
          "name": "",
          "type": "address"
        }
      ],
      "name": "campaignOwnerTotalCampaigns",
      "outputs": [
        {
          "name": "",
          "type": "uint256"
        }
      ],
      "payable": false,
      "stateMutability": "view",
      "type": "function"
    },
    {
      "constant": true,
      "inputs": [
        {
          "name": "",
          "type": "address"
        },
        {
          "name": "",
          "type": "uint256"
        }
      ],
      "name": "campaignOwnerToIndexes",
      "outputs": [
        {
          "name": "",
          "type": "uint256"
        }
      ],
      "payable": false,
      "stateMutability": "view",
      "type": "function"
    },
    {
      "constant": true,
      "inputs": [
        {
          "name": "",
          "type": "uint256"
        },
        {
          "name": "",
          "type": "uint256"
        }
      ],
      "name": "campaignCertificates",
      "outputs": [
        {
          "name": "campaignId",
          "type": "uint256"
        },
        {
          "name": "price",
          "type": "uint256"
        },
        {
          "name": "supply",
          "type": "uint16"
        },
        {
          "name": "remaining",
          "type": "uint16"
        },
        {
          "name": "name",
          "type": "string"
        }
      ],
      "payable": false,
      "stateMutability": "view",
      "type": "function"
    },
    {
      "constant": true,
      "inputs": [
        {
          "name": "",
          "type": "uint256"
        }
      ],
      "name": "campaignBalance",
      "outputs": [
        {
          "name": "",
          "type": "uint256"
        }
      ],
      "payable": false,
      "stateMutability": "view",
      "type": "function"
    },
    {
      "constant": true,
      "inputs": [
        {
          "name": "",
          "type": "uint256"
        }
      ],
      "name": "campaignIndexToOwner",
      "outputs": [
        {
          "name": "",
          "type": "address"
        }
      ],
      "payable": false,
      "stateMutability": "view",
      "type": "function"
    },
    {
      "anonymous": false,
      "inputs": [
        {
          "indexed": true,
          "name": "owner",
          "type": "address"
        },
        {
          "indexed": false,
          "name": "campaignId",
          "type": "uint256"
        }
      ],
      "name": "CreateCampaign",
      "type": "event"
    },
    {
      "anonymous": false,
      "inputs": [
        {
          "indexed": true,
          "name": "campaignId",
          "type": "uint256"
        },
        {
          "indexed": false,
          "name": "name",
          "type": "string"
        }
      ],
      "name": "CreateCertificate",
      "type": "event"
    },
    {
      "anonymous": false,
      "inputs": [
        {
          "indexed": false,
          "name": "campaignId",
          "type": "uint256"
        },
        {
          "indexed": false,
          "name": "certificateIdx",
          "type": "uint16"
        },
        {
          "indexed": false,
          "name": "remaining",
          "type": "uint16"
        },
        {
          "indexed": false,
          "name": "price",
          "type": "uint256"
        }
      ],
      "name": "CreateToken",
      "type": "event"
    },
    {
      "constant": true,
      "inputs": [],
      "name": "totalCampaigns",
      "outputs": [
        {
          "name": "",
          "type": "uint256"
        }
      ],
      "payable": false,
      "stateMutability": "view",
      "type": "function"
    },
    {
      "constant": true,
      "inputs": [
        {
          "name": "_campaignId",
          "type": "uint256"
        }
      ],
      "name": "campaignCertificateCount",
      "outputs": [
        {
          "name": "",
          "type": "uint64"
        }
      ],
      "payable": false,
      "stateMutability": "view",
      "type": "function"
    }
  ],
  "bytecode": "0x6060604052341561000f57600080fd5b6104958061001e6000396000f300606060405260043610610083576000357c0100000000000000000000000000000000000000000000000000000000900463ffffffff16806302932f56146100885780633da70bd5146100b157806390722b75146100fe5780639141754214610149578063a5f877751461019f578063bd6c67e91461028d578063ced3c6ad146102c4575b600080fd5b341561009357600080fd5b61009b610327565b6040518082815260200191505060405180910390f35b34156100bc57600080fd5b6100e8600480803573ffffffffffffffffffffffffffffffffffffffff16906020019091905050610337565b6040518082815260200191505060405180910390f35b341561010957600080fd5b61011f600480803590602001909190505061034f565b604051808267ffffffffffffffff1667ffffffffffffffff16815260200191505060405180910390f35b341561015457600080fd5b610189600480803573ffffffffffffffffffffffffffffffffffffffff16906020019091908035906020019091905050610380565b6040518082815260200191505060405180910390f35b34156101aa57600080fd5b6101c960048080359060200190919080359060200190919050506103b1565b604051808681526020018581526020018461ffff1661ffff1681526020018361ffff1661ffff1681526020018060200182810382528381815460018160011615610100020316600290048152602001915080546001816001161561010002031660029004801561027a5780601f1061024f5761010080835404028352916020019161027a565b820191906000526020600020905b81548152906001019060200180831161025d57829003601f168201915b5050965050505050505060405180910390f35b341561029857600080fd5b6102ae600480803590602001909190505061041e565b6040518082815260200191505060405180910390f35b34156102cf57600080fd5b6102e56004808035906020019091905050610436565b604051808273ffffffffffffffffffffffffffffffffffffffff1673ffffffffffffffffffffffffffffffffffffffff16815260200191505060405180910390f35b6000600160008054905003905090565b60036020528060005260406000206000915090505481565b60006006600083815260200190815260200160002060009054906101000a900467ffffffffffffffff169050919050565b60026020528160005260406000208181548110151561039b57fe5b9060005260206000209001600091509150505481565b6005602052816000526040600020818154811015156103cc57fe5b9060005260206000209060040201600091509150508060000154908060010154908060020160009054906101000a900461ffff16908060020160029054906101000a900461ffff169080600301905085565b60046020528060005260406000206000915090505481565b60016020528060005260406000206000915054906101000a900473ffffffffffffffffffffffffffffffffffffffff16815600a165627a7a723058204ee75c3b6dcf377d828a626eb8b841c21417dbcd85202bdf4ba1c2831464d4bf0029",
  "source": "pragma solidity 0.4.19;\n\ncontract IGVCampaign  {\n    Campaign[] campaigns;\n    mapping (uint256 => address) public campaignIndexToOwner;\n    mapping (address => uint256[]) public campaignOwnerToIndexes;\n    mapping (address => uint256) public campaignOwnerTotalCampaigns;\n    mapping (uint256 => uint256) public campaignBalance;\n    mapping (uint256 => Certificate[]) public campaignCertificates;\n    mapping (uint256 => uint64) public campaignCertificateCount;\n\n    event CreateCampaign(address indexed owner, uint256 campaignId);\n    event CreateCertificate(uint256 indexed campaignId, string name);\n    event CreateToken(uint256 campaignId, uint16 certificateIdx, uint16 remaining, uint256 price);\n\n    struct Token {\n      uint256 campaignId;\n      uint16 certificateIdx;\n    }\n\n    struct Campaign {\n        address owner;\n        string campaignName;\n        string taxId;\n        bool active;\n        bool veto;\n    }\n\n    struct Certificate {\n      uint256 campaignId;\n      uint256 price;\n      uint16 supply;\n      uint16 remaining;\n      string name;\n    }\n\n    function _createCampaign(\n        address _owner,\n        string _campaignName,\n        string _taxId\n    )\n        internal\n        returns (uint)\n    {\n      Campaign memory _campaign = Campaign({\n        owner: _owner,\n        campaignName: _campaignName,\n        taxId: _taxId,\n        active: false,\n        veto: false\n      });\n\n      uint256 newCampaignId = campaigns.push(_campaign) - 1;\n\n      campaignIndexToOwner[newCampaignId] = _owner;\n      campaignOwnerToIndexes[_owner].push(newCampaignId);\n      campaignOwnerTotalCampaigns[_owner] += 1;\n\n      CreateCampaign(_owner, newCampaignId);\n\n      return newCampaignId;\n    }\n\n    function _createCertificate(\n      uint256 _campaignId,\n      uint16 _supply,\n      string _name,\n      uint256 _price\n    )\n      internal\n      returns (uint)\n    {\n      require(campaignCertificateCount[_campaignId] < 65536);\n\n      Certificate memory _certificate = Certificate({\n        campaignId: _campaignId,\n        supply: _supply,\n        remaining: _supply,\n        name: _name,\n        price: _price\n      });\n\n      uint256 certificateIndex = campaignCertificates[_campaignId].push(_certificate);\n\n      campaignCertificateCount[_campaignId]++;\n\n      CreateCertificate(_campaignId, _name);\n\n      return certificateIndex;\n    }\n\n    // -1 Genesis Campaign is not a valid campaign\n    function totalCampaigns() public view returns (uint) {\n      return campaigns.length - 1;\n    }\n\n    function campaignCertificateCount(uint256 _campaignId) public view returns (uint64) {\n      return campaignCertificateCount[_campaignId];\n    }\n}",
  "sourcePath": "/home/hayek/proj/igave-crowdsale/contracts/dapp/IGVCampaign.sol",
  "compiler": {
    "name": "solc",
    "version": "0.4.19+commit.c4cbbb05.Emscripten.clang"
  },
  "schemaVersion": "1.0.1",
  "updatedAt": "2018-02-15T22:37:14.323Z"
}