{
  "contractName": "IGVDAPP",
  "abi": [
    {
      "constant": true,
      "inputs": [],
      "name": "totalCampaigns",
      "outputs": [
        {
          "name": "",
          "type": "uint256"
        }
      ],
      "payable": false,
      "stateMutability": "view",
      "type": "function"
    },
    {
      "constant": true,
      "inputs": [],
      "name": "name",
      "outputs": [
        {
          "name": "_name",
          "type": "string"
        }
      ],
      "payable": false,
      "stateMutability": "pure",
      "type": "function"
    },
    {
      "constant": false,
      "inputs": [
        {
          "name": "_to",
          "type": "address"
        },
        {
          "name": "_tokenId",
          "type": "uint256"
        }
      ],
      "name": "approve",
      "outputs": [],
      "payable": false,
      "stateMutability": "nonpayable",
      "type": "function"
    },
    {
      "constant": true,
      "inputs": [],
      "name": "campaignEscrowAmount",
      "outputs": [
        {
          "name": "",
          "type": "uint256"
        }
      ],
      "payable": false,
      "stateMutability": "view",
      "type": "function"
    },
    {
      "constant": true,
      "inputs": [],
      "name": "totalSupply",
      "outputs": [
        {
          "name": "",
          "type": "uint256"
        }
      ],
      "payable": false,
      "stateMutability": "view",
      "type": "function"
    },
    {
      "constant": false,
      "inputs": [
        {
          "name": "_campaignId",
          "type": "uint256"
        }
      ],
      "name": "readyCampaign",
      "outputs": [],
      "payable": false,
      "stateMutability": "nonpayable",
      "type": "function"
    },
    {
      "constant": true,
      "inputs": [
        {
          "name": "_tokenId",
          "type": "uint256"
        }
      ],
      "name": "approvedFor",
      "outputs": [
        {
          "name": "",
          "type": "address"
        }
      ],
      "payable": false,
      "stateMutability": "view",
      "type": "function"
    },
    {
      "constant": true,
      "inputs": [
        {
          "name": "_owner",
          "type": "address"
        }
      ],
      "name": "getTotalCampaignsForOwner",
      "outputs": [
        {
          "name": "total",
          "type": "uint256"
        }
      ],
      "payable": false,
      "stateMutability": "view",
      "type": "function"
    },
    {
      "constant": true,
      "inputs": [
        {
          "name": "",
          "type": "address"
        }
      ],
      "name": "campaignOwnerTotalCampaigns",
      "outputs": [
        {
          "name": "",
          "type": "uint256"
        }
      ],
      "payable": false,
      "stateMutability": "view",
      "type": "function"
    },
    {
      "constant": true,
      "inputs": [],
      "name": "founderAddress",
      "outputs": [
        {
          "name": "",
          "type": "address"
        }
      ],
      "payable": false,
      "stateMutability": "view",
      "type": "function"
    },
    {
      "constant": false,
      "inputs": [
        {
          "name": "_campaignId",
          "type": "uint256"
        }
      ],
      "name": "activateCampaign",
      "outputs": [],
      "payable": false,
      "stateMutability": "nonpayable",
      "type": "function"
    },
    {
      "constant": false,
      "inputs": [
        {
          "name": "_campaignId",
          "type": "uint256"
        },
        {
          "name": "_supply",
          "type": "uint16"
        },
        {
          "name": "_name",
          "type": "string"
        },
        {
          "name": "_price",
          "type": "uint256"
        }
      ],
      "name": "createCertificate",
      "outputs": [
        {
          "name": "",
          "type": "uint256"
        }
      ],
      "payable": false,
      "stateMutability": "nonpayable",
      "type": "function"
    },
    {
      "constant": true,
      "inputs": [
        {
          "name": "_id",
          "type": "uint256"
        }
      ],
      "name": "getCampaign",
      "outputs": [
        {
          "name": "owner",
          "type": "address"
        },
        {
          "name": "campaignName",
          "type": "string"
        },
        {
          "name": "taxId",
          "type": "string"
        },
        {
          "name": "active",
          "type": "bool"
        },
        {
          "name": "veto",
          "type": "bool"
        },
        {
          "name": "ready",
          "type": "bool"
        }
      ],
      "payable": false,
      "stateMutability": "view",
      "type": "function"
    },
    {
      "constant": true,
      "inputs": [
        {
          "name": "_owner",
          "type": "address"
        }
      ],
      "name": "tokensOf",
      "outputs": [
        {
          "name": "",
          "type": "uint256[]"
        }
      ],
      "payable": false,
      "stateMutability": "view",
      "type": "function"
    },
    {
      "constant": false,
      "inputs": [
        {
          "name": "_campaignEscrowAmount",
          "type": "uint64"
        }
      ],
      "name": "changeEscrowAmount",
      "outputs": [],
      "payable": false,
      "stateMutability": "nonpayable",
      "type": "function"
    },
    {
      "constant": true,
      "inputs": [
        {
          "name": "_tokenId",
          "type": "uint256"
        }
      ],
      "name": "ownerOf",
      "outputs": [
        {
          "name": "",
          "type": "address"
        }
      ],
      "payable": false,
      "stateMutability": "view",
      "type": "function"
    },
    {
      "constant": false,
      "inputs": [
        {
          "name": "_campaignId",
          "type": "uint128"
        },
        {
          "name": "_certificateIdx",
          "type": "uint16"
        }
      ],
      "name": "createToken",
      "outputs": [
        {
          "name": "",
          "type": "uint256"
        }
      ],
      "payable": true,
      "stateMutability": "payable",
      "type": "function"
    },
    {
      "constant": true,
      "inputs": [
        {
          "name": "_owner",
          "type": "address"
        }
      ],
      "name": "balanceOf",
      "outputs": [
        {
          "name": "",
          "type": "uint256"
        }
      ],
      "payable": false,
      "stateMutability": "view",
      "type": "function"
    },
    {
      "constant": true,
      "inputs": [],
      "name": "maxCertificates",
      "outputs": [
        {
          "name": "",
          "type": "uint256"
        }
      ],
      "payable": false,
      "stateMutability": "view",
      "type": "function"
    },
    {
      "constant": true,
      "inputs": [
        {
          "name": "_campaignId",
          "type": "uint256"
        },
        {
          "name": "_certificateIdx",
          "type": "uint64"
        }
      ],
      "name": "getCertificate",
      "outputs": [
        {
          "name": "campaignId",
          "type": "uint256"
        },
        {
          "name": "supply",
          "type": "uint64"
        },
        {
          "name": "remaining",
          "type": "uint64"
        },
        {
          "name": "name",
          "type": "string"
        },
        {
          "name": "price",
          "type": "uint256"
        }
      ],
      "payable": false,
      "stateMutability": "view",
      "type": "function"
    },
    {
      "constant": true,
      "inputs": [],
      "name": "owner",
      "outputs": [
        {
          "name": "",
          "type": "address"
        }
      ],
      "payable": false,
      "stateMutability": "view",
      "type": "function"
    },
    {
      "constant": true,
      "inputs": [
        {
          "name": "",
          "type": "uint256"
        }
      ],
      "name": "campaignCertificateCount",
      "outputs": [
        {
          "name": "",
          "type": "uint64"
        }
      ],
      "payable": false,
      "stateMutability": "view",
      "type": "function"
    },
    {
      "constant": true,
      "inputs": [
        {
          "name": "",
          "type": "address"
        },
        {
          "name": "",
          "type": "uint256"
        }
      ],
      "name": "campaignOwnerToIndexes",
      "outputs": [
        {
          "name": "",
          "type": "uint256"
        }
      ],
      "payable": false,
      "stateMutability": "view",
      "type": "function"
    },
    {
      "constant": true,
      "inputs": [],
      "name": "symbol",
      "outputs": [
        {
          "name": "_symbol",
          "type": "string"
        }
      ],
      "payable": false,
      "stateMutability": "pure",
      "type": "function"
    },
    {
      "constant": true,
      "inputs": [
        {
          "name": "",
          "type": "uint256"
        },
        {
          "name": "",
          "type": "uint256"
        }
      ],
      "name": "campaignCertificates",
      "outputs": [
        {
          "name": "campaignId",
          "type": "uint256"
        },
        {
          "name": "price",
          "type": "uint256"
        },
        {
          "name": "supply",
          "type": "uint16"
        },
        {
          "name": "remaining",
          "type": "uint16"
        },
        {
          "name": "name",
          "type": "string"
        }
      ],
      "payable": false,
      "stateMutability": "view",
      "type": "function"
    },
    {
      "constant": false,
      "inputs": [
        {
          "name": "_to",
          "type": "address"
        },
        {
          "name": "_tokenId",
          "type": "uint256"
        }
      ],
      "name": "transfer",
      "outputs": [],
      "payable": false,
      "stateMutability": "nonpayable",
      "type": "function"
    },
    {
      "constant": false,
      "inputs": [
        {
          "name": "_maxCertificates",
          "type": "uint256"
        }
      ],
      "name": "changeMaxCertificates",
      "outputs": [],
      "payable": false,
      "stateMutability": "nonpayable",
      "type": "function"
    },
    {
      "constant": false,
      "inputs": [
        {
          "name": "_campaignId",
          "type": "uint256"
        }
      ],
      "name": "withdrawCampaignBalance",
      "outputs": [],
      "payable": false,
      "stateMutability": "nonpayable",
      "type": "function"
    },
    {
      "constant": false,
      "inputs": [
        {
          "name": "_campaignId",
          "type": "uint256"
        }
      ],
      "name": "vetoCampaign",
      "outputs": [],
      "payable": false,
      "stateMutability": "nonpayable",
      "type": "function"
    },
    {
      "constant": false,
      "inputs": [
        {
          "name": "_tokenId",
          "type": "uint256"
        }
      ],
      "name": "takeOwnership",
      "outputs": [],
      "payable": false,
      "stateMutability": "nonpayable",
      "type": "function"
    },
    {
      "constant": true,
      "inputs": [
        {
          "name": "",
          "type": "uint256"
        }
      ],
      "name": "campaignBalance",
      "outputs": [
        {
          "name": "",
          "type": "uint256"
        }
      ],
      "payable": false,
      "stateMutability": "view",
      "type": "function"
    },
    {
      "constant": true,
      "inputs": [],
      "name": "totalRaised",
      "outputs": [
        {
          "name": "",
          "type": "uint256"
        }
      ],
      "payable": false,
      "stateMutability": "view",
      "type": "function"
    },
    {
      "constant": false,
      "inputs": [
        {
          "name": "_campaignId",
          "type": "uint256"
        },
        {
          "name": "_certificateIdx",
          "type": "uint256"
        },
        {
          "name": "_supply",
          "type": "uint16"
        },
        {
          "name": "_name",
          "type": "string"
        },
        {
          "name": "_price",
          "type": "uint256"
        }
      ],
      "name": "updateCertificate",
      "outputs": [],
      "payable": false,
      "stateMutability": "nonpayable",
      "type": "function"
    },
    {
      "constant": true,
      "inputs": [
        {
          "name": "",
          "type": "uint256"
        }
      ],
      "name": "campaignIndexToOwner",
      "outputs": [
        {
          "name": "",
          "type": "address"
        }
      ],
      "payable": false,
      "stateMutability": "view",
      "type": "function"
    },
    {
      "constant": true,
      "inputs": [
        {
          "name": "_id",
          "type": "uint256"
        }
      ],
      "name": "getToken",
      "outputs": [
        {
          "name": "campaignId",
          "type": "uint256"
        },
        {
          "name": "value",
          "type": "uint256"
        },
        {
          "name": "unitNumber",
          "type": "uint16"
        },
        {
          "name": "purchaser",
          "type": "address"
        },
        {
          "name": "certificateIdx",
          "type": "uint16"
        }
      ],
      "payable": false,
      "stateMutability": "view",
      "type": "function"
    },
    {
      "constant": true,
      "inputs": [
        {
          "name": "_campaignId",
          "type": "uint256"
        }
      ],
      "name": "getCampaignBalance",
      "outputs": [
        {
          "name": "",
          "type": "uint256"
        }
      ],
      "payable": false,
      "stateMutability": "view",
      "type": "function"
    },
    {
      "constant": false,
      "inputs": [
        {
          "name": "newOwner",
          "type": "address"
        }
      ],
      "name": "transferOwnership",
      "outputs": [],
      "payable": false,
      "stateMutability": "nonpayable",
      "type": "function"
    },
    {
      "constant": false,
      "inputs": [
        {
          "name": "_campaignName",
          "type": "string"
        },
        {
          "name": "_taxid",
          "type": "string"
        }
      ],
      "name": "createCampaign",
      "outputs": [
        {
          "name": "",
          "type": "uint256"
        }
      ],
      "payable": true,
      "stateMutability": "payable",
      "type": "function"
    },
    {
      "constant": true,
      "inputs": [
        {
          "name": "_owner",
          "type": "address"
        },
        {
          "name": "_index",
          "type": "uint256"
        }
      ],
      "name": "getCampaignIdByOwnerIndex",
      "outputs": [
        {
          "name": "id",
          "type": "uint256"
        }
      ],
      "payable": false,
      "stateMutability": "view",
      "type": "function"
    },
    {
      "inputs": [],
      "payable": false,
      "stateMutability": "nonpayable",
      "type": "constructor"
    },
    {
      "anonymous": false,
      "inputs": [
        {
          "indexed": false,
          "name": "campaignId",
          "type": "uint256"
        }
      ],
      "name": "ReadyCampaign",
      "type": "event"
    },
    {
      "anonymous": false,
      "inputs": [
        {
          "indexed": false,
          "name": "campaignId",
          "type": "uint256"
        }
      ],
      "name": "ActivateCampaign",
      "type": "event"
    },
    {
      "anonymous": false,
      "inputs": [
        {
          "indexed": false,
          "name": "campaignId",
          "type": "uint256"
        }
      ],
      "name": "VetoCampaign",
      "type": "event"
    },
    {
      "anonymous": false,
      "inputs": [
        {
          "indexed": true,
          "name": "owner",
          "type": "address"
        },
        {
          "indexed": false,
          "name": "campaignId",
          "type": "uint256"
        }
      ],
      "name": "CreateCampaign",
      "type": "event"
    },
    {
      "anonymous": false,
      "inputs": [
        {
          "indexed": true,
          "name": "campaignId",
          "type": "uint256"
        },
        {
          "indexed": false,
          "name": "name",
          "type": "string"
        }
      ],
      "name": "CreateCertificate",
      "type": "event"
    },
    {
      "anonymous": false,
      "inputs": [
        {
          "indexed": false,
          "name": "campaignId",
          "type": "uint256"
        },
        {
          "indexed": false,
          "name": "certificateIdx",
          "type": "uint16"
        },
        {
          "indexed": false,
          "name": "remaining",
          "type": "uint16"
        },
        {
          "indexed": false,
          "name": "price",
          "type": "uint256"
        }
      ],
      "name": "CreateToken",
      "type": "event"
    },
    {
      "anonymous": false,
      "inputs": [
        {
          "indexed": true,
          "name": "previousOwner",
          "type": "address"
        },
        {
          "indexed": true,
          "name": "newOwner",
          "type": "address"
        }
      ],
      "name": "OwnershipTransferred",
      "type": "event"
    },
    {
      "anonymous": false,
      "inputs": [
        {
          "indexed": true,
          "name": "_from",
          "type": "address"
        },
        {
          "indexed": true,
          "name": "_to",
          "type": "address"
        },
        {
          "indexed": false,
          "name": "_tokenId",
          "type": "uint256"
        }
      ],
      "name": "Transfer",
      "type": "event"
    },
    {
      "anonymous": false,
      "inputs": [
        {
          "indexed": true,
          "name": "_owner",
          "type": "address"
        },
        {
          "indexed": true,
          "name": "_approved",
          "type": "address"
        },
        {
          "indexed": false,
          "name": "_tokenId",
          "type": "uint256"
        }
      ],
      "name": "Approval",
      "type": "event"
    }
  ],
  "bytecode": "0x60606040526103e86009556000601055600060115534156200002057600080fd5b73c7b4f558e11fa78dd985520fafe065aba77f5c30600560006101000a81548173ffffffffffffffffffffffffffffffffffffffff021916908373ffffffffffffffffffffffffffffffffffffffff16021790555033600660006101000a81548173ffffffffffffffffffffffffffffffffffffffff021916908373ffffffffffffffffffffffffffffffffffffffff1602179055506200011c336040805190810160405280601081526020017f47656e657369732043616d706169676e000000000000000000000000000000008152506020604051908101604052806000815250620001a56401000000000262002c92176401000000009004565b5062000177600060016040805190810160405280601381526020017f47656e65736973204365727469666963617465000000000000000000000000008152506000620004796401000000000262002660176401000000009004565b506200019e6000806000336000620006786401000000000262002856176401000000009004565b5062000f4f565b6000620001b162000ae7565b600060c0604051908101604052808773ffffffffffffffffffffffffffffffffffffffff1681526020018681526020018581526020016000151581526020016000151581526020016000151581525091506007805480600101828162000218919062000b4a565b9160005260206000209060040201600084909190915060008201518160000160006101000a81548173ffffffffffffffffffffffffffffffffffffffff021916908373ffffffffffffffffffffffffffffffffffffffff16021790555060208201518160010190805190602001906200029392919062000b7f565b506040820151816002019080519060200190620002b292919062000b7f565b5060608201518160030160006101000a81548160ff02191690831515021790555060808201518160030160016101000a81548160ff02191690831515021790555060a08201518160030160026101000a81548160ff0219169083151502179055505050905085600a600083815260200190815260200160002060006101000a81548173ffffffffffffffffffffffffffffffffffffffff021916908373ffffffffffffffffffffffffffffffffffffffff160217905550600b60008773ffffffffffffffffffffffffffffffffffffffff1673ffffffffffffffffffffffffffffffffffffffff1681526020019081526020016000208054806001018281620003bc919062000c06565b9160005260206000209001600083909190915055506001600c60008873ffffffffffffffffffffffffffffffffffffffff1673ffffffffffffffffffffffffffffffffffffffff168152602001908152602001600020600082825401925050819055508573ffffffffffffffffffffffffffffffffffffffff167f8947cb78db2ffa53132a4e627ea0e20920cf6edd68b7b07989687e1a28e0bac7826040518082815260200191505060405180910390a280925050509392505050565b60006200048562000c35565b600060a0604051908101604052808881526020018581526020018761ffff1681526020018761ffff168152602001868152509150600e60008881526020019081526020016000208054806001018281620004e0919062000c75565b91600052602060002090600402016000849091909150600082015181600001556020820151816001015560408201518160020160006101000a81548161ffff021916908361ffff16021790555060608201518160020160026101000a81548161ffff021916908361ffff16021790555060808201518160030190805190602001906200056e92919062000b7f565b5050509050600f6000888152602001908152602001600020600081819054906101000a900467ffffffffffffffff168092919060010191906101000a81548167ffffffffffffffff021916908367ffffffffffffffff16021790555050867fbcc78462243df19ab0f6e9bff38bc47cc381cc4600d2e33e08232d5f78e0e893866040518080602001828103825283818151815260200191508051906020019080838360005b838110156200063057808201518184015260208101905062000613565b50505050905090810190601f1680156200065e5780820380516001836020036101000a031916815260200191505b509250505060405180910390a28092505050949350505050565b60006200068462000caa565b600060a0604051908101604052808981526020018581526020018673ffffffffffffffffffffffffffffffffffffffff1681526020018761ffff1681526020018861ffff168152509150600e60008981526020019081526020016000208761ffff16815481101515620006f357fe5b9060005260206000209060040201600201600281819054906101000a900461ffff16809291906001900391906101000a81548161ffff021916908361ffff16021790555050600880548060010182816200074e919062000cf8565b91600052602060002090600302016000849091909150600082015181600001556020820151816001015560408201518160020160006101000a81548173ffffffffffffffffffffffffffffffffffffffff021916908373ffffffffffffffffffffffffffffffffffffffff16021790555060608201518160020160146101000a81548161ffff021916908361ffff16021790555060808201518160020160166101000a81548161ffff021916908361ffff16021790555050509050620008298582620008376401000000000262002f5c176401000000009004565b809250505095945050505050565b600073ffffffffffffffffffffffffffffffffffffffff168273ffffffffffffffffffffffffffffffffffffffff16141515156200087457600080fd5b620008948282620008e86401000000000262003367176401000000009004565b8173ffffffffffffffffffffffffffffffffffffffff1660007fddf252ad1be2c89b69c2b068fc378daa952ba7f163c4a11628f55a4df523b3ef836040518082815260200191505060405180910390a35050565b60008073ffffffffffffffffffffffffffffffffffffffff166001600084815260200190815260200160002060009054906101000a900473ffffffffffffffffffffffffffffffffffffffff1673ffffffffffffffffffffffffffffffffffffffff161415156200095857600080fd5b826001600084815260200190815260200160002060006101000a81548173ffffffffffffffffffffffffffffffffffffffff021916908373ffffffffffffffffffffffffffffffffffffffff160217905550620009c98362000a7c6401000000000262001ade176401000000009004565b9050600360008473ffffffffffffffffffffffffffffffffffffffff1673ffffffffffffffffffffffffffffffffffffffff168152602001908152602001600020805480600101828162000a1e919062000c06565b91600052602060002090016000849091909150555080600460008481526020019081526020016000208190555062000a71600160005462000ac864010000000002620034eb179091906401000000009004565b600081905550505050565b6000600360008373ffffffffffffffffffffffffffffffffffffffff1673ffffffffffffffffffffffffffffffffffffffff168152602001908152602001600020805490509050919050565b600080828401905083811015151562000add57fe5b8091505092915050565b60c060405190810160405280600073ffffffffffffffffffffffffffffffffffffffff16815260200162000b1a62000d2d565b815260200162000b2962000d2d565b81526020016000151581526020016000151581526020016000151581525090565b81548183558181151162000b7a5760040281600402836000526020600020918201910162000b79919062000d41565b5b505050565b828054600181600116156101000203166002900490600052602060002090601f016020900481019282601f1062000bc257805160ff191683800117855562000bf3565b8280016001018555821562000bf3579182015b8281111562000bf257825182559160200191906001019062000bd5565b5b50905062000c02919062000dea565b5090565b81548183558181151162000c305781836000526020600020918201910162000c2f919062000dea565b5b505050565b60a0604051908101604052806000815260200160008152602001600061ffff168152602001600061ffff16815260200162000c6f62000d2d565b81525090565b81548183558181151162000ca55760040281600402836000526020600020918201910162000ca4919062000e12565b5b505050565b60a0604051908101604052806000815260200160008152602001600073ffffffffffffffffffffffffffffffffffffffff168152602001600061ffff168152602001600061ffff1681525090565b81548183558181151162000d285760030281600302836000526020600020918201910162000d27919062000e80565b5b505050565b602060405190810160405280600081525090565b62000de791905b8082111562000de357600080820160006101000a81549073ffffffffffffffffffffffffffffffffffffffff021916905560018201600062000d8b919062000f03565b60028201600062000d9d919062000f03565b6003820160006101000a81549060ff02191690556003820160016101000a81549060ff02191690556003820160026101000a81549060ff02191690555060040162000d48565b5090565b90565b62000e0f91905b8082111562000e0b57600081600090555060010162000df1565b5090565b90565b62000e7d91905b8082111562000e795760008082016000905560018201600090556002820160006101000a81549061ffff02191690556002820160026101000a81549061ffff021916905560038201600062000e6f919062000f03565b5060040162000e19565b5090565b90565b62000f0091905b8082111562000efc5760008082016000905560018201600090556002820160006101000a81549073ffffffffffffffffffffffffffffffffffffffff02191690556002820160146101000a81549061ffff02191690556002820160166101000a81549061ffff02191690555060030162000e87565b5090565b90565b50805460018160011615610100020316600290046000825580601f1062000f2b575062000f4c565b601f01602090049060005260206000209081019062000f4b919062000dea565b5b50565b613a428062000f5f6000396000f3006060604052600436106101e3576000357c0100000000000000000000000000000000000000000000000000000000900463ffffffff16806302932f56146101e857806306fdde0314610211578063095ea7b31461029f57806317307134146102e157806318160ddd1461030a57806319ad9577146103335780632a6dd48f146103565780632d85ea12146103b95780633da70bd51461040657806346bb283314610453578063493f1726146104a85780634be71f18146104cb5780635598f8cc1461055b5780635a3f2672146106b75780635cceb24b146107455780636352211e146107725780636f33a98a146107d557806370a08231146108205780637204ca151461086d57806381cdb4c3146108965780638da5cb5b1461098957806390722b75146109de5780639141754214610a2957806395d89b4114610a7f578063a5f8777514610b0d578063a9059cbb14610bfb578063a9cd4a1f14610c3d578063ae18e08314610c60578063b2cdc6ff14610c83578063b2e6ceeb14610ca6578063bd6c67e914610cc9578063c5c4744c14610d00578063c8e8d7ff14610d29578063ced3c6ad14610dae578063e4b50cb814610e11578063eb044b9714610ea0578063f2fde38b14610ed7578063fce3f6ac14610f10578063fea62cae14610fb9575b600080fd5b34156101f357600080fd5b6101fb61100f565b6040518082815260200191505060405180910390f35b341561021c57600080fd5b61022461101f565b6040518080602001828103825283818151815260200191508051906020019080838360005b83811015610264578082015181840152602081019050610249565b50505050905090810190601f1680156102915780820380516001836020036101000a031916815260200191505b509250505060405180910390f35b34156102aa57600080fd5b6102df600480803573ffffffffffffffffffffffffffffffffffffffff16906020019091908035906020019091905050611062565b005b34156102ec57600080fd5b6102f46111f5565b6040518082815260200191505060405180910390f35b341561031557600080fd5b61031d6111fb565b6040518082815260200191505060405180910390f35b341561033e57600080fd5b6103546004808035906020019091905050611204565b005b341561036157600080fd5b61037760048080359060200190919050506112f3565b604051808273ffffffffffffffffffffffffffffffffffffffff1673ffffffffffffffffffffffffffffffffffffffff16815260200191505060405180910390f35b34156103c457600080fd5b6103f0600480803573ffffffffffffffffffffffffffffffffffffffff16906020019091905050611330565b6040518082815260200191505060405180910390f35b341561041157600080fd5b61043d600480803573ffffffffffffffffffffffffffffffffffffffff16906020019091905050611379565b6040518082815260200191505060405180910390f35b341561045e57600080fd5b610466611391565b604051808273ffffffffffffffffffffffffffffffffffffffff1673ffffffffffffffffffffffffffffffffffffffff16815260200191505060405180910390f35b34156104b357600080fd5b6104c960048080359060200190919050506113b7565b005b34156104d657600080fd5b610545600480803590602001909190803561ffff1690602001909190803590602001908201803590602001908080601f0160208091040260200160405190810160405280939291908181526020018383808284378201915050505050509190803590602001909190505061153a565b6040518082815260200191505060405180910390f35b341561056657600080fd5b61057c600480803590602001909190505061165b565b604051808773ffffffffffffffffffffffffffffffffffffffff1673ffffffffffffffffffffffffffffffffffffffff1681526020018060200180602001861515151581526020018515151515815260200184151515158152602001838103835288818151815260200191508051906020019080838360005b838110156106105780820151818401526020810190506105f5565b50505050905090810190601f16801561063d5780820380516001836020036101000a031916815260200191505b50838103825287818151815260200191508051906020019080838360005b8381101561067657808201518184015260208101905061065b565b50505050905090810190601f1680156106a35780820380516001836020036101000a031916815260200191505b509850505050505050505060405180910390f35b34156106c257600080fd5b6106ee600480803573ffffffffffffffffffffffffffffffffffffffff1690602001909190505061183d565b6040518080602001828103825283818151815260200191508051906020019060200280838360005b83811015610731578082015181840152602081019050610716565b505050509050019250505060405180910390f35b341561075057600080fd5b610770600480803567ffffffffffffffff169060200190919050506118da565b005b341561077d57600080fd5b610793600480803590602001909190505061194a565b604051808273ffffffffffffffffffffffffffffffffffffffff1673ffffffffffffffffffffffffffffffffffffffff16815260200191505060405180910390f35b61080a60048080356fffffffffffffffffffffffffffffffff1690602001909190803561ffff169060200190919050506119c8565b6040518082815260200191505060405180910390f35b341561082b57600080fd5b610857600480803573ffffffffffffffffffffffffffffffffffffffff16906020019091905050611ade565b6040518082815260200191505060405180910390f35b341561087857600080fd5b610880611b2a565b6040518082815260200191505060405180910390f35b34156108a157600080fd5b6108ca600480803590602001909190803567ffffffffffffffff16906020019091905050611b30565b604051808681526020018567ffffffffffffffff1667ffffffffffffffff1681526020018467ffffffffffffffff1667ffffffffffffffff16815260200180602001838152602001828103825284818151815260200191508051906020019080838360005b8381101561094a57808201518184015260208101905061092f565b50505050905090810190601f1680156109775780820380516001836020036101000a031916815260200191505b50965050505050505060405180910390f35b341561099457600080fd5b61099c611c64565b604051808273ffffffffffffffffffffffffffffffffffffffff1673ffffffffffffffffffffffffffffffffffffffff16815260200191505060405180910390f35b34156109e957600080fd5b6109ff6004808035906020019091905050611c8a565b604051808267ffffffffffffffff1667ffffffffffffffff16815260200191505060405180910390f35b3415610a3457600080fd5b610a69600480803573ffffffffffffffffffffffffffffffffffffffff16906020019091908035906020019091905050611cb1565b6040518082815260200191505060405180910390f35b3415610a8a57600080fd5b610a92611ce2565b6040518080602001828103825283818151815260200191508051906020019080838360005b83811015610ad2578082015181840152602081019050610ab7565b50505050905090810190601f168015610aff5780820380516001836020036101000a031916815260200191505b509250505060405180910390f35b3415610b1857600080fd5b610b376004808035906020019091908035906020019091905050611d25565b604051808681526020018581526020018461ffff1661ffff1681526020018361ffff1661ffff16815260200180602001828103825283818154600181600116156101000203166002900481526020019150805460018160011615610100020316600290048015610be85780601f10610bbd57610100808354040283529160200191610be8565b820191906000526020600020905b815481529060010190602001808311610bcb57829003601f168201915b5050965050505050505060405180910390f35b3415610c0657600080fd5b610c3b600480803573ffffffffffffffffffffffffffffffffffffffff16906020019091908035906020019091905050611d92565b005b3415610c4857600080fd5b610c5e6004808035906020019091905050611de5565b005b3415610c6b57600080fd5b610c816004808035906020019091905050611e5c565b005b3415610c8e57600080fd5b610ca46004808035906020019091905050611f6e565b005b3415610cb157600080fd5b610cc76004808035906020019091905050612211565b005b3415610cd457600080fd5b610cea600480803590602001909190505061223c565b6040518082815260200191505060405180910390f35b3415610d0b57600080fd5b610d13612254565b6040518082815260200191505060405180910390f35b3415610d3457600080fd5b610dac600480803590602001909190803590602001909190803561ffff1690602001909190803590602001908201803590602001908080601f0160208091040260200160405190810160405280939291908181526020018383808284378201915050505050509190803590602001909190505061225a565b005b3415610db957600080fd5b610dcf6004808035906020019091905050612378565b604051808273ffffffffffffffffffffffffffffffffffffffff1673ffffffffffffffffffffffffffffffffffffffff16815260200191505060405180910390f35b3415610e1c57600080fd5b610e3260048080359060200190919050506123ab565b604051808681526020018581526020018461ffff1661ffff1681526020018373ffffffffffffffffffffffffffffffffffffffff1673ffffffffffffffffffffffffffffffffffffffff1681526020018261ffff1661ffff1681526020019550505050505060405180910390f35b3415610eab57600080fd5b610ec1600480803590602001909190505061243c565b6040518082815260200191505060405180910390f35b3415610ee257600080fd5b610f0e600480803573ffffffffffffffffffffffffffffffffffffffff16906020019091905050612459565b005b610fa3600480803590602001908201803590602001908080601f0160208091040260200160405190810160405280939291908181526020018383808284378201915050505050509190803590602001908201803590602001908080601f016020809104026020016040519081016040528093929190818152602001838380828437820191505050505050919050506125b1565b6040518082815260200191505060405180910390f35b3415610fc457600080fd5b610ff9600480803573ffffffffffffffffffffffffffffffffffffffff169060200190919080359060200190919050506125fe565b6040518082815260200191505060405180910390f35b6000600160078054905003905090565b611027613509565b6040805190810160405280600c81526020017f4920476176652041737365740000000000000000000000000000000000000000815250905090565b6000813373ffffffffffffffffffffffffffffffffffffffff166110858261194a565b73ffffffffffffffffffffffffffffffffffffffff161415156110a757600080fd5b6110b08361194a565b91508173ffffffffffffffffffffffffffffffffffffffff168473ffffffffffffffffffffffffffffffffffffffff16141515156110ed57600080fd5b60006110f8846112f3565b73ffffffffffffffffffffffffffffffffffffffff16141580611132575060008473ffffffffffffffffffffffffffffffffffffffff1614155b156111ef57836002600085815260200190815260200160002060006101000a81548173ffffffffffffffffffffffffffffffffffffffff021916908373ffffffffffffffffffffffffffffffffffffffff1602179055508373ffffffffffffffffffffffffffffffffffffffff168273ffffffffffffffffffffffffffffffffffffffff167f8c5be1e5ebec7d5bd14f71427d1e84f3dd0314c0f7b2291e5b200ac8c7c3b925856040518082815260200191505060405180910390a35b50505050565b60105481565b60008054905090565b60008111151561121357600080fd5b3373ffffffffffffffffffffffffffffffffffffffff16600a600083815260200190815260200160002060009054906101000a900473ffffffffffffffffffffffffffffffffffffffff1673ffffffffffffffffffffffffffffffffffffffff1614151561128057600080fd5b600160078281548110151561129157fe5b906000526020600020906004020160030160026101000a81548160ff0219169083151502179055507f3f736ff1bf5c4bf87934f39f1b28f7991a787b08a0fcfffadb631c897fee3597816040518082815260200191505060405180910390a150565b60006002600083815260200190815260200160002060009054906101000a900473ffffffffffffffffffffffffffffffffffffffff169050919050565b6000600c60008373ffffffffffffffffffffffffffffffffffffffff1673ffffffffffffffffffffffffffffffffffffffff168152602001908152602001600020549050919050565b600c6020528060005260406000206000915090505481565b600660009054906101000a900473ffffffffffffffffffffffffffffffffffffffff1681565b600560009054906101000a900473ffffffffffffffffffffffffffffffffffffffff1673ffffffffffffffffffffffffffffffffffffffff163373ffffffffffffffffffffffffffffffffffffffff1614151561141357600080fd5b60008111151561142257600080fd5b6000151560078281548110151561143557fe5b906000526020600020906004020160030160009054906101000a900460ff16151514151561146257600080fd5b6000151560078281548110151561147557fe5b906000526020600020906004020160030160019054906101000a900460ff1615151415156114a257600080fd5b6000600e6000838152602001908152602001600020805490501115156114c757600080fd5b60016007828154811015156114d857fe5b906000526020600020906004020160030160006101000a81548160ff0219169083151502179055507f654d8eebe83f5c9a3d922533e6a30bcb25c11d78ce18b205a0bbc0a4391e1d00816040518082815260200191505060405180910390a150565b6000803373ffffffffffffffffffffffffffffffffffffffff16600a600088815260200190815260200160002060009054906101000a900473ffffffffffffffffffffffffffffffffffffffff1673ffffffffffffffffffffffffffffffffffffffff161415156115aa57600080fd5b6000861115156115b957600080fd5b6007868154811015156115c857fe5b90600052602060002090600402019050600015158160030160009054906101000a900460ff1615151415156115fc57600080fd5b600015158160030160019054906101000a900460ff16151514151561162057600080fd5b600015158160030160029054906101000a900460ff16151514151561164457600080fd5b61165086868686612660565b915050949350505050565b6000611665613509565b61166d613509565b60008060008060078881548110151561168257fe5b906000526020600020906004020190508060000160009054906101000a900473ffffffffffffffffffffffffffffffffffffffff169650806001018054600181600116156101000203166002900480601f0160208091040260200160405190810160405280929190818152602001828054600181600116156101000203166002900480156117515780601f1061172657610100808354040283529160200191611751565b820191906000526020600020905b81548152906001019060200180831161173457829003601f168201915b50505050509550806002018054600181600116156101000203166002900480601f0160208091040260200160405190810160405280929190818152602001828054600181600116156101000203166002900480156117f05780601f106117c5576101008083540402835291602001916117f0565b820191906000526020600020905b8154815290600101906020018083116117d357829003601f168201915b505050505094508060030160009054906101000a900460ff1693508060030160019054906101000a900460ff1692508060030160029054906101000a900460ff1691505091939550919395565b61184561351d565b600360008373ffffffffffffffffffffffffffffffffffffffff1673ffffffffffffffffffffffffffffffffffffffff1681526020019081526020016000208054806020026020016040519081016040528092919081815260200182805480156118ce57602002820191906000526020600020905b8154815260200190600101908083116118ba575b50505050509050919050565b600560009054906101000a900473ffffffffffffffffffffffffffffffffffffffff1673ffffffffffffffffffffffffffffffffffffffff163373ffffffffffffffffffffffffffffffffffffffff1614151561193657600080fd5b8067ffffffffffffffff1660108190555050565b6000806001600084815260200190815260200160002060009054906101000a900473ffffffffffffffffffffffffffffffffffffffff169050600073ffffffffffffffffffffffffffffffffffffffff168173ffffffffffffffffffffffffffffffffffffffff16141515156119bf57600080fd5b80915050919050565b6000806000806007866fffffffffffffffffffffffffffffffff168154811015156119ef57fe5b90600052602060002090600402019250600e6000876fffffffffffffffffffffffffffffffff1681526020019081526020016000208561ffff16815481101515611a3557fe5b9060005260206000209060040201915060018260020160029054906101000a900461ffff168360020160009054906101000a900461ffff160301905034600d6000886fffffffffffffffffffffffffffffffff1681526020019081526020016000206000828254019250508190555034601160008282540192505081905550611ad3866fffffffffffffffffffffffffffffffff1686833334612856565b935050505092915050565b6000600360008373ffffffffffffffffffffffffffffffffffffffff1673ffffffffffffffffffffffffffffffffffffffff168152602001908152602001600020805490509050919050565b60095481565b6000806000611b3d613509565b600080600e60008981526020019081526020016000208767ffffffffffffffff16815481101515611b6a57fe5b90600052602060002090600402019050806000015495508060020160009054906101000a900461ffff1661ffff1694508060020160029054906101000a900461ffff1661ffff169350806003018054600181600116156101000203166002900480601f016020809104026020016040519081016040528092919081815260200182805460018160011615610100020316600290048015611c4b5780601f10611c2057610100808354040283529160200191611c4b565b820191906000526020600020905b815481529060010190602001808311611c2e57829003601f168201915b5050505050925080600101549150509295509295909350565b600560009054906101000a900473ffffffffffffffffffffffffffffffffffffffff1681565b600f6020528060005260406000206000915054906101000a900467ffffffffffffffff1681565b600b60205281600052604060002081815481101515611ccc57fe5b9060005260206000209001600091509150505481565b611cea613509565b6040805190810160405280600381526020017f493c330000000000000000000000000000000000000000000000000000000000815250905090565b600e60205281600052604060002081815481101515611d4057fe5b9060005260206000209060040201600091509150508060000154908060010154908060020160009054906101000a900461ffff16908060020160029054906101000a900461ffff169080600301905085565b803373ffffffffffffffffffffffffffffffffffffffff16611db38261194a565b73ffffffffffffffffffffffffffffffffffffffff16141515611dd557600080fd5b611de03384846129fa565b505050565b600560009054906101000a900473ffffffffffffffffffffffffffffffffffffffff1673ffffffffffffffffffffffffffffffffffffffff163373ffffffffffffffffffffffffffffffffffffffff16141515611e4157600080fd5b6103e88111151515611e5257600080fd5b8060098190555050565b60008082111515611e6c57600080fd5b3373ffffffffffffffffffffffffffffffffffffffff16600a600084815260200190815260200160002060009054906101000a900473ffffffffffffffffffffffffffffffffffffffff1673ffffffffffffffffffffffffffffffffffffffff16141515611ed957600080fd5b6000600d600084815260200190815260200160002054111515611efb57600080fd5b600d60008381526020019081526020016000205490506000600d6000848152602001908152602001600020819055503373ffffffffffffffffffffffffffffffffffffffff166108fc829081150290604051600060405180830381858888f193505050501515611f6a57600080fd5b5050565b600080600560009054906101000a900473ffffffffffffffffffffffffffffffffffffffff1673ffffffffffffffffffffffffffffffffffffffff163373ffffffffffffffffffffffffffffffffffffffff16141515611fcd57600080fd5b600083111515611fdc57600080fd5b600783815481101515611feb57fe5b9060005260206000209060040201600080820160006101000a81549073ffffffffffffffffffffffffffffffffffffffff02191690556001820160006120319190613531565b6002820160006120419190613531565b6003820160006101000a81549060ff02191690556003820160016101000a81549060ff02191690556003820160026101000a81549060ff02191690555050600160078481548110151561209057fe5b906000526020600020906004020160030160016101000a81548160ff021916908315150217905550600560009054906101000a900473ffffffffffffffffffffffffffffffffffffffff166007848154811015156120ea57fe5b906000526020600020906004020160000160006101000a81548173ffffffffffffffffffffffffffffffffffffffff021916908373ffffffffffffffffffffffffffffffffffffffff160217905550600e60008481526020019081526020016000209150600090505b81805490508110156121d557818181548110151561216d57fe5b906000526020600020906004020160008082016000905560018201600090556002820160006101000a81549061ffff02191690556002820160026101000a81549061ffff02191690556003820160006121c69190613531565b50508080600101915050612153565b7fa107a556b4445af6c76c3d1fb0861a3a6eba0a2d7cde2778425369de1d5a171b836040518082815260200191505060405180910390a1505050565b61221b3382612b43565b151561222657600080fd5b6122396122328261194a565b33836129fa565b50565b600d6020528060005260406000206000915090505481565b60115481565b60003373ffffffffffffffffffffffffffffffffffffffff16600a600088815260200190815260200160002060009054906101000a900473ffffffffffffffffffffffffffffffffffffffff1673ffffffffffffffffffffffffffffffffffffffff161415156122c957600080fd5b6000861115156122d857600080fd5b6007868154811015156122e757fe5b90600052602060002090600402019050600015158160030160009054906101000a900460ff16151514151561231b57600080fd5b600015158160030160019054906101000a900460ff16151514151561233f57600080fd5b600015158160030160029054906101000a900460ff16151514151561236357600080fd5b6123708686868686612b84565b505050505050565b600a6020528060005260406000206000915054906101000a900473ffffffffffffffffffffffffffffffffffffffff1681565b6000806000806000806008878154811015156123c357fe5b9060005260206000209060030201905080600001549550806001015494508060020160149054906101000a900461ffff1693508060020160009054906101000a900473ffffffffffffffffffffffffffffffffffffffff1692508060020160169054906101000a900461ffff1691505091939590929450565b6000600d6000838152602001908152602001600020549050919050565b600560009054906101000a900473ffffffffffffffffffffffffffffffffffffffff1673ffffffffffffffffffffffffffffffffffffffff163373ffffffffffffffffffffffffffffffffffffffff161415156124b557600080fd5b600073ffffffffffffffffffffffffffffffffffffffff168173ffffffffffffffffffffffffffffffffffffffff16141515156124f157600080fd5b8073ffffffffffffffffffffffffffffffffffffffff16600560009054906101000a900473ffffffffffffffffffffffffffffffffffffffff1673ffffffffffffffffffffffffffffffffffffffff167f8be0079c531659141344cd1fd0a4f28419497f9722a3daafe3b4186f6b6457e060405160405180910390a380600560006101000a81548173ffffffffffffffffffffffffffffffffffffffff021916908373ffffffffffffffffffffffffffffffffffffffff16021790555050565b600080601054341415156125c457600080fd5b6125cf338585612c92565b9050601054600d6000838152602001908152602001600020600082825401925050819055508091505092915050565b6000600b60008473ffffffffffffffffffffffffffffffffffffffff1673ffffffffffffffffffffffffffffffffffffffff1681526020019081526020016000208281548110151561264c57fe5b906000526020600020900154905092915050565b600061266a613579565b600060a0604051908101604052808881526020018581526020018761ffff1681526020018761ffff168152602001868152509150600e600088815260200190815260200160002080548060010182816126c391906135b7565b91600052602060002090600402016000849091909150600082015181600001556020820151816001015560408201518160020160006101000a81548161ffff021916908361ffff16021790555060608201518160020160026101000a81548161ffff021916908361ffff160217905550608082015181600301908051906020019061274f9291906135e9565b5050509050600f6000888152602001908152602001600020600081819054906101000a900467ffffffffffffffff168092919060010191906101000a81548167ffffffffffffffff021916908367ffffffffffffffff16021790555050867fbcc78462243df19ab0f6e9bff38bc47cc381cc4600d2e33e08232d5f78e0e893866040518080602001828103825283818151815260200191508051906020019080838360005b8381101561280f5780820151818401526020810190506127f4565b50505050905090810190601f16801561283c5780820380516001836020036101000a031916815260200191505b509250505060405180910390a28092505050949350505050565b6000612860613669565b600060a0604051908101604052808981526020018581526020018673ffffffffffffffffffffffffffffffffffffffff1681526020018761ffff1681526020018861ffff168152509150600e60008981526020019081526020016000208761ffff168154811015156128ce57fe5b9060005260206000209060040201600201600281819054906101000a900461ffff16809291906001900391906101000a81548161ffff021916908361ffff160217905550506008805480600101828161292791906136b7565b91600052602060002090600302016000849091909150600082015181600001556020820151816001015560408201518160020160006101000a81548173ffffffffffffffffffffffffffffffffffffffff021916908373ffffffffffffffffffffffffffffffffffffffff16021790555060608201518160020160146101000a81548161ffff021916908361ffff16021790555060808201518160020160166101000a81548161ffff021916908361ffff160217905550505090506129ec8582612f5c565b809250505095945050505050565b600073ffffffffffffffffffffffffffffffffffffffff168273ffffffffffffffffffffffffffffffffffffffff1614151515612a3657600080fd5b612a3f8161194a565b73ffffffffffffffffffffffffffffffffffffffff168273ffffffffffffffffffffffffffffffffffffffff1614151515612a7957600080fd5b8273ffffffffffffffffffffffffffffffffffffffff16612a998261194a565b73ffffffffffffffffffffffffffffffffffffffff16141515612abb57600080fd5b612ac58382612ff6565b612acf83826130df565b612ad98282613367565b8173ffffffffffffffffffffffffffffffffffffffff168373ffffffffffffffffffffffffffffffffffffffff167fddf252ad1be2c89b69c2b068fc378daa952ba7f163c4a11628f55a4df523b3ef836040518082815260200191505060405180910390a3505050565b60008273ffffffffffffffffffffffffffffffffffffffff16612b65836112f3565b73ffffffffffffffffffffffffffffffffffffffff1614905092915050565b600f600086815260200190815260200160002060009054906101000a900467ffffffffffffffff1667ffffffffffffffff1684101515612bc357600080fd5b82600e600087815260200190815260200160002085815481101515612be457fe5b906000526020600020906004020160020160006101000a81548161ffff021916908361ffff16021790555081600e600087815260200190815260200160002085815481101515612c3057fe5b90600052602060002090600402016003019080519060200190612c549291906136e9565b5080600e600087815260200190815260200160002085815481101515612c7657fe5b9060005260206000209060040201600101819055505050505050565b6000612c9c613769565b600060c0604051908101604052808773ffffffffffffffffffffffffffffffffffffffff16815260200186815260200185815260200160001515815260200160001515815260200160001515815250915060078054806001018281612d0191906137c8565b9160005260206000209060040201600084909190915060008201518160000160006101000a81548173ffffffffffffffffffffffffffffffffffffffff021916908373ffffffffffffffffffffffffffffffffffffffff1602179055506020820151816001019080519060200190612d7a9291906135e9565b506040820151816002019080519060200190612d979291906135e9565b5060608201518160030160006101000a81548160ff02191690831515021790555060808201518160030160016101000a81548160ff02191690831515021790555060a08201518160030160026101000a81548160ff0219169083151502179055505050905085600a600083815260200190815260200160002060006101000a81548173ffffffffffffffffffffffffffffffffffffffff021916908373ffffffffffffffffffffffffffffffffffffffff160217905550600b60008773ffffffffffffffffffffffffffffffffffffffff1673ffffffffffffffffffffffffffffffffffffffff1681526020019081526020016000208054806001018281612e9f91906137fa565b9160005260206000209001600083909190915055506001600c60008873ffffffffffffffffffffffffffffffffffffffff1673ffffffffffffffffffffffffffffffffffffffff168152602001908152602001600020600082825401925050819055508573ffffffffffffffffffffffffffffffffffffffff167f8947cb78db2ffa53132a4e627ea0e20920cf6edd68b7b07989687e1a28e0bac7826040518082815260200191505060405180910390a280925050509392505050565b600073ffffffffffffffffffffffffffffffffffffffff168273ffffffffffffffffffffffffffffffffffffffff1614151515612f9857600080fd5b612fa28282613367565b8173ffffffffffffffffffffffffffffffffffffffff1660007fddf252ad1be2c89b69c2b068fc378daa952ba7f163c4a11628f55a4df523b3ef836040518082815260200191505060405180910390a35050565b8173ffffffffffffffffffffffffffffffffffffffff166130168261194a565b73ffffffffffffffffffffffffffffffffffffffff1614151561303857600080fd5b60006002600083815260200190815260200160002060006101000a81548173ffffffffffffffffffffffffffffffffffffffff021916908373ffffffffffffffffffffffffffffffffffffffff16021790555060008273ffffffffffffffffffffffffffffffffffffffff167f8c5be1e5ebec7d5bd14f71427d1e84f3dd0314c0f7b2291e5b200ac8c7c3b925836040518082815260200191505060405180910390a35050565b60008060008473ffffffffffffffffffffffffffffffffffffffff166131048561194a565b73ffffffffffffffffffffffffffffffffffffffff1614151561312657600080fd5b60046000858152602001908152602001600020549250613158600161314a87611ade565b6134d290919063ffffffff16565b9150600360008673ffffffffffffffffffffffffffffffffffffffff1673ffffffffffffffffffffffffffffffffffffffff168152602001908152602001600020828154811015156131a657fe5b906000526020600020900154905060006001600086815260200190815260200160002060006101000a81548173ffffffffffffffffffffffffffffffffffffffff021916908373ffffffffffffffffffffffffffffffffffffffff16021790555080600360008773ffffffffffffffffffffffffffffffffffffffff1673ffffffffffffffffffffffffffffffffffffffff1681526020019081526020016000208481548110151561325457fe5b9060005260206000209001819055506000600360008773ffffffffffffffffffffffffffffffffffffffff1673ffffffffffffffffffffffffffffffffffffffff168152602001908152602001600020838154811015156132b157fe5b906000526020600020900181905550600360008673ffffffffffffffffffffffffffffffffffffffff1673ffffffffffffffffffffffffffffffffffffffff1681526020019081526020016000208054809190600190036133129190613826565b506000600460008681526020019081526020016000208190555082600460008381526020019081526020016000208190555061335a60016000546134d290919063ffffffff16565b6000819055505050505050565b60008073ffffffffffffffffffffffffffffffffffffffff166001600084815260200190815260200160002060009054906101000a900473ffffffffffffffffffffffffffffffffffffffff1673ffffffffffffffffffffffffffffffffffffffff161415156133d657600080fd5b826001600084815260200190815260200160002060006101000a81548173ffffffffffffffffffffffffffffffffffffffff021916908373ffffffffffffffffffffffffffffffffffffffff16021790555061343183611ade565b9050600360008473ffffffffffffffffffffffffffffffffffffffff1673ffffffffffffffffffffffffffffffffffffffff168152602001908152602001600020805480600101828161348491906137fa565b9160005260206000209001600084909190915055508060046000848152602001908152602001600020819055506134c760016000546134eb90919063ffffffff16565b600081905550505050565b60008282111515156134e057fe5b818303905092915050565b60008082840190508381101515156134ff57fe5b8091505092915050565b602060405190810160405280600081525090565b602060405190810160405280600081525090565b50805460018160011615610100020316600290046000825580601f106135575750613576565b601f0160209004906000526020600020908101906135759190613852565b5b50565b60a0604051908101604052806000815260200160008152602001600061ffff168152602001600061ffff1681526020016135b1613877565b81525090565b8154818355818115116135e4576004028160040283600052602060002091820191016135e3919061388b565b5b505050565b828054600181600116156101000203166002900490600052602060002090601f016020900481019282601f1061362a57805160ff1916838001178555613658565b82800160010185558215613658579182015b8281111561365757825182559160200191906001019061363c565b5b5090506136659190613852565b5090565b60a0604051908101604052806000815260200160008152602001600073ffffffffffffffffffffffffffffffffffffffff168152602001600061ffff168152602001600061ffff1681525090565b8154818355818115116136e4576003028160030283600052602060002091820191016136e391906138f4565b5b505050565b828054600181600116156101000203166002900490600052602060002090601f016020900481019282601f1061372a57805160ff1916838001178555613758565b82800160010185558215613758579182015b8281111561375757825182559160200191906001019061373c565b5b5090506137659190613852565b5090565b60c060405190810160405280600073ffffffffffffffffffffffffffffffffffffffff16815260200161379a613877565b81526020016137a7613877565b81526020016000151581526020016000151581526020016000151581525090565b8154818355818115116137f5576004028160040283600052602060002091820191016137f49190613974565b5b505050565b815481835581811511613821578183600052602060002091820191016138209190613852565b5b505050565b81548183558181151161384d5781836000526020600020918201910161384c9190613852565b5b505050565b61387491905b80821115613870576000816000905550600101613858565b5090565b90565b602060405190810160405280600081525090565b6138f191905b808211156138ed5760008082016000905560018201600090556002820160006101000a81549061ffff02191690556002820160026101000a81549061ffff02191690556003820160006138e49190613531565b50600401613891565b5090565b90565b61397191905b8082111561396d5760008082016000905560018201600090556002820160006101000a81549073ffffffffffffffffffffffffffffffffffffffff02191690556002820160146101000a81549061ffff02191690556002820160166101000a81549061ffff0219169055506003016138fa565b5090565b90565b613a1391905b80821115613a0f57600080820160006101000a81549073ffffffffffffffffffffffffffffffffffffffff02191690556001820160006139ba9190613531565b6002820160006139ca9190613531565b6003820160006101000a81549060ff02191690556003820160016101000a81549060ff02191690556003820160026101000a81549060ff02191690555060040161397a565b5090565b905600a165627a7a723058202f39867088c33200a526ba90804146abac68cc505e56ff54348d34f63efb44c60029",
  "source": "pragma solidity 0.4.19;\n\nimport \"./dapp/IGVCore.sol\";\n\ncontract IGVDAPP is IGVCore {\n    function IGVDAPP() public {\n    founderAddress = msg.sender;\n\n    _createCampaign(msg.sender, \"Genesis Campaign\", \"\");\n    _createCertificate(0, 1, \"Genesis Certificate\", 0);\n    _createToken(0, 0, 0, msg.sender, 0);\n  }\n}",
  "sourcePath": "/home/hayek/proj/igave-contracts/contracts/IGVDAPP.sol",
  "compiler": {
    "name": "solc",
    "version": "0.4.19+commit.c4cbbb05.Emscripten.clang"
  },
  "schemaVersion": "1.0.1",
  "updatedAt": "2018-03-20T08:16:02.501Z"
}