{
  "contractName": "LiquidDemocracy",
  "abi": [
    {
      "constant": true,
      "inputs": [],
      "name": "numberOfVotes",
      "outputs": [
        {
          "name": "",
          "type": "uint256"
        }
      ],
      "payable": false,
      "stateMutability": "view",
      "type": "function"
    },
    {
      "constant": true,
      "inputs": [],
      "name": "lastWeightCalculation",
      "outputs": [
        {
          "name": "",
          "type": "uint256"
        }
      ],
      "payable": false,
      "stateMutability": "view",
      "type": "function"
    },
    {
      "constant": true,
      "inputs": [],
      "name": "delegatedPercent",
      "outputs": [
        {
          "name": "",
          "type": "uint256"
        }
      ],
      "payable": false,
      "stateMutability": "view",
      "type": "function"
    },
    {
      "constant": true,
      "inputs": [
        {
          "name": "",
          "type": "address"
        }
      ],
      "name": "voterId",
      "outputs": [
        {
          "name": "",
          "type": "uint256"
        }
      ],
      "payable": false,
      "stateMutability": "view",
      "type": "function"
    },
    {
      "constant": false,
      "inputs": [
        {
          "name": "nominatedAddress",
          "type": "address"
        }
      ],
      "name": "vote",
      "outputs": [
        {
          "name": "voteIndex",
          "type": "uint256"
        }
      ],
      "payable": false,
      "stateMutability": "nonpayable",
      "type": "function"
    },
    {
      "constant": true,
      "inputs": [
        {
          "name": "",
          "type": "address"
        }
      ],
      "name": "voteWeight",
      "outputs": [
        {
          "name": "",
          "type": "uint256"
        }
      ],
      "payable": false,
      "stateMutability": "view",
      "type": "function"
    },
    {
      "constant": true,
      "inputs": [],
      "name": "numberOfDelegationRounds",
      "outputs": [
        {
          "name": "",
          "type": "uint256"
        }
      ],
      "payable": false,
      "stateMutability": "view",
      "type": "function"
    },
    {
      "constant": true,
      "inputs": [],
      "name": "appointee",
      "outputs": [
        {
          "name": "",
          "type": "address"
        }
      ],
      "payable": false,
      "stateMutability": "view",
      "type": "function"
    },
    {
      "constant": true,
      "inputs": [],
      "name": "votingToken",
      "outputs": [
        {
          "name": "",
          "type": "address"
        }
      ],
      "payable": false,
      "stateMutability": "view",
      "type": "function"
    },
    {
      "constant": true,
      "inputs": [],
      "name": "forbiddenFunction",
      "outputs": [
        {
          "name": "",
          "type": "string"
        }
      ],
      "payable": false,
      "stateMutability": "view",
      "type": "function"
    },
    {
      "constant": false,
      "inputs": [
        {
          "name": "target",
          "type": "address"
        },
        {
          "name": "valueInWei",
          "type": "uint256"
        },
        {
          "name": "bytecode",
          "type": "bytes32"
        }
      ],
      "name": "execute",
      "outputs": [],
      "payable": false,
      "stateMutability": "nonpayable",
      "type": "function"
    },
    {
      "constant": true,
      "inputs": [
        {
          "name": "",
          "type": "uint256"
        }
      ],
      "name": "delegatedVotes",
      "outputs": [
        {
          "name": "nominee",
          "type": "address"
        },
        {
          "name": "voter",
          "type": "address"
        }
      ],
      "payable": false,
      "stateMutability": "view",
      "type": "function"
    },
    {
      "constant": false,
      "inputs": [],
      "name": "calculateVotes",
      "outputs": [
        {
          "name": "winner",
          "type": "address"
        }
      ],
      "payable": false,
      "stateMutability": "nonpayable",
      "type": "function"
    },
    {
      "inputs": [
        {
          "name": "votingWeightToken",
          "type": "address"
        },
        {
          "name": "forbiddenFunctionCall",
          "type": "string"
        },
        {
          "name": "percentLossInEachRound",
          "type": "uint256"
        }
      ],
      "payable": false,
      "stateMutability": "nonpayable",
      "type": "constructor"
    },
    {
      "anonymous": false,
      "inputs": [
        {
          "indexed": false,
          "name": "newAppointee",
          "type": "address"
        },
        {
          "indexed": false,
          "name": "changed",
          "type": "bool"
        }
      ],
      "name": "NewAppointee",
      "type": "event"
    }
  ],
  "bytecode": "0x606060405234156200001057600080fd5b604051620015dc380380620015dc83398101604052808051906020019091908051820191906020018051906020019091905050826000806101000a81548173ffffffffffffffffffffffffffffffffffffffff021916908373ffffffffffffffffffffffffffffffffffffffff16021790555060088054809190600101620000999190620001ce565b506040805190810160405280600073ffffffffffffffffffffffffffffffffffffffff168152602001600073ffffffffffffffffffffffffffffffffffffffff1681525060086000815481101515620000ee57fe5b906000526020600020906002020160008201518160000160006101000a81548173ffffffffffffffffffffffffffffffffffffffff021916908373ffffffffffffffffffffffffffffffffffffffff16021790555060208201518160010160006101000a81548173ffffffffffffffffffffffffffffffffffffffff021916908373ffffffffffffffffffffffffffffffffffffffff1602179055509050508160099080519060200190620001a592919062000203565b508060640360048190555060646004541115620001c55760646004819055505b50505062000322565b815481835581811511620001fe57600202816002028360005260206000209182019101620001fd91906200028a565b5b505050565b828054600181600116156101000203166002900490600052602060002090601f016020900481019282601f106200024657805160ff191683800117855562000277565b8280016001018555821562000277579182015b828111156200027657825182559160200191906001019062000259565b5b509050620002869190620002fa565b5090565b620002f791905b80821115620002f357600080820160006101000a81549073ffffffffffffffffffffffffffffffffffffffff02191690556001820160006101000a81549073ffffffffffffffffffffffffffffffffffffffff02191690555060020162000291565b5090565b90565b6200031f91905b808211156200031b57600081600090555060010162000301565b5090565b90565b6112aa80620003326000396000f3006060604052600436106100c5576000357c0100000000000000000000000000000000000000000000000000000000900463ffffffff1680630e7d490d146100ca57806317f73bd2146100f35780634d87682c1461011c5780634e897592146101455780636dd7d8ea146101925780637eadebfe146101df57806382794fb51461022c5780638b5857f814610255578063b0340123146102aa578063bba594fd146102ff578063c0d061f41461038d578063cf06678c146103dc578063f2ba18ed14610472575b600080fd5b34156100d557600080fd5b6100dd6104c7565b6040518082815260200191505060405180910390f35b34156100fe57600080fd5b6101066104cd565b6040518082815260200191505060405180910390f35b341561012757600080fd5b61012f6104d3565b6040518082815260200191505060405180910390f35b341561015057600080fd5b61017c600480803573ffffffffffffffffffffffffffffffffffffffff169060200190919050506104d9565b6040518082815260200191505060405180910390f35b341561019d57600080fd5b6101c9600480803573ffffffffffffffffffffffffffffffffffffffff169060200190919050506104f1565b6040518082815260200191505060405180910390f35b34156101ea57600080fd5b610216600480803573ffffffffffffffffffffffffffffffffffffffff169060200190919050506106f1565b6040518082815260200191505060405180910390f35b341561023757600080fd5b61023f610709565b6040518082815260200191505060405180910390f35b341561026057600080fd5b61026861070f565b604051808273ffffffffffffffffffffffffffffffffffffffff1673ffffffffffffffffffffffffffffffffffffffff16815260200191505060405180910390f35b34156102b557600080fd5b6102bd610735565b604051808273ffffffffffffffffffffffffffffffffffffffff1673ffffffffffffffffffffffffffffffffffffffff16815260200191505060405180910390f35b341561030a57600080fd5b61031261075a565b6040518080602001828103825283818151815260200191508051906020019080838360005b83811015610352578082015181840152602081019050610337565b50505050905090810190601f16801561037f5780820380516001836020036101000a031916815260200191505b509250505060405180910390f35b341561039857600080fd5b6103da600480803573ffffffffffffffffffffffffffffffffffffffff16906020019091908035906020019091908035600019169060200190919050506107f8565b005b34156103e757600080fd5b6103fd60048080359060200190919050506109b4565b604051808373ffffffffffffffffffffffffffffffffffffffff1673ffffffffffffffffffffffffffffffffffffffff1681526020018273ffffffffffffffffffffffffffffffffffffffff1673ffffffffffffffffffffffffffffffffffffffff1681526020019250505060405180910390f35b341561047d57600080fd5b610485610a27565b604051808273ffffffffffffffffffffffffffffffffffffffff1673ffffffffffffffffffffffffffffffffffffffff16815260200191505060405180910390f35b60075481565b60055481565b60045481565b60026020528060005260406000206000915090505481565b600080600260003373ffffffffffffffffffffffffffffffffffffffff1673ffffffffffffffffffffffffffffffffffffffff1681526020019081526020016000205414156105b757600880549050600260003373ffffffffffffffffffffffffffffffffffffffff1673ffffffffffffffffffffffffffffffffffffffff16815260200190815260200160002081905550600760008154809291906001019190505550600880548091906001016105a991906111df565b9050806007819055506105fa565b600260003373ffffffffffffffffffffffffffffffffffffffff1673ffffffffffffffffffffffffffffffffffffffff1681526020019081526020016000205490505b60408051908101604052808373ffffffffffffffffffffffffffffffffffffffff1681526020013373ffffffffffffffffffffffffffffffffffffffff1681525060088281548110151561064a57fe5b906000526020600020906002020160008201518160000160006101000a81548173ffffffffffffffffffffffffffffffffffffffff021916908373ffffffffffffffffffffffffffffffffffffffff16021790555060208201518160010160006101000a81548173ffffffffffffffffffffffffffffffffffffffff021916908373ffffffffffffffffffffffffffffffffffffffff160217905550905050809050919050565b60036020528060005260406000206000915090505481565b60065481565b600160009054906101000a900473ffffffffffffffffffffffffffffffffffffffff1681565b6000809054906101000a900473ffffffffffffffffffffffffffffffffffffffff1681565b60098054600181600116156101000203166002900480601f0160208091040260200160405190810160405280929190818152602001828054600181600116156101000203166002900480156107f05780601f106107c5576101008083540402835291602001916107f0565b820191906000526020600020905b8154815290600101906020018083116107d357829003601f168201915b505050505081565b600160009054906101000a900473ffffffffffffffffffffffffffffffffffffffff1673ffffffffffffffffffffffffffffffffffffffff163373ffffffffffffffffffffffffffffffffffffffff161480156108625750600060149054906101000a900460ff16155b80156109155750600960405180828054600181600116156101000203166002900480156108c65780601f106108a45761010080835404028352918201916108c6565b820191906000526020600020905b8154815290600101906020018083116108b2575b505091505060405180910390207bffffffffffffffffffffffffffffffffffffffffffffffffffffffff1916817bffffffffffffffffffffffffffffffffffffffffffffffffffffffff191614155b80156109245750600460065410155b151561092f57600080fd5b6001600060146101000a81548160ff0219169083151502179055508273ffffffffffffffffffffffffffffffffffffffff16828260405180826000191660001916815260200191505060006040518083038185876187965a03f192505050151561099557fe5b60008060146101000a81548160ff021916908315150217905550505050565b6008818154811015156109c357fe5b90600052602060002090600202016000915090508060000160009054906101000a900473ffffffffffffffffffffffffffffffffffffffff16908060010160009054906101000a900473ffffffffffffffffffffffffffffffffffffffff16905082565b6000806000806000806000600160009054906101000a900473ffffffffffffffffffffffffffffffffffffffff169550600094506000935060086000815481101515610a6f57fe5b9060005260206000209060020201925061151860055401421115610d0657600060068190555042600581905550600191505b600880549050821015610b4057600060036000600885815481101515610ac357fe5b906000526020600020906002020160000160009054906101000a900473ffffffffffffffffffffffffffffffffffffffff1673ffffffffffffffffffffffffffffffffffffffff1673ffffffffffffffffffffffffffffffffffffffff168152602001908152602001600020819055508180600101925050610aa1565b600191505b600880549050821015610d01576000809054906101000a900473ffffffffffffffffffffffffffffffffffffffff1673ffffffffffffffffffffffffffffffffffffffff166370a08231600884815481101515610b9e57fe5b906000526020600020906002020160010160009054906101000a900473ffffffffffffffffffffffffffffffffffffffff166000604051602001526040518263ffffffff167c0100000000000000000000000000000000000000000000000000000000028152600401808273ffffffffffffffffffffffffffffffffffffffff1673ffffffffffffffffffffffffffffffffffffffff168152602001915050602060405180830381600087803b1515610c5657600080fd5b6102c65a03f11515610c6757600080fd5b5050506040518051905060036000600885815481101515610c8457fe5b906000526020600020906002020160010160009054906101000a900473ffffffffffffffffffffffffffffffffffffffff1673ffffffffffffffffffffffffffffffffffffffff1673ffffffffffffffffffffffffffffffffffffffff168152602001908152602001600020819055508180600101925050610b45565b6110c7565b60066000815480929190600101919050555060065460640a6006546004540a606402811515610d3157fe5b04905060008111156110c657600191505b6008805490508210156110c557600882815481101515610d5e57fe5b906000526020600020906002020192508260010160009054906101000a900473ffffffffffffffffffffffffffffffffffffffff1673ffffffffffffffffffffffffffffffffffffffff168360000160009054906101000a900473ffffffffffffffffffffffffffffffffffffffff1673ffffffffffffffffffffffffffffffffffffffff1614158015610e5557506000600360008560010160009054906101000a900473ffffffffffffffffffffffffffffffffffffffff1673ffffffffffffffffffffffffffffffffffffffff1673ffffffffffffffffffffffffffffffffffffffff16815260200190815260200160002054115b15610fb157606481600360008660010160009054906101000a900473ffffffffffffffffffffffffffffffffffffffff1673ffffffffffffffffffffffffffffffffffffffff1673ffffffffffffffffffffffffffffffffffffffff1681526020019081526020016000205402811515610ecb57fe5b04935083600360008560010160009054906101000a900473ffffffffffffffffffffffffffffffffffffffff1673ffffffffffffffffffffffffffffffffffffffff1673ffffffffffffffffffffffffffffffffffffffff1681526020019081526020016000206000828254039250508190555083600360008560000160009054906101000a900473ffffffffffffffffffffffffffffffffffffffff1673ffffffffffffffffffffffffffffffffffffffff1673ffffffffffffffffffffffffffffffffffffffff168152602001908152602001600020600082825401925050819055505b6003600654118015611025575084600360008560000160009054906101000a900473ffffffffffffffffffffffffffffffffffffffff1673ffffffffffffffffffffffffffffffffffffffff1673ffffffffffffffffffffffffffffffffffffffff16815260200190815260200160002054115b156110b8578260000160009054906101000a900473ffffffffffffffffffffffffffffffffffffffff169550600360008460000160009054906101000a900473ffffffffffffffffffffffffffffffffffffffff1673ffffffffffffffffffffffffffffffffffffffff1673ffffffffffffffffffffffffffffffffffffffff1681526020019081526020016000205494505b8180600101925050610d42565b5b5b600360065411156111d3577f7b6dba0884bbc1719217cd768dabba6ae4c3e11387e26ed3577f16e0a83143d7868773ffffffffffffffffffffffffffffffffffffffff16600160009054906101000a900473ffffffffffffffffffffffffffffffffffffffff1673ffffffffffffffffffffffffffffffffffffffff1614604051808373ffffffffffffffffffffffffffffffffffffffff1673ffffffffffffffffffffffffffffffffffffffff168152602001821515151581526020019250505060405180910390a185600160006101000a81548173ffffffffffffffffffffffffffffffffffffffff021916908373ffffffffffffffffffffffffffffffffffffffff1602179055505b85965050505050505090565b81548183558181151161120c5760020281600202836000526020600020918201910161120b9190611211565b5b505050565b61127b91905b8082111561127757600080820160006101000a81549073ffffffffffffffffffffffffffffffffffffffff02191690556001820160006101000a81549073ffffffffffffffffffffffffffffffffffffffff021916905550600201611217565b5090565b905600a165627a7a7230582010572450b4a4f75ef21726982b2df17d2d1014fe39301c23ddc19d87e781054f0029",
  "source": "pragma solidity 0.4.18;\n\ncontract token {\n    mapping (address => uint256) public balanceOf;\n}\n\ncontract LiquidDemocracy {\n    token public votingToken;\n    bool  underExecution;\n    address public appointee;\n    mapping (address => uint) public voterId;\n    mapping (address => uint256) public voteWeight;\n\n    uint public delegatedPercent;\n    uint public lastWeightCalculation;\n    uint public numberOfDelegationRounds;\n\n    uint public numberOfVotes;\n    DelegatedVote[] public delegatedVotes;\n    string public forbiddenFunction;\n\n    event NewAppointee(address newAppointee, bool changed);\n\n    struct DelegatedVote {\n        address nominee;\n        address voter;\n    }\n\n    /**\n     * Constructor function\n     */\n    function LiquidDemocracy(\n        address votingWeightToken,\n        string forbiddenFunctionCall,\n        uint percentLossInEachRound\n    ) {\n        votingToken = token(votingWeightToken);\n        delegatedVotes.length++;\n        delegatedVotes[0] = DelegatedVote({nominee: 0, voter: 0});\n        forbiddenFunction = forbiddenFunctionCall;\n        delegatedPercent = 100 - percentLossInEachRound;\n        if (delegatedPercent > 100) delegatedPercent = 100;\n    }\n\n    /**\n     * Vote for an address\n     *\n     * Send your vote weight to another address\n     *\n     * @param nominatedAddress the destination address receiving the sender's vote\n     */\n    function vote(address nominatedAddress) returns (uint voteIndex) {\n        if (voterId[msg.sender]== 0) {\n            voterId[msg.sender] = delegatedVotes.length;\n            numberOfVotes++;\n            voteIndex = delegatedVotes.length++;\n            numberOfVotes = voteIndex;\n        }\n        else {\n            voteIndex = voterId[msg.sender];\n        }\n\n        delegatedVotes[voteIndex] = DelegatedVote({nominee: nominatedAddress, voter: msg.sender});\n\n        return voteIndex;\n    }\n\n    /**\n     * Perform Executive Action\n     *\n     * @param target the destination address to interact with\n     * @param valueInWei the amount of ether to send along with the transaction\n     * @param bytecode the data bytecode for the transaction\n     */\n    function execute(address target, uint valueInWei, bytes32 bytecode) {\n        require(msg.sender == appointee                             // If caller is the current appointee,\n            && !underExecution //                                   // if the call is being executed,\n            && bytes4(bytecode) != bytes4(sha3(forbiddenFunction))  // and it's not trying to do the forbidden function\n            && numberOfDelegationRounds >= 4);                     // and delegation has been calculated enough\n\n        underExecution = true;\n        assert(target.call.value(valueInWei)(bytecode)); // Then execute the command.\n        underExecution = false;\n    }\n\n    /**\n     * Calculate Votes\n     *\n     * Go thruogh all the delegated vote logs and tally up each address's total rank\n     */\n    function calculateVotes() returns (address winner) {\n        address currentWinner = appointee;\n        uint currentMax = 0;\n        uint weight = 0;\n        DelegatedVote storage v = delegatedVotes[0];\n\n        if (now > lastWeightCalculation + 90 minutes) {\n            numberOfDelegationRounds = 0;\n            lastWeightCalculation = now;\n\n            // Distribute the initial weight\n            for (uint i=1; i< delegatedVotes.length; i++) {\n                voteWeight[delegatedVotes[i].nominee] = 0;\n            }\n            for (i=1; i< delegatedVotes.length; i++) {\n                voteWeight[delegatedVotes[i].voter] = votingToken.balanceOf(delegatedVotes[i].voter);\n            }\n        }\n        else {\n            numberOfDelegationRounds++;\n            uint lossRatio = 100 * delegatedPercent ** numberOfDelegationRounds / 100 ** numberOfDelegationRounds;\n            if (lossRatio > 0) {\n                for (i=1; i< delegatedVotes.length; i++){\n                    v = delegatedVotes[i];\n\n                    if (v.nominee != v.voter && voteWeight[v.voter] > 0) {\n                        weight = voteWeight[v.voter] * lossRatio / 100;\n                        voteWeight[v.voter] -= weight;\n                        voteWeight[v.nominee] += weight;\n                    }\n\n                    if (numberOfDelegationRounds>3 && voteWeight[v.nominee] > currentMax) {\n                        currentWinner = v.nominee;\n                        currentMax = voteWeight[v.nominee];\n                    }\n                }\n            }\n        }\n\n        if (numberOfDelegationRounds > 3) {\n            NewAppointee(currentWinner, appointee == currentWinner);\n            appointee = currentWinner;\n        }\n\n        return currentWinner;\n    }\n}\n",
  "sourcePath": "/home/hayek/proj/igave-crowdsale/contracts/dao/LiquidDemocracy.sol",
  "compiler": {
    "name": "solc",
    "version": "0.4.18+commit.9cf6e910.Emscripten.clang"
  },
  "schemaVersion": "1.0.1",
  "updatedAt": "2018-02-01T07:53:59.616Z"
}