{
  "contractName": "MultiTenantAdapter",
  "abi": [
    {
      "constant": true,
      "inputs": [
        {
          "name": "",
          "type": "uint256"
        }
      ],
      "name": "_tokenAddresses",
      "outputs": [
        {
          "name": "",
          "type": "address"
        }
      ],
      "payable": false,
      "stateMutability": "view",
      "type": "function"
    },
    {
      "constant": false,
      "inputs": [
        {
          "name": "index",
          "type": "uint256"
        },
        {
          "name": "someBenignContract",
          "type": "address"
        }
      ],
      "name": "removeMember",
      "outputs": [],
      "payable": false,
      "stateMutability": "nonpayable",
      "type": "function"
    },
    {
      "constant": false,
      "inputs": [
        {
          "name": "newMember",
          "type": "address"
        }
      ],
      "name": "addMember",
      "outputs": [],
      "payable": false,
      "stateMutability": "nonpayable",
      "type": "function"
    },
    {
      "constant": false,
      "inputs": [
        {
          "name": "tokenAddress",
          "type": "address"
        },
        {
          "name": "voteWeight",
          "type": "uint256"
        }
      ],
      "name": "adjustVoteWeight",
      "outputs": [
        {
          "name": "",
          "type": "uint256"
        }
      ],
      "payable": false,
      "stateMutability": "nonpayable",
      "type": "function"
    },
    {
      "inputs": [],
      "payable": false,
      "stateMutability": "nonpayable",
      "type": "constructor"
    },
    {
      "constant": false,
      "inputs": [
        {
          "name": "holder",
          "type": "address"
        }
      ],
      "name": "balanceOf",
      "outputs": [
        {
          "name": "",
          "type": "uint256"
        }
      ],
      "payable": false,
      "stateMutability": "nonpayable",
      "type": "function"
    }
  ],
  "bytecode": "0x6060604052341561000f57600080fd5b6104ed8061001e6000396000f30060606040526004361061006d576000357c0100000000000000000000000000000000000000000000000000000000900463ffffffff16806365ea090f146100725780636be7658b146100d557806370a0823114610117578063ca6d56dc14610164578063f723d8651461019d575b600080fd5b341561007d57600080fd5b61009360048080359060200190919050506101f3565b604051808273ffffffffffffffffffffffffffffffffffffffff1673ffffffffffffffffffffffffffffffffffffffff16815260200191505060405180910390f35b34156100e057600080fd5b610115600480803590602001909190803573ffffffffffffffffffffffffffffffffffffffff16906020019091905050610232565b005b341561012257600080fd5b61014e600480803573ffffffffffffffffffffffffffffffffffffffff1690602001909190505061028f565b6040518082815260200191505060405180910390f35b341561016f57600080fd5b61019b600480803573ffffffffffffffffffffffffffffffffffffffff169060200190919050506103ff565b005b34156101a857600080fd5b6101dd600480803573ffffffffffffffffffffffffffffffffffffffff16906020019091908035906020019091905050610465565b6040518082815260200191505060405180910390f35b60008181548110151561020257fe5b90600052602060002090016000915054906101000a900473ffffffffffffffffffffffffffffffffffffffff1681565b8060008381548110151561024257fe5b906000526020600020900160006101000a81548173ffffffffffffffffffffffffffffffffffffffff021916908373ffffffffffffffffffffffffffffffffffffffff1602179055505050565b6000806000809150600090505b6000805490508110156103f5576103e46000828154811015156102bb57fe5b906000526020600020900160009054906101000a900473ffffffffffffffffffffffffffffffffffffffff166000838154811015156102f657fe5b906000526020600020900160009054906101000a900473ffffffffffffffffffffffffffffffffffffffff1673ffffffffffffffffffffffffffffffffffffffff166370a08231876000604051602001526040518263ffffffff167c0100000000000000000000000000000000000000000000000000000000028152600401808273ffffffffffffffffffffffffffffffffffffffff1673ffffffffffffffffffffffffffffffffffffffff168152602001915050602060405180830381600087803b15156103c457600080fd5b6102c65a03f115156103d557600080fd5b50505060405180519050610465565b82019150808060010191505061029c565b8192505050919050565b600080548060010182816104139190610470565b9160005260206000209001600083909190916101000a81548173ffffffffffffffffffffffffffffffffffffffff021916908373ffffffffffffffffffffffffffffffffffffffff1602179055505050565b600081905092915050565b81548183558181151161049757818360005260206000209182019101610496919061049c565b5b505050565b6104be91905b808211156104ba5760008160009055506001016104a2565b5090565b905600a165627a7a72305820c589337be77b723964b97bae890f848e445ae5286901e7b5b866d99f701dc3d40029",
  "source": "pragma solidity 0.4.19;\n\ncontract Token {\n  function balanceOf(address who) public view returns (uint256);\n}\n\ncontract MultiTenantAdapter {\n  Token[] public _tokenAddresses;\n\n  function MultiTenantAdapter() {\n\n  }\n\n  function balanceOf(address holder) public returns (uint256) {\n    uint256 balance = 0;\n    for (uint256 i = 0; i < _tokenAddresses.length; i++) {\n      balance += adjustVoteWeight(\n        _tokenAddresses[i],\n        _tokenAddresses[i].balanceOf(holder)\n      );\n    }\n    return balance;\n  }\n\n  function addMember(address newMember) {\n    _tokenAddresses.push(Token(newMember));\n  }\n\n  /*\n   * TODO: Solve the management problem. See Array Delete\n   * For now, change removed member's address to a benign\n   * contract that returns 0 for every address. But I'm in a parking lot in SF =D\n   **/\n  function removeMember(uint256 index, address someBenignContract) {\n    _tokenAddresses[index] = Token(someBenignContract);\n  }\n\n  /*\n   * Magic goes here.\n   */\n  function adjustVoteWeight(address tokenAddress, uint256 voteWeight) returns (uint256) {\n    return voteWeight;\n  }\n}",
  "sourcePath": "/home/hayek/proj/igave-contracts/contracts/dao/MultiTenantAdapter.sol",
  "compiler": {
    "name": "solc",
    "version": "0.4.19+commit.c4cbbb05.Emscripten.clang"
  },
  "schemaVersion": "1.0.1",
  "updatedAt": "2018-03-20T08:16:01.408Z"
}