{
  "contractName": "owned",
  "abi": [
    {
      "constant": true,
      "inputs": [],
      "name": "owner",
      "outputs": [
        {
          "name": "",
          "type": "address"
        }
      ],
      "payable": false,
      "stateMutability": "view",
      "type": "function"
    },
    {
      "inputs": [],
      "payable": false,
      "stateMutability": "nonpayable",
      "type": "constructor"
    },
    {
      "constant": false,
      "inputs": [
        {
          "name": "newOwner",
          "type": "address"
        }
      ],
      "name": "transferOwnership",
      "outputs": [],
      "payable": false,
      "stateMutability": "nonpayable",
      "type": "function"
    }
  ],
  "bytecode": "0x6060604052341561000f57600080fd5b336000806101000a81548173ffffffffffffffffffffffffffffffffffffffff021916908373ffffffffffffffffffffffffffffffffffffffff1602179055506101ce8061005e6000396000f30060606040526004361061004c576000357c0100000000000000000000000000000000000000000000000000000000900463ffffffff1680638da5cb5b14610051578063f2fde38b146100a6575b600080fd5b341561005c57600080fd5b6100646100df565b604051808273ffffffffffffffffffffffffffffffffffffffff1673ffffffffffffffffffffffffffffffffffffffff16815260200191505060405180910390f35b34156100b157600080fd5b6100dd600480803573ffffffffffffffffffffffffffffffffffffffff16906020019091905050610104565b005b6000809054906101000a900473ffffffffffffffffffffffffffffffffffffffff1681565b6000809054906101000a900473ffffffffffffffffffffffffffffffffffffffff1673ffffffffffffffffffffffffffffffffffffffff163373ffffffffffffffffffffffffffffffffffffffff1614151561015f57600080fd5b806000806101000a81548173ffffffffffffffffffffffffffffffffffffffff021916908373ffffffffffffffffffffffffffffffffffffffff160217905550505600a165627a7a7230582076dbbb81156d1134fe4f5d049b048c1de0e4fca6b9242029c8c07894327f19ba0029",
  "source": "pragma solidity 0.4.19;\n\ncontract owned {\n    address public owner;\n\n    function owned() public {\n        owner = msg.sender;\n    }\n\n    modifier onlyOwner {\n        require(msg.sender == owner);\n        _;\n    }\n\n    function transferOwnership(address newOwner) public onlyOwner {\n        owner = newOwner;\n    }\n}\n\ncontract tokenRecipient {\n    event receivedEther(address sender, uint amount);\n    event receivedTokens(address _from, uint256 _value, address _token, bytes _extraData);\n\n    function receiveApproval(address _from, uint256 _value, address _token, bytes _extraData) public {\n        Token t = Token(_token);\n        require(t.transferFrom(_from, this, _value));\n        receivedTokens(_from, _value, _token, _extraData);\n    }\n\n    function () payable {\n        receivedEther(msg.sender, msg.value);\n    }\n}\n\ncontract Token {\n    mapping (address => uint256) public voteWeight;\n    uint public numberOfDelegationRounds;\n\n    function balanceOf(address member) public constant returns (uint256 balance) {\n        if (numberOfDelegationRounds < 3)\n            return 0;\n        else\n            return this.voteWeight(member);\n    }\n\n    function transferFrom(address _from, address _to, uint256 _value) public returns (bool success);\n}\n\n/**\n * The shareholder association contract itself\n */\ncontract Association is owned, tokenRecipient {\n\n    uint public minimumQuorum;\n    uint public debatingPeriodInMinutes;\n    Proposal[] public proposals;\n    uint public numProposals;\n    Token public sharesTokenAddress;\n\n    event ProposalAdded(uint proposalID, address recipient, uint amount, string description);\n    event Voted(uint proposalID, bool position, address voter);\n    event ProposalTallied(uint proposalID, uint result, uint quorum, bool active);\n    event ChangeOfRules(uint newMinimumQuorum, uint newDebatingPeriodInMinutes, address newSharesTokenAddress);\n\n    struct Proposal {\n        address recipient;\n        uint amount;\n        string description;\n        uint votingDeadline;\n        bool executed;\n        bool proposalPassed;\n        uint numberOfVotes;\n        bytes32 proposalHash;\n        Vote[] votes;\n        mapping (address => bool) voted;\n    }\n\n    struct Vote {\n        bool inSupport;\n        address voter;\n    }\n\n    // Modifier that allows only shareholders to vote and create new proposals\n    modifier onlyShareholders {\n        require(sharesTokenAddress.balanceOf(msg.sender) > 0);\n        _;\n    }\n\n    /**\n     * Constructor function\n     *\n     * First time setup\n     */\n    function Association(Token sharesAddress, uint minimumSharesToPassAVote, uint minutesForDebate) public payable {\n        changeVotingRules(sharesAddress, minimumSharesToPassAVote, minutesForDebate);\n    }\n\n    /**\n     * Change voting rules\n     *\n     * Make so that proposals need to be discussed for at least `minutesForDebate/60` hours\n     * and all voters combined must own more than `minimumSharesToPassAVote` shares of token `sharesAddress` to be executed\n     *\n     * @param sharesAddress token address\n     * @param minimumSharesToPassAVote proposal can vote only if the sum of shares held by all voters exceed this number\n     * @param minutesForDebate the minimum amount of delay between when a proposal is made and when it can be executed\n     */\n    function changeVotingRules(Token sharesAddress, uint minimumSharesToPassAVote, uint minutesForDebate) public onlyOwner {\n        sharesTokenAddress = Token(sharesAddress);\n        if (minimumSharesToPassAVote == 0 ) minimumSharesToPassAVote = 1;\n        minimumQuorum = minimumSharesToPassAVote;\n        debatingPeriodInMinutes = minutesForDebate;\n        ChangeOfRules(minimumQuorum, debatingPeriodInMinutes, sharesTokenAddress);\n    }\n\n    /**\n     * Add Proposal\n     *\n     * Propose to send `weiAmount / 1e18` ether to `beneficiary` for `jobDescription`. `transactionBytecode ? Contains : Does not contain` code.\n     *\n     * @param beneficiary who to send the ether to\n     * @param weiAmount amount of ether to send, in wei\n     * @param jobDescription Description of job\n     * @param transactionBytecode bytecode of transaction\n     */\n    function newProposal(\n        address beneficiary,\n        uint weiAmount,\n        string jobDescription,\n        bytes transactionBytecode\n    )\n        public\n        onlyShareholders\n        returns (uint proposalID)\n    {\n        proposalID = proposals.length++;\n        Proposal storage p = proposals[proposalID];\n        p.recipient = beneficiary;\n        p.amount = weiAmount;\n        p.description = jobDescription;\n        p.proposalHash = keccak256(beneficiary, weiAmount, transactionBytecode);\n        p.votingDeadline = now + debatingPeriodInMinutes * 1 minutes;\n        p.executed = false;\n        p.proposalPassed = false;\n        p.numberOfVotes = 0;\n        ProposalAdded(proposalID, beneficiary, weiAmount, jobDescription);\n        numProposals = proposalID+1;\n\n        return proposalID;\n    }\n\n    /**\n     * Add proposal in Ether\n     *\n     * Propose to send `etherAmount` ether to `beneficiary` for `jobDescription`. `transactionBytecode ? Contains : Does not contain` code.\n     * This is a convenience function to use if the amount to be given is in round number of ether units.\n     *\n     * @param beneficiary who to send the ether to\n     * @param etherAmount amount of ether to send\n     * @param jobDescription Description of job\n     * @param transactionBytecode bytecode of transaction\n     */\n    function newProposalInEther(\n        address beneficiary,\n        uint etherAmount,\n        string jobDescription,\n        bytes transactionBytecode\n    )\n        public\n        onlyShareholders\n        returns (uint proposalID)\n    {\n        return newProposal(beneficiary, etherAmount * 1 ether, jobDescription, transactionBytecode);\n    }\n\n    /**\n     * Check if a proposal code matches\n     *\n     * @param proposalNumber ID number of the proposal to query\n     * @param beneficiary who to send the ether to\n     * @param weiAmount amount of ether to send\n     * @param transactionBytecode bytecode of transaction\n     */\n    function checkProposalCode(\n        uint proposalNumber,\n        address beneficiary,\n        uint weiAmount,\n        bytes transactionBytecode\n    )\n        public\n        constant\n        returns (bool codeChecksOut)\n    {\n        Proposal storage p = proposals[proposalNumber];\n        return p.proposalHash == keccak256(beneficiary, weiAmount, transactionBytecode);\n    }\n\n    /**\n     * Log a vote for a proposal\n     *\n     * Vote `supportsProposal? in support of : against` proposal #`proposalNumber`\n     *\n     * @param proposalNumber number of proposal\n     * @param supportsProposal either in favor or against it\n     */\n    function vote(\n        uint proposalNumber,\n        bool supportsProposal\n    )\n        public\n        onlyShareholders\n        returns (uint voteID)\n    {\n        Proposal storage p = proposals[proposalNumber];\n        require(p.voted[msg.sender] != true);\n\n        voteID = p.votes.length++;\n        p.votes[voteID] = Vote({inSupport: supportsProposal, voter: msg.sender});\n        p.voted[msg.sender] = true;\n        p.numberOfVotes = voteID +1;\n        Voted(proposalNumber,  supportsProposal, msg.sender);\n        return voteID;\n    }\n\n    /**\n     * Finish vote\n     *\n     * Count the votes proposal #`proposalNumber` and execute it if approved\n     *\n     * @param proposalNumber proposal number\n     * @param transactionBytecode optional: if the transaction contained a bytecode, you need to send it\n     */\n    function executeProposal(uint proposalNumber, bytes transactionBytecode) public {\n        Proposal storage p = proposals[proposalNumber];\n\n        require(now > p.votingDeadline                                             // If it is past the voting deadline\n            && !p.executed                                                          // and it has not already been executed\n            && p.proposalHash == keccak256(p.recipient, p.amount, transactionBytecode)); // and the supplied code matches the proposal...\n\n\n        // ...then tally the results\n        uint quorum = 0;\n        uint yea = 0;\n        uint nay = 0;\n\n        for (uint i = 0; i <  p.votes.length; ++i) {\n            Vote storage v = p.votes[i];\n            uint voteWeight = sharesTokenAddress.balanceOf(v.voter);\n            quorum += voteWeight;\n            if (v.inSupport) {\n                yea += voteWeight;\n            } else {\n                nay += voteWeight;\n            }\n        }\n\n        require(quorum >= minimumQuorum); // Check if a minimum quorum has been reached\n\n        if (yea > nay ) {\n            // Proposal passed; execute the transaction\n\n            p.executed = true;\n            require(p.recipient.call.value(p.amount)(transactionBytecode));\n\n            p.proposalPassed = true;\n        } else {\n            // Proposal failed\n            p.proposalPassed = false;\n        }\n\n        // Fire Events\n        ProposalTallied(proposalNumber, yea - nay, quorum, p.proposalPassed);\n    }\n}\n",
  "sourcePath": "/home/hayek/proj/igave-crowdsale/contracts/dao/Association.sol",
  "compiler": {
    "name": "solc",
    "version": "0.4.19+commit.c4cbbb05.Emscripten.clang"
  },
  "schemaVersion": "1.0.1",
  "updatedAt": "2018-02-15T06:34:56.869Z"
}