{
  "contractName": "StandardAssetRegistry",
  "abi": [
    {
      "anonymous": false,
      "inputs": [
        {
          "indexed": true,
          "name": "from",
          "type": "address"
        },
        {
          "indexed": true,
          "name": "to",
          "type": "address"
        },
        {
          "indexed": true,
          "name": "assetId",
          "type": "uint256"
        },
        {
          "indexed": false,
          "name": "operator",
          "type": "address"
        },
        {
          "indexed": false,
          "name": "userData",
          "type": "bytes"
        },
        {
          "indexed": false,
          "name": "operatorData",
          "type": "bytes"
        }
      ],
      "name": "Transfer",
      "type": "event"
    },
    {
      "anonymous": false,
      "inputs": [
        {
          "indexed": true,
          "name": "assetId",
          "type": "uint256"
        },
        {
          "indexed": true,
          "name": "holder",
          "type": "address"
        },
        {
          "indexed": true,
          "name": "operator",
          "type": "address"
        },
        {
          "indexed": false,
          "name": "data",
          "type": "string"
        }
      ],
      "name": "Update",
      "type": "event"
    },
    {
      "anonymous": false,
      "inputs": [
        {
          "indexed": true,
          "name": "operator",
          "type": "address"
        },
        {
          "indexed": true,
          "name": "holder",
          "type": "address"
        },
        {
          "indexed": false,
          "name": "authorized",
          "type": "bool"
        }
      ],
      "name": "AuthorizeOperator",
      "type": "event"
    },
    {
      "anonymous": false,
      "inputs": [
        {
          "indexed": true,
          "name": "owner",
          "type": "address"
        },
        {
          "indexed": true,
          "name": "operator",
          "type": "address"
        },
        {
          "indexed": true,
          "name": "assetId",
          "type": "uint256"
        }
      ],
      "name": "Approve",
      "type": "event"
    },
    {
      "constant": true,
      "inputs": [],
      "name": "name",
      "outputs": [
        {
          "name": "",
          "type": "string"
        }
      ],
      "payable": false,
      "stateMutability": "view",
      "type": "function"
    },
    {
      "constant": true,
      "inputs": [],
      "name": "symbol",
      "outputs": [
        {
          "name": "",
          "type": "string"
        }
      ],
      "payable": false,
      "stateMutability": "view",
      "type": "function"
    },
    {
      "constant": true,
      "inputs": [],
      "name": "description",
      "outputs": [
        {
          "name": "",
          "type": "string"
        }
      ],
      "payable": false,
      "stateMutability": "view",
      "type": "function"
    },
    {
      "constant": true,
      "inputs": [],
      "name": "totalSupply",
      "outputs": [
        {
          "name": "",
          "type": "uint256"
        }
      ],
      "payable": false,
      "stateMutability": "view",
      "type": "function"
    },
    {
      "constant": true,
      "inputs": [],
      "name": "decimals",
      "outputs": [
        {
          "name": "",
          "type": "uint256"
        }
      ],
      "payable": false,
      "stateMutability": "view",
      "type": "function"
    },
    {
      "constant": true,
      "inputs": [],
      "name": "isERC821",
      "outputs": [
        {
          "name": "",
          "type": "bool"
        }
      ],
      "payable": false,
      "stateMutability": "view",
      "type": "function"
    },
    {
      "constant": true,
      "inputs": [
        {
          "name": "assetId",
          "type": "uint256"
        }
      ],
      "name": "exists",
      "outputs": [
        {
          "name": "",
          "type": "bool"
        }
      ],
      "payable": false,
      "stateMutability": "view",
      "type": "function"
    },
    {
      "constant": true,
      "inputs": [
        {
          "name": "assetId",
          "type": "uint256"
        }
      ],
      "name": "holderOf",
      "outputs": [
        {
          "name": "",
          "type": "address"
        }
      ],
      "payable": false,
      "stateMutability": "view",
      "type": "function"
    },
    {
      "constant": true,
      "inputs": [
        {
          "name": "assetId",
          "type": "uint256"
        }
      ],
      "name": "ownerOf",
      "outputs": [
        {
          "name": "",
          "type": "address"
        }
      ],
      "payable": false,
      "stateMutability": "view",
      "type": "function"
    },
    {
      "constant": true,
      "inputs": [
        {
          "name": "assetId",
          "type": "uint256"
        }
      ],
      "name": "safeHolderOf",
      "outputs": [
        {
          "name": "",
          "type": "address"
        }
      ],
      "payable": false,
      "stateMutability": "view",
      "type": "function"
    },
    {
      "constant": true,
      "inputs": [
        {
          "name": "assetId",
          "type": "uint256"
        }
      ],
      "name": "safeOwnerOf",
      "outputs": [
        {
          "name": "",
          "type": "address"
        }
      ],
      "payable": false,
      "stateMutability": "view",
      "type": "function"
    },
    {
      "constant": true,
      "inputs": [
        {
          "name": "assetId",
          "type": "uint256"
        }
      ],
      "name": "assetData",
      "outputs": [
        {
          "name": "",
          "type": "string"
        }
      ],
      "payable": false,
      "stateMutability": "view",
      "type": "function"
    },
    {
      "constant": true,
      "inputs": [
        {
          "name": "assetId",
          "type": "uint256"
        }
      ],
      "name": "safeAssetData",
      "outputs": [
        {
          "name": "",
          "type": "string"
        }
      ],
      "payable": false,
      "stateMutability": "view",
      "type": "function"
    },
    {
      "constant": true,
      "inputs": [
        {
          "name": "holder",
          "type": "address"
        }
      ],
      "name": "assetCount",
      "outputs": [
        {
          "name": "",
          "type": "uint256"
        }
      ],
      "payable": false,
      "stateMutability": "view",
      "type": "function"
    },
    {
      "constant": true,
      "inputs": [
        {
          "name": "holder",
          "type": "address"
        }
      ],
      "name": "balanceOf",
      "outputs": [
        {
          "name": "",
          "type": "uint256"
        }
      ],
      "payable": false,
      "stateMutability": "view",
      "type": "function"
    },
    {
      "constant": true,
      "inputs": [
        {
          "name": "holder",
          "type": "address"
        },
        {
          "name": "index",
          "type": "uint256"
        }
      ],
      "name": "assetByIndex",
      "outputs": [
        {
          "name": "",
          "type": "uint256"
        }
      ],
      "payable": false,
      "stateMutability": "view",
      "type": "function"
    },
    {
      "constant": true,
      "inputs": [
        {
          "name": "holder",
          "type": "address"
        }
      ],
      "name": "assetsOf",
      "outputs": [
        {
          "name": "",
          "type": "uint256[]"
        }
      ],
      "payable": false,
      "stateMutability": "view",
      "type": "function"
    },
    {
      "constant": true,
      "inputs": [
        {
          "name": "operator",
          "type": "address"
        },
        {
          "name": "assetHolder",
          "type": "address"
        }
      ],
      "name": "isOperatorAuthorizedBy",
      "outputs": [
        {
          "name": "",
          "type": "bool"
        }
      ],
      "payable": false,
      "stateMutability": "view",
      "type": "function"
    },
    {
      "constant": true,
      "inputs": [
        {
          "name": "assetId",
          "type": "uint256"
        }
      ],
      "name": "approvedFor",
      "outputs": [
        {
          "name": "",
          "type": "address"
        }
      ],
      "payable": false,
      "stateMutability": "view",
      "type": "function"
    },
    {
      "constant": true,
      "inputs": [
        {
          "name": "operator",
          "type": "address"
        },
        {
          "name": "assetId",
          "type": "uint256"
        }
      ],
      "name": "isApprovedFor",
      "outputs": [
        {
          "name": "",
          "type": "bool"
        }
      ],
      "payable": false,
      "stateMutability": "view",
      "type": "function"
    },
    {
      "constant": false,
      "inputs": [
        {
          "name": "operator",
          "type": "address"
        },
        {
          "name": "authorized",
          "type": "bool"
        }
      ],
      "name": "authorizeOperator",
      "outputs": [],
      "payable": false,
      "stateMutability": "nonpayable",
      "type": "function"
    },
    {
      "constant": false,
      "inputs": [
        {
          "name": "operator",
          "type": "address"
        },
        {
          "name": "assetId",
          "type": "uint256"
        }
      ],
      "name": "approve",
      "outputs": [],
      "payable": false,
      "stateMutability": "nonpayable",
      "type": "function"
    },
    {
      "constant": false,
      "inputs": [
        {
          "name": "to",
          "type": "address"
        },
        {
          "name": "assetId",
          "type": "uint256"
        }
      ],
      "name": "transfer",
      "outputs": [],
      "payable": false,
      "stateMutability": "nonpayable",
      "type": "function"
    },
    {
      "constant": false,
      "inputs": [
        {
          "name": "to",
          "type": "address"
        },
        {
          "name": "assetId",
          "type": "uint256"
        },
        {
          "name": "userData",
          "type": "bytes"
        }
      ],
      "name": "transfer",
      "outputs": [],
      "payable": false,
      "stateMutability": "nonpayable",
      "type": "function"
    },
    {
      "constant": false,
      "inputs": [
        {
          "name": "to",
          "type": "address"
        },
        {
          "name": "assetId",
          "type": "uint256"
        },
        {
          "name": "userData",
          "type": "bytes"
        },
        {
          "name": "operatorData",
          "type": "bytes"
        }
      ],
      "name": "transfer",
      "outputs": [],
      "payable": false,
      "stateMutability": "nonpayable",
      "type": "function"
    }
  ],
  "bytecode": "0x6060604052739aa513f1294c8f1b254ba1188991b4cc2efe1d3b600c60006101000a81548173ffffffffffffffffffffffffffffffffffffffff021916908373ffffffffffffffffffffffffffffffffffffffff160217905550341561006457600080fd5b6124da806100736000396000f300606060405260043610610149576000357c0100000000000000000000000000000000000000000000000000000000900463ffffffff16806306fdde031461014e578063095ea7b3146101dc57806318160ddd1461021e5780632a6dd48f146102475780632c62fa10146102aa578063313ce5671461033857806333683ec614610361578063390ff134146103c45780634f558e791461041e5780636352211e1461045957806370a08231146104bc5780637284e4161461050957806395d89b4114610597578063983df7cd146106255780639c5686db14610695578063a9059cbb146106c2578063ac823a7e14610704578063b0994d4a146107a0578063b2d96b81146107e4578063b6df490614610880578063be45fd62146108e3578063bffa925814610968578063d2953f84146109b5578063dbacc23714610a0b578063e9b07bbf14610a6e575b600080fd5b341561015957600080fd5b610161610b36565b6040518080602001828103825283818151815260200191508051906020019080838360005b838110156101a1578082015181840152602081019050610186565b50505050905090810190601f1680156101ce5780820380516001836020036101000a031916815260200191505b509250505060405180910390f35b34156101e757600080fd5b61021c600480803573ffffffffffffffffffffffffffffffffffffffff16906020019091908035906020019091905050610bde565b005b341561022957600080fd5b610231610d16565b6040518082815260200191505060405180910390f35b341561025257600080fd5b6102686004808035906020019091905050610d20565b604051808273ffffffffffffffffffffffffffffffffffffffff1673ffffffffffffffffffffffffffffffffffffffff16815260200191505060405180910390f35b34156102b557600080fd5b6102e1600480803573ffffffffffffffffffffffffffffffffffffffff16906020019091905050610d5d565b6040518080602001828103825283818151815260200191508051906020019060200280838360005b83811015610324578082015181840152602081019050610309565b505050509050019250505060405180910390f35b341561034357600080fd5b61034b610dfa565b6040518082815260200191505060405180910390f35b341561036c57600080fd5b6103826004808035906020019091905050610e02565b604051808273ffffffffffffffffffffffffffffffffffffffff1673ffffffffffffffffffffffffffffffffffffffff16815260200191505060405180910390f35b34156103cf57600080fd5b610404600480803573ffffffffffffffffffffffffffffffffffffffff16906020019091908035906020019091905050610e6a565b604051808215151515815260200191505060405180910390f35b341561042957600080fd5b61043f6004808035906020019091905050610f41565b604051808215151515815260200191505060405180910390f35b341561046457600080fd5b61047a6004808035906020019091905050610f97565b604051808273ffffffffffffffffffffffffffffffffffffffff1673ffffffffffffffffffffffffffffffffffffffff16815260200191505060405180910390f35b34156104c757600080fd5b6104f3600480803573ffffffffffffffffffffffffffffffffffffffff16906020019091905050610fa9565b6040518082815260200191505060405180910390f35b341561051457600080fd5b61051c610fbb565b6040518080602001828103825283818151815260200191508051906020019080838360005b8381101561055c578082015181840152602081019050610541565b50505050905090810190601f1680156105895780820380516001836020036101000a031916815260200191505b509250505060405180910390f35b34156105a257600080fd5b6105aa611063565b6040518080602001828103825283818151815260200191508051906020019080838360005b838110156105ea5780820151818401526020810190506105cf565b50505050905090810190601f1680156106175780820380516001836020036101000a031916815260200191505b509250505060405180910390f35b341561063057600080fd5b61067b600480803573ffffffffffffffffffffffffffffffffffffffff1690602001909190803573ffffffffffffffffffffffffffffffffffffffff1690602001909190505061110b565b604051808215151515815260200191505060405180910390f35b34156106a057600080fd5b6106a861119f565b604051808215151515815260200191505060405180910390f35b34156106cd57600080fd5b610702600480803573ffffffffffffffffffffffffffffffffffffffff169060200190919080359060200190919050506111a8565b005b341561070f57600080fd5b61072560048080359060200190919050506111da565b6040518080602001828103825283818151815260200191508051906020019080838360005b8381101561076557808201518184015260208101905061074a565b50505050905090810190601f1680156107925780820380516001836020036101000a031916815260200191505b509250505060405180910390f35b34156107ab57600080fd5b6107e2600480803573ffffffffffffffffffffffffffffffffffffffff169060200190919080351515906020019091905050611295565b005b34156107ef57600080fd5b610805600480803590602001909190505061134d565b6040518080602001828103825283818151815260200191508051906020019080838360005b8381101561084557808201518184015260208101905061082a565b50505050905090810190601f1680156108725780820380516001836020036101000a031916815260200191505b509250505060405180910390f35b341561088b57600080fd5b6108a16004808035906020019091905050611461565b604051808273ffffffffffffffffffffffffffffffffffffffff1673ffffffffffffffffffffffffffffffffffffffff16815260200191505060405180910390f35b34156108ee57600080fd5b610966600480803573ffffffffffffffffffffffffffffffffffffffff1690602001909190803590602001909190803590602001908201803590602001908080601f01602080910402602001604051908101604052809392919081815260200183838082843782019150505050505091905050611473565b005b341561097357600080fd5b61099f600480803573ffffffffffffffffffffffffffffffffffffffff16906020019091905050611496565b6040518082815260200191505060405180910390f35b34156109c057600080fd5b6109f5600480803573ffffffffffffffffffffffffffffffffffffffff169060200190919080359060200190919050506114e2565b6040518082815260200191505060405180910390f35b3415610a1657600080fd5b610a2c60048080359060200190919050506115b2565b604051808273ffffffffffffffffffffffffffffffffffffffff1673ffffffffffffffffffffffffffffffffffffffff16815260200191505060405180910390f35b3415610a7957600080fd5b610b34600480803573ffffffffffffffffffffffffffffffffffffffff1690602001909190803590602001909190803590602001908201803590602001908080601f0160208091040260200160405190810160405280939291908181526020018383808284378201915050505050509190803590602001908201803590602001908080601f016020809104026020016040519081016040528093929190818152602001838380828437820191505050505050919050506115ef565b005b610b3e6123e8565b60008054600181600116156101000203166002900480601f016020809104026020016040519081016040528092919081815260200182805460018160011615610100020316600290048015610bd45780601f10610ba957610100808354040283529160200191610bd4565b820191906000526020600020905b815481529060010190602001808311610bb757829003601f168201915b5050505050905090565b6000610be9826115b2565b90508073ffffffffffffffffffffffffffffffffffffffff168373ffffffffffffffffffffffffffffffffffffffff1614151515610c2657600080fd5b8273ffffffffffffffffffffffffffffffffffffffff16610c4683610d20565b73ffffffffffffffffffffffffffffffffffffffff16141515610d115782600b600084815260200190815260200160002060006101000a81548173ffffffffffffffffffffffffffffffffffffffff021916908373ffffffffffffffffffffffffffffffffffffffff160217905550818373ffffffffffffffffffffffffffffffffffffffff168273ffffffffffffffffffffffffffffffffffffffff167f6e11fb1b7f119e3f2fa29896ef5fdf8b8a2d0d4df6fe90ba8668e7d8b2ffa25e60405160405180910390a45b505050565b6000600354905090565b6000600b600083815260200190815260200160002060009054906101000a900473ffffffffffffffffffffffffffffffffffffffff169050919050565b610d656123fc565b600460008373ffffffffffffffffffffffffffffffffffffffff1673ffffffffffffffffffffffffffffffffffffffff168152602001908152602001600020805480602002602001604051908101604052809291908181526020018280548015610dee57602002820191906000526020600020905b815481526020019060010190808311610dda575b50505050509050919050565b600080905090565b6000806005600084815260200190815260200160002060009054906101000a900473ffffffffffffffffffffffffffffffffffffffff16905060008173ffffffffffffffffffffffffffffffffffffffff1614151515610e6157600080fd5b80915050919050565b6000808373ffffffffffffffffffffffffffffffffffffffff1614151515610e9157600080fd5b610e9a826115b2565b73ffffffffffffffffffffffffffffffffffffffff168373ffffffffffffffffffffffffffffffffffffffff161415610ed65760019050610f3b565b8273ffffffffffffffffffffffffffffffffffffffff16600b600084815260200190815260200160002060009054906101000a900473ffffffffffffffffffffffffffffffffffffffff1673ffffffffffffffffffffffffffffffffffffffff161490505b92915050565b6000806005600084815260200190815260200160002060009054906101000a900473ffffffffffffffffffffffffffffffffffffffff1673ffffffffffffffffffffffffffffffffffffffff1614159050919050565b6000610fa2826115b2565b9050919050565b6000610fb482611496565b9050919050565b610fc36123e8565b60028054600181600116156101000203166002900480601f0160208091040260200160405190810160405280929190818152602001828054600181600116156101000203166002900480156110595780601f1061102e57610100808354040283529160200191611059565b820191906000526020600020905b81548152906001019060200180831161103c57829003601f168201915b5050505050905090565b61106b6123e8565b60018054600181600116156101000203166002900480601f0160208091040260200160405190810160405280929190818152602001828054600181600116156101000203166002900480156111015780601f106110d657610100808354040283529160200191611101565b820191906000526020600020905b8154815290600101906020018083116110e457829003601f168201915b5050505050905090565b6000600860008373ffffffffffffffffffffffffffffffffffffffff1673ffffffffffffffffffffffffffffffffffffffff16815260200190815260200160002060008473ffffffffffffffffffffffffffffffffffffffff1673ffffffffffffffffffffffffffffffffffffffff16815260200190815260200160002060009054906101000a900460ff16905092915050565b60006001905090565b6111d68282602060405190810160405280600081525060006020604051908101604052806000815250611602565b5050565b6111e26123e8565b600760008381526020019081526020016000208054600181600116156101000203166002900480601f0160208091040260200160405190810160405280929190818152602001828054600181600116156101000203166002900480156112895780601f1061125e57610100808354040283529160200191611289565b820191906000526020600020905b81548152906001019060200180831161126c57829003601f168201915b50505050509050919050565b80156112c0576112a5823361110b565b1515156112b157600080fd5b6112bb8233611774565b6112e0565b6112ca823361110b565b15156112d557600080fd5b6112df823361180d565b5b3373ffffffffffffffffffffffffffffffffffffffff168273ffffffffffffffffffffffffffffffffffffffff167ffe1dcbb12493a4af760875b0c328b264e6397b8bd47cdc249df0444b4daf1cbc83604051808215151515815260200191505060405180910390a35050565b6113556123e8565b60006005600084815260200190815260200160002060009054906101000a900473ffffffffffffffffffffffffffffffffffffffff1673ffffffffffffffffffffffffffffffffffffffff16141515156113ae57600080fd5b600760008381526020019081526020016000208054600181600116156101000203166002900480601f0160208091040260200160405190810160405280929190818152602001828054600181600116156101000203166002900480156114555780601f1061142a57610100808354040283529160200191611455565b820191906000526020600020905b81548152906001019060200180831161143857829003601f168201915b50505050509050919050565b600061146c82610e02565b9050919050565b61149183838360006020604051908101604052806000815250611602565b505050565b6000600460008373ffffffffffffffffffffffffffffffffffffffff1673ffffffffffffffffffffffffffffffffffffffff168152602001908152602001600020805490509050919050565b6000600460008473ffffffffffffffffffffffffffffffffffffffff1673ffffffffffffffffffffffffffffffffffffffff168152602001908152602001600020805490508210151561153457600080fd5b6f800000000000000000000000000000008210151561155257600080fd5b600460008473ffffffffffffffffffffffffffffffffffffffff1673ffffffffffffffffffffffffffffffffffffffff1681526020019081526020016000208281548110151561159e57fe5b906000526020600020900154905092915050565b60006005600083815260200190815260200160002060009054906101000a900473ffffffffffffffffffffffffffffffffffffffff169050919050565b6115fc8484843385611602565b50505050565b8460008173ffffffffffffffffffffffffffffffffffffffff161415151561162957600080fd5b84868073ffffffffffffffffffffffffffffffffffffffff166005600084815260200190815260200160002060009054906101000a900473ffffffffffffffffffffffffffffffffffffffff1673ffffffffffffffffffffffffffffffffffffffff161415151561169957600080fd5b863373ffffffffffffffffffffffffffffffffffffffff166005600083815260200190815260200160002060009054906101000a900473ffffffffffffffffffffffffffffffffffffffff1673ffffffffffffffffffffffffffffffffffffffff161480611740575061173f336005600084815260200190815260200160002060009054906101000a900473ffffffffffffffffffffffffffffffffffffffff1661110b565b5b8061175157506117503382610e6a565b5b151561175c57600080fd5b61176989898989896118a6565b505050505050505050565b6001600860008373ffffffffffffffffffffffffffffffffffffffff1673ffffffffffffffffffffffffffffffffffffffff16815260200190815260200160002060008473ffffffffffffffffffffffffffffffffffffffff1673ffffffffffffffffffffffffffffffffffffffff16815260200190815260200160002060006101000a81548160ff0219169083151502179055505050565b6000600860008373ffffffffffffffffffffffffffffffffffffffff1673ffffffffffffffffffffffffffffffffffffffff16815260200190815260200160002060008473ffffffffffffffffffffffffffffffffffffffff1673ffffffffffffffffffffffffffffffffffffffff16815260200190815260200160002060006101000a81548160ff0219169083151502179055505050565b6000806005600087815260200190815260200160002060009054906101000a900473ffffffffffffffffffffffffffffffffffffffff1691506118e98287611d32565b6118f3828761200f565b6118fd878761213f565b6119068761223d565b15611bbd57600960009054906101000a900460ff1615151561192757600080fd5b6001600960006101000a81548160ff021916908315150217905550611981876040805190810160405280600c81526020017f494173736574486f6c6465720000000000000000000000000000000000000000815250612250565b905060008173ffffffffffffffffffffffffffffffffffffffff16141515156119a957600080fd5b8073ffffffffffffffffffffffffffffffffffffffff16633bde307287848a8989896040518763ffffffff167c0100000000000000000000000000000000000000000000000000000000028152600401808781526020018673ffffffffffffffffffffffffffffffffffffffff1673ffffffffffffffffffffffffffffffffffffffff1681526020018573ffffffffffffffffffffffffffffffffffffffff1673ffffffffffffffffffffffffffffffffffffffff168152602001806020018473ffffffffffffffffffffffffffffffffffffffff1673ffffffffffffffffffffffffffffffffffffffff16815260200180602001838103835286818151815260200191508051906020019080838360005b83811015611ad6578082015181840152602081019050611abb565b50505050905090810190601f168015611b035780820380516001836020036101000a031916815260200191505b50838103825284818151815260200191508051906020019080838360005b83811015611b3c578082015181840152602081019050611b21565b50505050905090810190601f168015611b695780820380516001836020036101000a031916815260200191505b5098505050505050505050600060405180830381600087803b1515611b8d57600080fd5b6102c65a03f11515611b9e57600080fd5b5050506000600960006101000a81548160ff0219169083151502179055505b858773ffffffffffffffffffffffffffffffffffffffff168373ffffffffffffffffffffffffffffffffffffffff167f8988d59efc2c4547ef86c88f6543963bab0cea94f8e486e619c7c3a790db93be878988604051808473ffffffffffffffffffffffffffffffffffffffff1673ffffffffffffffffffffffffffffffffffffffff1681526020018060200180602001838103835285818151815260200191508051906020019080838360005b83811015611c86578082015181840152602081019050611c6b565b50505050905090810190601f168015611cb35780820380516001836020036101000a031916815260200191505b50838103825284818151815260200191508051906020019080838360005b83811015611cec578082015181840152602081019050611cd1565b50505050905090810190601f168015611d195780820380516001836020036101000a031916815260200191505b509550505050505060405180910390a450505050505050565b600080600060066000858152602001908152602001600020549250611d696001611d5b87611496565b6123b190919063ffffffff16565b9150600460008673ffffffffffffffffffffffffffffffffffffffff1673ffffffffffffffffffffffffffffffffffffffff16815260200190815260200160002082815481101515611db757fe5b906000526020600020900154905060006005600086815260200190815260200160002060006101000a81548173ffffffffffffffffffffffffffffffffffffffff021916908373ffffffffffffffffffffffffffffffffffffffff16021790555080600460008773ffffffffffffffffffffffffffffffffffffffff1673ffffffffffffffffffffffffffffffffffffffff16815260200190815260200160002084815481101515611e6557fe5b9060005260206000209001819055506000600460008773ffffffffffffffffffffffffffffffffffffffff1673ffffffffffffffffffffffffffffffffffffffff16815260200190815260200160002083815481101515611ec257fe5b906000526020600020900181905550600460008673ffffffffffffffffffffffffffffffffffffffff1673ffffffffffffffffffffffffffffffffffffffff168152602001908152602001600020805480919060019003611f239190612410565b506000600460008773ffffffffffffffffffffffffffffffffffffffff1673ffffffffffffffffffffffffffffffffffffffff168152602001908152602001600020805490501415611fbb57600460008673ffffffffffffffffffffffffffffffffffffffff1673ffffffffffffffffffffffffffffffffffffffff1681526020019081526020016000206000611fba919061243c565b5b6000600660008681526020019081526020016000208190555082600660008381526020019081526020016000208190555061200260016003546123b190919063ffffffff16565b6003819055505050505050565b8173ffffffffffffffffffffffffffffffffffffffff1661202f826115b2565b73ffffffffffffffffffffffffffffffffffffffff1614801561209c57506000600b600083815260200190815260200160002060009054906101000a900473ffffffffffffffffffffffffffffffffffffffff1673ffffffffffffffffffffffffffffffffffffffff1614155b1561213b576000600b600083815260200190815260200160002060006101000a81548173ffffffffffffffffffffffffffffffffffffffff021916908373ffffffffffffffffffffffffffffffffffffffff1602179055508060008373ffffffffffffffffffffffffffffffffffffffff167f6e11fb1b7f119e3f2fa29896ef5fdf8b8a2d0d4df6fe90ba8668e7d8b2ffa25e60405160405180910390a45b5050565b6000826005600084815260200190815260200160002060006101000a81548173ffffffffffffffffffffffffffffffffffffffff021916908373ffffffffffffffffffffffffffffffffffffffff16021790555061219c83611496565b9050600460008473ffffffffffffffffffffffffffffffffffffffff1673ffffffffffffffffffffffffffffffffffffffff16815260200190815260200160002080548060010182816121ef919061245d565b91600052602060002090016000849091909150555080600660008481526020019081526020016000208190555061223260016003546123ca90919063ffffffff16565b600381905550505050565b600080823b905060008111915050919050565b600080826040518082805190602001908083835b6020831015156122895780518252602082019150602081019050602083039250612264565b6001836020036101000a03801982511681845116808217855250505050505090500191505060405180910390209050600c60009054906101000a900473ffffffffffffffffffffffffffffffffffffffff1673ffffffffffffffffffffffffffffffffffffffff1663aabbb8ca85836000604051602001526040518363ffffffff167c0100000000000000000000000000000000000000000000000000000000028152600401808373ffffffffffffffffffffffffffffffffffffffff1673ffffffffffffffffffffffffffffffffffffffff168152602001826000191660001916815260200192505050602060405180830381600087803b151561238d57600080fd5b6102c65a03f1151561239e57600080fd5b5050506040518051905091505092915050565b60008282111515156123bf57fe5b818303905092915050565b60008082840190508381101515156123de57fe5b8091505092915050565b602060405190810160405280600081525090565b602060405190810160405280600081525090565b815481835581811511612437578183600052602060002091820191016124369190612489565b5b505050565b508054600082559060005260206000209081019061245a9190612489565b50565b815481835581811511612484578183600052602060002091820191016124839190612489565b5b505050565b6124ab91905b808211156124a757600081600090555060010161248f565b5090565b905600a165627a7a72305820cc901a7d353ecbf7684a69bf6393fe25bcaee7e0dd71cc2e796c08a377bfdcc10029",
  "source": "pragma solidity ^0.4.18;\n\nimport 'zeppelin-solidity/contracts/math/SafeMath.sol';\n\nimport 'eip820/contracts/EIP820Registry.sol';\nimport 'eip820/contracts/EIP820Implementer.sol';\n\nimport './AssetRegistryStorage.sol';\n\nimport './IAssetRegistry.sol';\n\nimport './IAssetHolder.sol';\n\ncontract StandardAssetRegistry is AssetRegistryStorage, IAssetRegistry, EIP820Implementer {\n  using SafeMath for uint256;\n\n  //\n  // Global Getters\n  //\n\n  function name() public view returns (string) {\n    return _name;\n  }\n\n  function symbol() public view returns (string) {\n    return _symbol;\n  }\n\n  function description() public view returns (string) {\n    return _description;\n  }\n\n  function totalSupply() public view returns (uint256) {\n    return _count;\n  }\n\n  function decimals() public view returns (uint256) {\n    return 0;\n  }\n\n  function isERC821() public view returns (bool) {\n    return true;\n  }\n\n  //\n  // Asset-centric getter functions\n  //\n\n  function exists(uint256 assetId) public view returns (bool) {\n    return _holderOf[assetId] != 0;\n  }\n\n  function holderOf(uint256 assetId) public view returns (address) {\n    return _holderOf[assetId];\n  }\n\n  function ownerOf(uint256 assetId) public view returns (address) {\n    // It's OK to be inefficient here, as this method is for compatibility.\n    // Users should call `holderOf`\n    return holderOf(assetId);\n  }\n\n  function safeHolderOf(uint256 assetId) public view returns (address) {\n    address holder = _holderOf[assetId];\n    require(holder != 0);\n    return holder;\n  }\n\n  function safeOwnerOf(uint256 assetId) public view returns (address) {\n    return safeHolderOf(assetId);\n  }\n\n  function assetData(uint256 assetId) public view returns (string) {\n    return _assetData[assetId];\n  }\n\n  function safeAssetData(uint256 assetId) public view returns (string) {\n    require(_holderOf[assetId] != 0);\n    return _assetData[assetId];\n  }\n\n  //\n  // Holder-centric getter functions\n  //\n\n  function assetCount(address holder) public view returns (uint256) {\n    return _assetsOf[holder].length;\n  }\n\n  function balanceOf(address holder) public view returns (uint256) {\n    return assetCount(holder);\n  }\n\n  function assetByIndex(address holder, uint256 index) public view returns (uint256) {\n    require(index < _assetsOf[holder].length);\n    require(index < (1<<127));\n    return _assetsOf[holder][index];\n  }\n\n  function assetsOf(address holder) external view returns (uint256[]) {\n    return _assetsOf[holder];\n  }\n\n  //\n  // Authorization getters\n  //\n\n  function isOperatorAuthorizedBy(address operator, address assetHolder)\n    public view returns (bool)\n  {\n    return _operators[assetHolder][operator];\n  }\n\n  function approvedFor(uint256 assetId) public view returns (address) {\n    return _approval[assetId];\n  }\n\n  function isApprovedFor(address operator, uint256 assetId)\n    public view returns (bool)\n  {\n    require(operator != 0);\n    if (operator == holderOf(assetId)) {\n      return true;\n    }\n    return _approval[assetId] == operator;\n  }\n\n  //\n  // Authorization\n  //\n\n  function authorizeOperator(address operator, bool authorized) public {\n    if (authorized) {\n      require(!isOperatorAuthorizedBy(operator, msg.sender));\n      _addAuthorization(operator, msg.sender);\n    } else {\n      require(isOperatorAuthorizedBy(operator, msg.sender));\n      _clearAuthorization(operator, msg.sender);\n    }\n    AuthorizeOperator(operator, msg.sender, authorized);\n  }\n\n  function approve(address operator, uint256 assetId) public {\n    address holder = holderOf(assetId);\n    require(operator != holder);\n    if (approvedFor(assetId) != operator) {\n      _approval[assetId] = operator;\n      Approve(holder, operator, assetId);\n    }\n  }\n\n  function _addAuthorization(address operator, address holder) private {\n    _operators[holder][operator] = true;\n  }\n\n  function _clearAuthorization(address operator, address holder) private {\n    _operators[holder][operator] = false;\n  }\n\n  //\n  // Internal Operations\n  //\n\n  function _addAssetTo(address to, uint256 assetId) internal {\n    _holderOf[assetId] = to;\n\n    uint256 length = assetCount(to);\n\n    _assetsOf[to].push(assetId);\n\n    _indexOfAsset[assetId] = length;\n\n    _count = _count.add(1);\n  }\n\n  function _addAssetTo(address to, uint256 assetId, string data) internal {\n    _addAssetTo(to, assetId);\n\n    _assetData[assetId] = data;\n  }\n\n  function _removeAssetFrom(address from, uint256 assetId) internal {\n    uint256 assetIndex = _indexOfAsset[assetId];\n    uint256 lastAssetIndex = assetCount(from).sub(1);\n    uint256 lastAssetId = _assetsOf[from][lastAssetIndex];\n\n    _holderOf[assetId] = 0;\n\n    // Insert the last asset into the position previously occupied by the asset to be removed\n    _assetsOf[from][assetIndex] = lastAssetId;\n\n    // Resize the array\n    _assetsOf[from][lastAssetIndex] = 0;\n    _assetsOf[from].length--;\n\n    // Remove the array if no more assets are owned to prevent pollution\n    if (_assetsOf[from].length == 0) {\n      delete _assetsOf[from];\n    }\n\n    // Update the index of positions for the asset\n    _indexOfAsset[assetId] = 0;\n    _indexOfAsset[lastAssetId] = assetIndex;\n\n    _count = _count.sub(1);\n  }\n\n  function _clearApproval(address holder, uint256 assetId) internal {\n    if (holderOf(assetId) == holder && _approval[assetId] != 0) {\n      _approval[assetId] = 0;\n      Approve(holder, 0, assetId);\n    }\n  }\n\n  function _removeAssetData(uint256 assetId) internal {\n    _assetData[assetId] = '';\n  }\n\n  //\n  // Supply-altering functions\n  //\n\n  function _generate(uint256 assetId, address beneficiary, string data) internal {\n    require(_holderOf[assetId] == 0);\n\n    _addAssetTo(beneficiary, assetId, data);\n\n    Transfer(0, beneficiary, assetId, msg.sender, bytes(data), '');\n  }\n\n  function _destroy(uint256 assetId) internal {\n    address holder = _holderOf[assetId];\n    require(holder != 0);\n\n    _removeAssetFrom(holder, assetId);\n    _removeAssetData(assetId);\n\n    Transfer(holder, 0, assetId, msg.sender, '', '');\n  }\n\n  //\n  // Transaction related operations\n  //\n\n  modifier onlyHolder(uint256 assetId) {\n    require(_holderOf[assetId] == msg.sender);\n    _;\n  }\n\n  modifier onlyOperatorOrHolder(uint256 assetId) {\n    require(\n      _holderOf[assetId] == msg.sender\n      || isOperatorAuthorizedBy(msg.sender, _holderOf[assetId])\n      || isApprovedFor(msg.sender, assetId)\n    );\n    _;\n  }\n\n  modifier isDestinataryDefined(address destinatary) {\n    require(destinatary != 0);\n    _;\n  }\n\n  modifier destinataryIsNotHolder(uint256 assetId, address to) {\n    require(_holderOf[assetId] != to);\n    _;\n  }\n\n  function transfer(address to, uint256 assetId) public {\n    return _doTransfer(to, assetId, '', 0, '');\n  }\n\n  function transfer(address to, uint256 assetId, bytes userData) public {\n    return _doTransfer(to, assetId, userData, 0, '');\n  }\n\n  function transfer(address to, uint256 assetId, bytes userData, bytes operatorData) public {\n    return _doTransfer(to, assetId, userData, msg.sender, operatorData);\n  }\n\n  function _doTransfer(\n    address to, uint256 assetId, bytes userData, address operator, bytes operatorData\n  )\n    isDestinataryDefined(to)\n    destinataryIsNotHolder(assetId, to)\n    onlyOperatorOrHolder(assetId)\n    internal\n  {\n    return _doSend(to, assetId, userData, operator, operatorData);\n  }\n\n\n  function _doSend(\n    address to, uint256 assetId, bytes userData, address operator, bytes operatorData\n  )\n    internal\n  {\n    address holder = _holderOf[assetId];\n    _removeAssetFrom(holder, assetId);\n    _clearApproval(holder, assetId);\n    _addAssetTo(to, assetId);\n\n    if (_isContract(to)) {\n      require(!_reentrancy);\n      _reentrancy = true;\n\n      address recipient = interfaceAddr(to, 'IAssetHolder');\n      require(recipient != 0);\n\n      IAssetHolder(recipient).onAssetReceived(assetId, holder, to, userData, operator, operatorData);\n\n      _reentrancy = false;\n    }\n\n    Transfer(holder, to, assetId, operator, userData, operatorData);\n  }\n\n  //\n  // Update related functions\n  //\n\n  function _update(uint256 assetId, string data) internal {\n    require(exists(assetId));\n    _assetData[assetId] = data;\n    Update(assetId, _holderOf[assetId], msg.sender, data);\n  }\n\n  //\n  // Utilities\n  //\n\n  function _isContract(address addr) internal view returns (bool) {\n    uint size;\n    assembly { size := extcodesize(addr) }\n    return size > 0;\n  }\n}\n",
  "sourcePath": "/home/hayek/proj/igave-crowdsale/contracts/dar/StandardAssetRegistry.sol",
  "compiler": {
    "name": "solc",
    "version": "0.4.19+commit.c4cbbb05.Emscripten.clang"
  },
  "schemaVersion": "1.0.1",
  "updatedAt": "2018-02-15T06:34:56.875Z"
}