{
  "contractName": "token",
  "abi": [
    {
      "constant": true,
      "inputs": [
        {
          "name": "",
          "type": "address"
        }
      ],
      "name": "balanceOf",
      "outputs": [
        {
          "name": "",
          "type": "uint256"
        }
      ],
      "payable": false,
      "stateMutability": "view",
      "type": "function"
    }
  ],
  "bytecode": "0x6060604052341561000f57600080fd5b60d28061001d6000396000f300606060405260043610603f576000357c0100000000000000000000000000000000000000000000000000000000900463ffffffff16806370a08231146044575b600080fd5b3415604e57600080fd5b6078600480803573ffffffffffffffffffffffffffffffffffffffff16906020019091905050608e565b6040518082815260200191505060405180910390f35b600060205280600052604060002060009150905054815600a165627a7a7230582070a704fda02f7c57e2837a61263daac7481e300620d6af60d9a818ba7d2b19460029",
  "source": "pragma solidity 0.4.18;\n\ncontract token {\n    mapping (address => uint256) public balanceOf;\n}\n\ncontract LiquidDemocracy {\n    token public votingToken;\n    bool  underExecution;\n    address public appointee;\n    mapping (address => uint) public voterId;\n    mapping (address => uint256) public voteWeight;\n\n    uint public delegatedPercent;\n    uint public lastWeightCalculation;\n    uint public numberOfDelegationRounds;\n\n    uint public numberOfVotes;\n    DelegatedVote[] public delegatedVotes;\n    string public forbiddenFunction;\n\n    event NewAppointee(address newAppointee, bool changed);\n\n    struct DelegatedVote {\n        address nominee;\n        address voter;\n    }\n\n    /**\n     * Constructor function\n     */\n    function LiquidDemocracy(\n        address votingWeightToken,\n        string forbiddenFunctionCall,\n        uint percentLossInEachRound\n    ) {\n        votingToken = token(votingWeightToken);\n        delegatedVotes.length++;\n        delegatedVotes[0] = DelegatedVote({nominee: 0, voter: 0});\n        forbiddenFunction = forbiddenFunctionCall;\n        delegatedPercent = 100 - percentLossInEachRound;\n        if (delegatedPercent > 100) delegatedPercent = 100;\n    }\n\n    /**\n     * Vote for an address\n     *\n     * Send your vote weight to another address\n     *\n     * @param nominatedAddress the destination address receiving the sender's vote\n     */\n    function vote(address nominatedAddress) returns (uint voteIndex) {\n        if (voterId[msg.sender]== 0) {\n            voterId[msg.sender] = delegatedVotes.length;\n            numberOfVotes++;\n            voteIndex = delegatedVotes.length++;\n            numberOfVotes = voteIndex;\n        }\n        else {\n            voteIndex = voterId[msg.sender];\n        }\n\n        delegatedVotes[voteIndex] = DelegatedVote({nominee: nominatedAddress, voter: msg.sender});\n\n        return voteIndex;\n    }\n\n    /**\n     * Perform Executive Action\n     *\n     * @param target the destination address to interact with\n     * @param valueInWei the amount of ether to send along with the transaction\n     * @param bytecode the data bytecode for the transaction\n     */\n    function execute(address target, uint valueInWei, bytes32 bytecode) {\n        require(msg.sender == appointee                             // If caller is the current appointee,\n            && !underExecution //                                   // if the call is being executed,\n            && bytes4(bytecode) != bytes4(sha3(forbiddenFunction))  // and it's not trying to do the forbidden function\n            && numberOfDelegationRounds >= 4);                     // and delegation has been calculated enough\n\n        underExecution = true;\n        assert(target.call.value(valueInWei)(bytecode)); // Then execute the command.\n        underExecution = false;\n    }\n\n    /**\n     * Calculate Votes\n     *\n     * Go thruogh all the delegated vote logs and tally up each address's total rank\n     */\n    function calculateVotes() returns (address winner) {\n        address currentWinner = appointee;\n        uint currentMax = 0;\n        uint weight = 0;\n        DelegatedVote storage v = delegatedVotes[0];\n\n        if (now > lastWeightCalculation + 90 minutes) {\n            numberOfDelegationRounds = 0;\n            lastWeightCalculation = now;\n\n            // Distribute the initial weight\n            for (uint i=1; i< delegatedVotes.length; i++) {\n                voteWeight[delegatedVotes[i].nominee] = 0;\n            }\n            for (i=1; i< delegatedVotes.length; i++) {\n                voteWeight[delegatedVotes[i].voter] = votingToken.balanceOf(delegatedVotes[i].voter);\n            }\n        }\n        else {\n            numberOfDelegationRounds++;\n            uint lossRatio = 100 * delegatedPercent ** numberOfDelegationRounds / 100 ** numberOfDelegationRounds;\n            if (lossRatio > 0) {\n                for (i=1; i< delegatedVotes.length; i++){\n                    v = delegatedVotes[i];\n\n                    if (v.nominee != v.voter && voteWeight[v.voter] > 0) {\n                        weight = voteWeight[v.voter] * lossRatio / 100;\n                        voteWeight[v.voter] -= weight;\n                        voteWeight[v.nominee] += weight;\n                    }\n\n                    if (numberOfDelegationRounds>3 && voteWeight[v.nominee] > currentMax) {\n                        currentWinner = v.nominee;\n                        currentMax = voteWeight[v.nominee];\n                    }\n                }\n            }\n        }\n\n        if (numberOfDelegationRounds > 3) {\n            NewAppointee(currentWinner, appointee == currentWinner);\n            appointee = currentWinner;\n        }\n\n        return currentWinner;\n    }\n}\n",
  "sourcePath": "/home/hayek/proj/igave-crowdsale/contracts/dao/LiquidDemocracy.sol",
  "compiler": {
    "name": "solc",
    "version": "0.4.18+commit.9cf6e910.Emscripten.clang"
  },
  "schemaVersion": "1.0.1",
  "updatedAt": "2018-02-01T07:53:21.351Z"
}